:020000040800F2
:10000000680400203902000847020008490200087D
:100010004B0200084D0200084F02000800000000DB
:100020000000000000000000000000005102000875
:1000300053020008000000005502000857020008A3
:100040005902000859020008590200085902000824
:100050005902000859020008590200085902000814
:100060005902000859020008590200085902000804
:1000700059020008590200085902000859020008F4
:1000800059020008590200085902000859020008E4
:1000900059020008590200085902000859020008D4
:1000A00059020008590200085902000859020008C4
:1000B00059020008590200085902000859020008B4
:1000C00059020008590200085902000859020008A4
:1000D0005902000859020008590200085902000894
:1000E0005902000859020008590200085902000884
:1000F0005902000859020008590200085902000874
:100100005902000859020008590200085902000863
:100110005902000859020008590200085902000853
:100120005902000859020008590200085902000843
:100130005902000859020008590200085902000833
:100140005902000859020008590200085902000823
:100150005902000859020008590200085902000813
:100160005902000859020008590200085902000803
:100170005902000859020008590200080000000056
:10018000590200085902000800F002F800F044F893
:100190000AA090E8000C82448344AAF10107DA45E2
:1001A00001D100F039F8AFF2090EBAE80F0013F0F0
:1001B000010F18BFFB1A43F001031847540C00004D
:1001C000740C0000103A24BF78C878C1FAD85207DE
:1001D00024BF30C830C144BF04680C6070470000C1
:1001E0000023002400250026103A28BF78C1FBD840
:1001F000520728BF30C148BF0B607047642900F028
:10020000A980732900F05181002070471FB500F0CC
:10021000F9FD1FBD10B510BD00F07AF91146FFF7CA
:10022000F5FF00F0B9FC00F098F903B4FFF7F2FF16
:1002300003BC00F041FC00000B48016841F4700170
:1002400001600A480047FEE7FEE7FEE7FEE7FEE73B
:10025000FEE7FEE7FEE7FEE7FEE70000044805498B
:10026000034A054B7047000088ED00E08901000853
:10027000680000206804002068000020704700002B
:100280000FB4044910B503AA029800F013F910BC8A
:100290005DF814FB000000202DE9F0410E460446F5
:1002A000002020622046E168884730B3252805D029
:1002B000D4E901219047206A401CF2E7E16820461A
:1002C00000278847050018D0A5F14100192802D859
:1002D00020354FF400673246294620462760FFF755
:1002E0008DFF40B1012804D0F61D26F00706083620
:1002F000D8E7361DD6E72846DAE7206ABDE8F08160
:1003000070B50C460546012A05D02878800600D530
:10031000EA69002302E0012305E05B1C934202D25C
:10032000E05C0028F9D1A869E618C01AA861286A1B
:10033000184428622846AFF3008004E0D5E9012183
:1003400014F8010B9047B442F8D32846AFF300806D
:1003500070BD00002DE9F0410646002410687529A3
:10036000314616A510D0AFF30080002802DA4042D3
:1003700013A507E031688A0701D512A502E04907F5
:1003800004D511A5012401E0AFF3008000210A2269
:1003900006F1240709E0B0FBF2FCB0FBF2F302FB2C
:1003A0001C00303078541846491C0028F3D12346ED
:1003B0002A463046BDE8F04100F00CB800000000CD
:1003C0002D0000002B000000200000007047704747
:1003D000704770472DE9F0470D469946924604460E
:1003E00000F124080168880604D5E06921F01001B5
:1003F000216000E00120A84201DD471B00E000274A
:10040000A1697A1902EB0900081AA0612078C006D8
:1004100002D42046AFF30080002608E0D4E9012191
:100420001AF806009047206A401C761C20624E4550
:10043000F4DB2078C0060AD52046AFF3008006E042
:10044000D4E9012130209047206A401C2062381EE8
:10045000A7F10107F4DC07E0D4E9012118F8050051
:100460009047206A401C2062281EA5F10105F3DC9C
:100470002046AFF300802078000602D50220BDE8B8
:10048000F0870120FBE710B5436913B1AFF300809B
:1004900001E0FFF735FF012010BD127800F12401C3
:1004A0000A7000224A700122EDE711684FF0FF3216
:1004B000E9E70000074B70B50D467B4400F011F8EA
:1004C0000446284600F020F810B14FF0FF3070BD10
:1004D000204670BDBF06000001694A1C0261087811
:1004E000704700B58FB0CDE9013100210591054974
:1004F0007944CDE9031011466846FFF7CDFE0FB0F1
:1005000000BD0000E5FFFFFF007B00F080007047AA
:10051000754600F02BF8AE4605006946534620F0BC
:100520000700854618B020B5FFF798FEBDE82040CB
:100530004FF000064FF000074FF000084FF0000B9F
:1005400021F00701AC46ACE8C009ACE8C009ACE852
:10055000C009ACE8C0098D46704710B50446AFF33A
:1005600000802046BDE81040FFF75FBE004870479E
:100570000400002010B500F0EDF810BD2DE9F047A3
:1005800081468A4614461D46089E00270BE03346E6
:1005900022465146484600F00BF88046601C84B263
:1005A000761C781CC7B2AF42F1DB4046BDE8F0874D
:1005B0002DE9F04780460E461446994600F0D2F9E0
:1005C000B8F5006F16DB304600F094F900F0F6F84D
:1005D000054625B100F0ECF90120BDE8F0872012B6
:1005E00000F088F900F0EAF80546ADB100F0E0F956
:1005F0000220F2E72746E11704EB1161091206EB2E
:100600004101C8B200F076F900F0D8F805461DB1F6
:1006100000F0CEF90120E0E72746E11704EB116175
:100620000912A4EB0121C8B200F064F900F0C6F889
:1006300005461DB100F0BCF90220CEE700F092F9AA
:1006400046F0010000F056F900F0B8F805461DB17B
:1006500000F0AEF90220C0E700F0DCF889F80000F5
:10066000012000F00DF900F0A3F92846B5E72DE9C7
:10067000F04781468A4614461D46089E00270BE037
:10068000337822465146484600F00BF88046601CFD
:1006900084B2761C781CC7B2AF42F1DB4046BDE89D
:1006A000F0872DE9F04780460E461446994600F043
:1006B00059F9B8F5006F16DB304600F01BF900F071
:1006C0007DF8054625B100F073F90120BDE8F087FB
:1006D000201200F00FF900F071F80546ADB100F0FE
:1006E00067F90220F2E72746E11704EB11610912CE
:1006F00006EB4101C8B200F0FDF800F05FF80546D6
:100700001DB100F055F90120E0E72746E11704EBA1
:1007100011610912A4EB0121C8B200F0EBF800F05E
:100720004DF805461DB100F043F90220CEE74846DA
:1007300000F0E0F800F042F805461DB100F038F98D
:100740000220C3E700F034F9062000F0D5F90020BC
:10075000BCE700001748006840F002001549086037
:100760001548006820F470201349086008460068A6
:1007700040F4A0200860081D006820F48070091D66
:1007800008600846006840F400700860081D0068B2
:1007900020F47020091D08600846006840F42020FD
:1007A000086005481430006840F440700249143174
:1007B00008607047303802400004024010B5144809
:1007C000006820F48070124908600846006840F410
:1007D00000700860052000F0B2F90D48006840F490
:1007E00080700B490860081F006800F4007030B189
:1007F0000846006820F480700860012010BD04489D
:10080000006820F48070024908600020F6E70000CC
:100810001404024070B500241848006820F4807069
:10082000164908600846006840F40070086000251A
:1008300019E01248006820F48070104908606006D2
:10084000040E052000F07BF90C48006840F480702D
:100850000A490860081F006800F4007008B144F0FD
:100860000104681CC5B2082DE3DB0448006820F4CD
:10087000807002490860204670BD000014040240E8
:1008800010B504461A48006820F4807018490860C2
:10089000052000F054F9012C0FD11548006840F4F0
:1008A000007013490860012000F049F91048006801
:1008B00040F480700E4908600FE074B90C4800687D
:1008C00020F400700A490860012000F038F9084857
:1008D000006840F4807006490860052000F02FF998
:1008E0000348006820F480700149086010BD0000D2
:1008F0001404024070B50446002528E0184800683A
:1009000020F4807016490860052000F018F904F002
:10091000800030B11248006840F40070104908604F
:1009200005E00F48006820F400700D4908600120C0
:1009300000F005F90A48006840F480700849086032
:10094000052000F0FCF86006040E681CC5B2082DF6
:10095000D4DB0348006820F480700149086070BD52
:100960001404024010B51148006820F480700F494B
:1009700008600846006840F4007008600846006897
:1009800040F480700860052000F0D9F8074800683E
:1009900020F4007005490860052000F0D0F80348F5
:1009A000006820F480700149086010BD1404024002
:1009B00010B50E48006820F480700C4908600846A5
:1009C000006820F4007008600846006840F48070F9
:1009D0000860052000F0B3F80448006840F4007097
:1009E00002490860052000F0AAF810BD1404024076
:1009F00000204FF0E02108610846006920F0040063
:100A0000086170472849096841F00101264A1160D0
:100A10002649096821F47011244A116011460968B9
:100A200041F4201111601146496821F400715160B0
:100A30001146896821F4402191601146896841F48A
:100A4000002191601146C96821F44011D16011461E
:100A5000496A21F47F6215494A62496A41F4EE62AB
:100A600012494A6210491431096841F010010E4AD6
:100A7000143211600E49C96821F410410C4AD1604A
:100A80001146C96841F00C01D1601146096921F491
:100A9000405111610749B1FBF0F191601146C968FD
:100AA00041F40051D16070473038024000000240EC
:100AB0000010014000BD010500BF7047FF214FF04D
:100AC000E022916145F208214143516111460969D3
:100AD00041F00101116100BF4FF0E021096901F40B
:100AE00080310029F8D04FF0E021096921F001019F
:100AF0004FF0E0221161704730B50346002540F207
:100B00001E30834203DC1846FFF7D8FF16E004E0EE
:100B1000A3F21E3083B2681CC5B240F21E3083427D
:100B2000F6DA002405E040F21E30FFF7C7FF601C34
:100B3000C4B2AC42F7DB1846FFF7C0FF30BDFF215F
:100B40004FF0E0229161C0EBC00101EB4101516126
:100B50001146096941F00101116100BF4FF0E02128
:100B6000096901F480310029F8D04FF0E0210969CA
:100B700021F001014FF0E0221161704700BF054AEA
:100B8000126802F04002002AF9D0C2B2014B5A604A
:100B900070470000001001408EB018A207CA0BABCE
:100BA00007C30723022208214FF4A87000F00AF9B6
:100BB000FFF71EFF4FF4E130FFF724FFFFF7DAFCE9
:100BC0000BA80A230022A0210090FF20FFF74FFD71
:100BD000044601A80A230022A0210090FF20FFF76D
:100BE000CDFC054601A908A0FFF74AFB2A4621468D
:100BF00007A0FFF745FB00BFFEE70000696F706AC2
:100C00006B6C626E6D00000025730D0A0000000021
:100C1000657272313D256420202020657272323D5C
:100C200025640D0A00000000F0B504460D460021C1
:100C3000002000265C4F3F6847F48037DFF868C12A
:100C4000CCF8007000E0491C574F3F6807F40037AC
:100C50001FB947F6FF77B942F5D347F6FF77B94298
:100C600001D101209EE0504F40373F6847F0805748
:100C7000DFF834C10CF1400CCCF800704B4F3F68EA
:100C800047F44047DFF824C1CCF80070464F3F1DC1
:100C90003F6805F03F0C47EA0C07DFF80CC10CF188
:100CA000040CCCF8007067463F6847EA8417CCF81C
:100CB000007067463F684FF0010CCCEB520C47EADE
:100CC0000C47DFF8E4C00CF1040CCCF80070674668
:100CD0003F6847EA0367CCF8007067463F6847F40F
:100CE0008007CCF800700CF104073F680CF1040C8D
:100CF000CCF8007067463F6847F4A057CCF8007006
:100D000067463F6847F40047CCF80070264F3F68BD
:100D100047F08077DFF890C0CCF80070002105E044
:100D2000491CB1F5001F01D3022005E01E4F3F68AA
:100D300007F00077002FF3D000BF1D4F3F6847F446
:100D40008077DFF86CC0CCF8007067463F6847F4E6
:100D50000077CCF8007067463F6847F48067CCF8AE
:100D6000007067463F6847F00507CCF800700E4FEB
:100D700008373F6847F00207DFF82CC00CF1080C79
:100D8000CCF8007000210AE0074F08373F68C7F32E
:100D90008106491CB1F5001F01D3042001E0032E98
:100DA000F2D100BFF0BD00000038024000700040EA
:100DB000003C02404A0A52020243014B1A6070474B
:100DC00008ED00E0F0B504460D4616461F4601202A
:100DD0000B49086000200A4908310860091F0860B3
:100DE00007490C3108603B46324629462046FFF74A
:100DF0001BFF00214FF00060FFF7DCFFF0BD00009B
:100E0000003802404FF04070E1EE100A70470000D9
:100E1000300E00080000002004000000C40100089B
:100E2000340E00080400002064040000E001000803
:040E300000000000BE
:040000050800018965
:00000001FF
