:020000040800F2
:1000000068040020290200083702000839020008AD
:100010003B0200083D0200083F020008000000000B
:100020000000000000000000000000004102000885
:1000300043020008000000004502000847020008D3
:10004000510300084902000849020008490200085B
:100050004902000849020008490200084902000854
:100060004902000849020008490200084902000844
:100070004902000849020008490200084902000834
:100080004902000849020008490200084902000824
:100090004902000849020008490200084902000814
:1000A0004902000849020008490200084902000804
:1000B00049020008490200084902000849020008F4
:1000C00049020008490200084902000849020008E4
:1000D00049020008490200084902000849020008D4
:1000E00049020008490200084902000849020008C4
:1000F00049020008490200084902000849020008B4
:1001000049020008490200084902000849020008A3
:100110004902000849020008490200084902000893
:100120004902000849020008490200084902000883
:100130004902000849020008490200084902000873
:100140004902000849020008490200084902000863
:100150004902000849020008490200084902000853
:100160004902000849020008490200084902000843
:100170004902000849020008490200080000000086
:10018000490200084902000800F002F800F03CF8BB
:100190000AA090E8000C82448344AAF10107DA45E2
:1001A00001D100F031F8AFF2090EBAE80F0013F0F8
:1001B000010F18BFFB1A43F001031847DC050000CC
:1001C000FC050000103A24BF78C878C1FAD852075D
:1001D00024BF30C830C144BF04680C6070470000C1
:1001E0000023002400250026103A28BF78C1FBD840
:1001F000520728BF30C148BF0B6070471FB500F0E1
:10020000C5FA1FBD10B510BD00F035F81146FFF757
:10021000F5FF00F097F900F053F803B4FFF7F2FF91
:1002200003BC00F04BF900000B48016841F4700179
:1002300001600A480047FEE7FEE7FEE7FEE7FEE74B
:10024000FEE7FEE7FEE7FEE7FEE70000044805499B
:10025000034A054B7047000088ED00E08901000863
:100260006800002068040020680000207047704784
:10027000704770477047754600F02CF8AE46050091
:100280006946534620F00700854618B020B5FFF7B1
:10029000DDFFBDE820404FF000064FF000074FF0B3
:1002A00000084FF0000B21F00701AC46ACE8C00994
:1002B000ACE8C009ACE8C009ACE8C0098D4670479D
:1002C00010B50446AFF300802046BDE81040FFF7AC
:1002D000A4BF0000004870470400002015480068D3
:1002E00040F02000134908601348006820F47010A3
:1002F000114908600846006840F4A0100860081D15
:10030000006820F4C060091D0860081D006820F422
:100310007010091D08600846006840F4201008604D
:1003200005481430006840F4C06003491431086087
:1003300070470000303802400014024000204FF0A7
:10034000E02108610846006920F004000861704758
:1003500000B50948006800F0010060B100200649BE
:1003600008600648007800F0A1F80548006880F4AD
:1003700080600349086000BD082C00400000002098
:10038000141402402DE9F04703460C461546424836
:10039000006840F400604049086040480078184018
:1003A0003E4908703E48006840EAC5103C49086074
:1003B000084600684FF680710840394908600846D1
:1003C000006820430860081F006834490978084322
:1003D0003349091F08600846006840F08000086043
:1003E0000520012637460146C1F10709B9F1040F7E
:1003F00002D94FF0040901E0C1F10709C84601F133
:100400000409B9F1070F02D24FF0000901E0A1F190
:100410000309CC464FF0010909FA08F9A9F10109CD
:1004200009EA060909FA0CF94FF0010A0AFA0CFA6E
:10043000AAF1010A0AEA070A49EA0A0200BF0021F2
:100440001046002904DB0607370E164E775408E0E5
:1004500006074FEA166C144E01F00F073F1F06F80F
:1004600007C000BF0020002809DB00F01F060121A3
:10047000B1404609B60006F1E026C6F8001100BFFB
:1004800000200749091D0860081F006840F400703B
:10049000091F0860BDE8F0874038024000000020D6
:1004A000042C004000E400E018ED00E000F07F01C3
:1004B000014A116070470000002C004000BF7047E7
:1004C000FF214FF0E022916145F208214143516143
:1004D0001146096941F00101116100BF4FF0E021AF
:1004E000096901F480310029F8D04FF0E021096951
:1004F00021F001014FF0E0221161704730B5034651
:10050000002540F21E30834203DC1846FFF7D8FF77
:1005100016E004E0A3F21E3083B2681CC5B240F2BC
:100520001E308342F6DA002405E040F21E30FFF769
:10053000C7FF601CC4B2AC42F7DB1846FFF7C0FF30
:1005400030BD00000723022208214FF4A87000F0FC
:10055000FDF805200246134B19684FF6FF031940BA
:10056000114B0B4343EA02210E4B196000BFFFF70A
:10057000E5FEFFF7B3FE0D48006820F400700B495C
:1005800008604FF49670FFF7B9FF03225F217F20C8
:10059000FFF7F8FE05E00548006840F400700349E5
:1005A0000860F8E70CED00E00000FA0514140240C2
:1005B000F0B504460D460021002000265C4F3F6840
:1005C00047F48037DFF868C1CCF8007000E0491CC0
:1005D000574F3F6807F400371FB947F6FF77B94216
:1005E000F5D347F6FF77B94201D101209EE0504F85
:1005F00040373F6847F08057DFF834C10CF1400CBA
:10060000CCF800704B4F3F6847F44047DFF824C1F7
:10061000CCF80070464F3F1D3F6805F03F0C47EA9D
:100620000C07DFF80CC10CF1040CCCF80070674625
:100630003F6847EA8417CCF8007067463F684FF080
:10064000010CCCEB520C47EA0C47DFF8E4C00CF18C
:10065000040CCCF8007067463F6847EA0367CCF8A3
:10066000007067463F6847F48007CCF800700CF1D3
:1006700004073F680CF1040CCCF8007067463F6833
:1006800047F4A057CCF8007067463F6847F400472E
:10069000CCF80070264F3F6847F08077DFF890C0B5
:1006A000CCF80070002105E0491CB1F5001F01D312
:1006B000022005E01E4F3F6807F00077002FF3D0BF
:1006C00000BF1D4F3F6847F48077DFF86CC0CCF85F
:1006D000007067463F6847F40077CCF800706746C3
:1006E0003F6847F48067CCF8007067463F6847F082
:1006F0000507CCF800700E4F08373F6847F0020737
:10070000DFF82CC00CF1080CCCF8007000210AE0D6
:10071000074F08373F68C7F38106491CB1F5001F32
:1007200001D3042001E0032EF2D100BFF0BD000090
:100730000038024000700040003C02404A0A520269
:100740000243014B1A60704708ED00E0F0B5044623
:100750000D4616461F4601200B49086000200A4935
:1007600008310860091F086007490C3108603B46E2
:10077000324629462046FFF71BFF00214FF000605C
:10078000FFF7DCFFF0BD0000003802404FF0407082
:10079000E1EE100A70470000B807000800000020D2
:1007A00004000000C4010008BC0700080400002089
:0C07B00064040000E00100087F0000006D
:040000050800018965
:00000001FF
