:020000040800F2
:1000000068060020D5010008D9010008DB010008BE
:10001000DD010008DF010008E10100080000000028
:10002000000000000000000000000000E3010008E4
:10003000E501000800000000E70100081D090008B4
:10004000EB010008EB010008EB010008EB010008E0
:10005000EB010008EB010008EB010008EB010008D0
:10006000EB010008EB010008E5060008EB010008C1
:10007000EB010008EB010008EB010008EB010008B0
:10008000EB010008EB010008EB010008EB010008A0
:10009000EB010008EB010008EB010008EB01000890
:1000A000EB010008EB010008EB010008EB01000880
:1000B000EB010008EB01000859090008EB010008FA
:1000C000EB010008EB010008EB010008EB01000860
:1000D000EB010008A90A0008A50B0008EB010008C5
:1000E000EB010008EB010008EB010008EB01000840
:1000F000EB010008EB010008EB0100088104000897
:10010000EB010008EB010008EB010008EB0100081F
:10011000EB010008EB010008150A0008410A00087D
:10012000EB010008EB010008EB010008EB010008FF
:1001300000F002F800F03FF80AA090E8000C8244BA
:100140008344AAF10107DA4501D100F034F8AFF297
:10015000090EBAE80F0013F0010F18BFFB1A43F0A5
:1001600001031847F40E0000140F0000103A24BFDA
:1001700078C878C1FAD8520724BF30C830C144BF0C
:1001800004680C607047000000230024002500264E
:10019000103A28BF78C1FBD8520728BF30C148BFEA
:1001A0000B607047642900F07380002070471FB512
:1001B0001FBD10B510BD00F033F91146FFF7F7FF72
:1001C00000F04CFD00F051F903B4FFF7F2FF03BC5F
:1001D00000F0F4FC08480047FEE7FEE7FEE7FEE714
:1001E000FEE7FEE7FEE7FEE7FEE7FEE70348044919
:1001F000044A054B704700003101000868000020E8
:100200006806002068020020680200207047000095
:100210000FB4044910B503AA029800F0D3F810BC3B
:100220005DF814FB000000202DE9F0410E46044665
:10023000002020622046E168884730B3252805D099
:10024000D4E901219047206A401CF2E7E16820468A
:1002500000278847050018D0A5F14100192802D8C9
:1002600020354FF400673246294620462760FFF7C5
:1002700099FF40B1012804D0F61D26F00706083684
:10028000D8E7361DD6E72846DAE7206ABDE8F081D0
:100290002DE9F0410646002410687529314616A55F
:1002A00010D0AFF30080002802DA404213A507E027
:1002B00031688A0701D512A502E0490704D511A5C6
:1002C000012401E0AFF3008000210A2206F1240797
:1002D00009E0B0FBF2FCB0FBF2F302FB1C00303093
:1002E00078541846491C0028F3D123462A46304644
:1002F000BDE8F04100F00CB8000000002D00000047
:100300002B000000200000007047704770477047C6
:100310002DE9F0470D4699469246044600F124081F
:100320000168880604D5E06921F01001216000E031
:100330000120A84201DD471B00E00027A1697A19CE
:1003400002EB0900081AA0612078C00602D42046FA
:10035000AFF30080002608E0D4E901211AF8060076
:100360009047206A401C761C20624E45F4DB2078C2
:10037000C0060AD52046AFF3008006E0D4E901218B
:1003800030209047206A401C2062381EA7F10107E8
:10039000F4DC07E0D4E9012118F805009047206A51
:1003A000401C2062281EA5F10105F3DC2046AFF3B6
:1003B00000802078000602D50220BDE8F0870120E9
:1003C000FBE70000074B70B50D467B4400F011F8C9
:1003D0000446284600F020F810B14FF0FF3070BD01
:1003E000204670BD7308000001694A1C026108784C
:1003F000704700B58FB0CDE9013100210591054965
:100400007944CDE9031011466846FFF70DFF0FB0A0
:1004100000BD0000E5FFFFFF007B00F0800070479B
:10042000754600F029F8AE4605006946534620F0AF
:100430000700854618B020B5FFF7D8FEBDE820407C
:100440004FF000064FF000074FF000084FF0000B90
:1004500021F00701AC46ACE8C009ACE8C009ACE843
:10046000C009ACE8C0098D4670470446AFF3008070
:100470002046FFF7A9FE0000004870470800002052
:1004800010B50B48006800F0020038B108484C3045
:10049000006884B2214607A0FFF7BAFE044808307E
:1004A000006840F4800002490831086010BD000077
:1004B000003C0140646174613A25640D0A0000004B
:1004C0004148C06940F000703F49C8613F4800683A
:1004D00040F040003D4908600846006840F02000B8
:1004E00008600846006840F00100086000BF374817
:1004F000001D006800F001000028F8D000203349FA
:100500001C3108600846006840F00040086008465A
:10051000006840F0804008600846006840F00070C5
:1005200008600846006840F4E0000860084600687B
:1005300040F4302008600846006840F0030008607E
:100540002348006840F0010021490860081D006848
:1005500040F00100091D08601D480C30006840F0A3
:1005600001001B490C31086019481430006820F064
:100570000100174914310860002015494031086016
:100580000846006840F0766008600021104844305A
:100590000160006840F078610D48443001600C480B
:1005A0001C30006840F0010009491C31086008480F
:1005B000006820F00100064908600448006820F047
:1005C00001000249086070470010024000640040CA
:1005D0000066004010B50CE009480068C4B2094844
:1005E000006840F0200007490860214606A0FFF798
:1005F0000FFE0448006800F003000028ECD110BD95
:10060000B86500400C640040BDD3CAD5B5BDB5C4C3
:10061000C4DAC8DDCAC73A25640D0A000146FF20C6
:1006200013E02E4A126802F080620AB100200CE04A
:100630002A4A126802F000620AB1012005E0274A46
:10064000126802F0805202B10220FF28E9D0002394
:10065000234A02EB00121360214A02EB00121268D7
:1006600042F076631E4A02EB001213601C4A02EB52
:100670000012126822F00403194A02EB0012136000
:10068000174A02EB0012126822F00203144A02EB2E
:10069000001213600023124A02EB00125360104A4A
:1006A00002EB0012526842F001030D4A02EB001205
:1006B000536000230A4A02EB00129360084A02EBDF
:1006C00000129160064A02EB0012126842F0010328
:1006D000034A02EB001213607047000008640040F8
:1006E0008065004010B50D48006800F0100098B11A
:1006F0000A2000F084FA0A48006800F0100058B997
:100700000648006840F01000044908600548006889
:1007100080F020000349086010BD0000140401406F
:10072000081801400C0C01401648806940F0480050
:10073000144988611448006820F470001249086068
:100740000846006840F4401008601048006820F433
:1007500070000E4908600846006840F440100860C8
:1007600009480C30006840F0200007490C3108604F
:1007700006480C30006840F0200004490C31086045
:100780007047000000100240000C014000180140BA
:1007900000B5002015490861C86014204861002098
:1007A0008861C8610846006840F00100086008469A
:1007B00040680F4908400D494860084600680D49E7
:1007C00008400A4908600846006820F48020086054
:1007D0000846406820F4FE00486000208860002140
:1007E0004FF0006000F008F800BD0000001002406B
:1007F0000000FFF8FFFFF6FE024A0A400243024BE8
:100800001A60704780FFFF1F08ED00E000F01F0234
:10081000012191404209920002F1E022C2F8001148
:100820007047F0B503460C4603F00701C1F107001D
:10083000042801D9042001E0C1F107000646081D83
:10084000072801D2002000E0C81E05460120B04064
:10085000401E2040A8400127AF407F1E174038436C
:10086000F0BD000010B5002807DA0A07140E054A8B
:1008700000F00F031B1FD45403E00A07130E024AB3
:10088000135410BD18ED00E000E400E030B504465C
:100890000025FFF77DFF1F48006840F480301D49A8
:1008A000086000BF1B480068400C0028FAD04FF4D5
:1008B000806018494860A01EC4B20846406840EAFB
:1008C000844048600846406840F4803048601248E0
:1008D000006840F03200104908600E48006840F09F
:1008E00080700C49086000BF0A480068400E00286C
:1008F000FAD00848406840F002000649486005E028
:1009000004484068C0F3870505F00305022DF7D1C0
:1009100030BD000000100240002002404FF0E020F7
:10092000006900F4803048B1FF204FF0E021886179
:100930000348006880F0200001490860704700000B
:100940000C1801404FF0E020006920F004004FF047
:10095000E0210861704700002DE9F0472048008839
:1009600000F0040050B11E48008820F004001C492B
:1009700008801B48283000881A49088018480088D9
:1009800000F40070002828D01548008820F00200EC
:10099000134908800846008820F400700880104839
:1009A00024300488204600F077FA80460D480088FD
:1009B00000F072FA8146414600F08CF907460A4978
:1009C00000F07EFA064600F047FA85B22B4605484D
:1009D0000288214605A0FFF71BFCBDE8F087000058
:1009E00010080040060000200000C842D6DCC6DA2D
:1009F000A3BA2564202020B8DFB5E7C6BDA3BA2579
:100A000064202020D5BCBFD5B1C8A3BA2564252554
:100A10000D0A00000848008A00F0010058B106489D
:100A2000008A20F00100044908820448006880F030
:100A30002000024908607047001000400C18014077
:100A40001648008800F0010000B31448008820F028
:100A50000100124908801248007858B911480088EE
:100A600018B901200E49087004E00E4800881438B7
:100A70000C4908800A48007801280DD109480088EF
:100A8000B0F57A7F03D100200549087004E00548DD
:100A9000008814300349088070470000101400409B
:100AA00004000020380400400948008800F02000BD
:100AB00010B10748001D00880548008800F01000AC
:100AC00020B1034800880248001D008870470000DC
:100AD0000038014070B504462D48806940F004009C
:100AE0002B4988612B48006820F47F602949086001
:100AF0000846006840F4966008602748406820F087
:100B00000400254948602248C06840F480402049DC
:100B1000C8600846C06820F48040C8600846806904
:100B200040F4804088611D48008820F480501B49B3
:100B300008800846008840F00C00088008460088BD
:100B400040F0200008800846008840F0100008802F
:100B5000081D008820F44050091D08801048B0FB93
:100B6000F4F00E49091F0880022201210520FFF739
:100B700058FEC5B229462520FFF774FE2520FFF751
:100B800045FE0648008840F400500449088070BDC6
:100B90000010024004080140000001400C380140F0
:100BA00000A24A040448008800F0200010B1024866
:100BB000001D00887047000000440040014600BF4F
:100BC0007047FF214FF0E022916142F2283141430A
:100BD00051611146096941F00101116100BF4FF0F7
:100BE000E021096901F480310029F8D04FF0E021BB
:100BF000096921F001014FF0E0221161704730B521
:100C000003460025B3F5E96F03DC1846FFF7D9FF6B
:100C100015E004E0A3F5E96083B2681CC5B2B3F542
:100C2000E96FF7DA002405E04FF4E960FFF7C9FF48
:100C3000601CC4B2AC42F7DB1846FFF7C2FF30BD00
:100C400000BF054A128802F04002002AF9D0C2B261
:100C5000014B1B1D1A8070470038014006240920F3
:100C6000FFF714FE05200246174B19684FF6FF03E5
:100C70001940164B0B4343EA0221134B196000BF86
:100C8000FFF760FE4FF4E130FFF724FFFFF74CFD64
:100C9000FFF716FC0E48006820F020000C490860A1
:100CA00011E0611CC8B2FFF7B9FCA11CC8B2FFF784
:100CB000B5FCE11CC8B2FFF7B1FC4FF4FA70FFF7C6
:100CC0009EFFFFF787FCECE70CED00E00000FA0563
:100CD0000C0C01404FF47F0C1CEAD0121EBF1CEA22
:100CE000D11392EA0C0F93EA0C0F00F0858090EA82
:100CF000010F48BF42F4807240F4000C41F4000040
:100D00002CF07F4120F07F4000B58142A2EB03022E
:100D10000FF2081CACEB504EC0F100009EF800E052
:100D20004FEA4E0E00FB0EFC38BF49004FEA2C1C68
:100D300002F5FA020CFB0EF34FEACE1E4FEA112C1D
:100D40004FEAC1210EEB635E42EB22420EFB0CFC2C
:100D50004FEA1C5300FB03114FEA112C4FEA0131FB
:100D60000EFB0CFC4FEADC4C00FB0C11C14228BF0F
:100D700009184CEB03335DF804EB10EB410143EB36
:100D8000C250B2F57C0F38BF704729D512F0F00F72
:100D90001CBF00F1C04000F000407047008182831A
:100DA0008485868788898B8C8D8E8F91929395967A
:100DB00097999A9C9D9FA0A2A3A5A7A8AAACAEB004
:100DC000B2B3B5B7B9BCBEC0C2C5C7C9CCCED1D409
:100DD000D7D9DCDFE2E6E9ECF0F3F7FAFE00000039
:100DE0004FEA400C0CF1807CBCF17E4F28BF70476D
:100DF000B0F1C04000F02BB990EA010F0CEAD1131A
:100E000048BF42F48072624538BF634507D213F48D
:100E10007F0F16D080EA010000F00040704710B547
:100E200000F0CFF8097EFC3E00F005B880EA010032
:100E300000F00040704780EA010000F0004000F040
:100E400006B912F47F0F04BF0248704780EA010020
:100E500000F0FDB80000C07FC10DD1F19E0206DB9D
:100E60004FEA002343F0004323FA02F070470042A8
:100E700007D54FEA4001B1F1FE4F02D24FF000001A
:100E8000704710B500F09DF849922480002070470B
:100E90006FEA200070470000B0FA80F310FA03F206
:100EA000C3F19D030AD0D90501EB1220530638BFC8
:100EB000704700F1010008BF20F0010070470000FA
:100EC0004FF47F0C1CEAD0121EBF1CEAD11392EA29
:100ED0000C0F93EA0C0F00F0478090EA010F48BF17
:100EE00042F480724FF0004C4CEA00204CEA0121A1
:100EF00002EB0302A0FB0113A2F50002002918BFB8
:100F000043F001035B0028BF4FEA330342EB224268
:100F10005FEA132C4CEBC2502EBFBCEB436FB2F513
:100F20007C0F70474FEA036CBCF1004F08BF20F004
:100F30000100B2F57C0F38BF70470BD582F0FF027D
:100F400012F5803FC8BF704700F1C040D8BF00F025
:100F50000040704700F5000C5FEA4C0C48BF70473A
:100F6000B0F1C04000F073B890EA010F0CEAD11361
:100F700048BF42F48072624538BF634504D280EABC
:100F8000010000F00040704710B500F01AF800BFF3
:100F90008900013E00F007B800F009B85FEA410C93
:100FA0005FEA1C6C08D080EA010000F050B85FEAEC
:100FB000400C5FEA1C6CF6D14FF00040A0F58000B9
:100FC00070470EF1020E2EF0030E5EF8044B244221
:100FD00004D44FEA4102B2F17F4F11D84FEA4003E7
:100FE000B3F17F4F0CD80ED14FEAD07CB2F17F4FD6
:100FF0000CEB4C0C0CF1020C08BF4CEBD17C04E068
:101000004FF0080C01E04FEAD17C0CEB4C0324FAC2
:1010100003F404F00704B4F1040C06D20EEB840CC4
:10102000BDE810404CF0010C6047DFE80CF0070809
:1010300002024FF00040A0F5800010BD08464200BB
:1010400018BFD2F1807288BF00F0004010BDFF21B0
:1010500041EAD050C0057047781000080000002019
:10106000080000006C010008801000080800002043
:101070006006000088010008000000000000000079
:0400000508000131BD
:00000001FF
