:020000040800F2
:1000000078040020CD010008D1010008D3010008C8
:10001000D5010008D7010008D90100080000000040
:10002000000000000000000000000000DB010008EC
:10003000DD01000800000000DF010008E101000808
:10004000E3010008E3010008E3010008E301000800
:10005000E3010008E3010008E3010008E3010008F0
:10006000E3010008E3010008E3010008E3010008E0
:10007000E3010008E3010008E3010008E3010008D0
:10008000E3010008E3010008E3010008E3010008C0
:10009000E3010008E3010008E3010008E3010008B0
:1000A000E3010008E3010008E3010008E3010008A0
:1000B000E3010008E3010008E3010008E301000890
:1000C000E3010008E3010008E3010008E301000880
:1000D000E3010008E3010008E3010008E301000870
:1000E000E3010008E3010008E3010008E301000860
:1000F000E3010008E3010008E3010008E301000850
:10010000E3010008E3010008E3010008E30100083F
:10011000E3010008E3010008E3010008E30100082F
:10012000E3010008E3010008E3010008E30100081F
:1001300000F002F800F03AF80AA090E8000C8244BF
:100140008344AAF10107DA4501D100F02FF8AFF29C
:10015000090EBAE80F0013F0010F18BFFB1A43F0A5
:1001600001031847DC120000FC120000103A24BF03
:1001700078C878C1FAD8520724BF30C830C144BF0C
:1001800004680C607047000000230024002500264E
:10019000103A28BF78C1FBD8520728BF30C148BFEA
:1001A0000B6070471FB51FBD10B510BD00F068F89B
:1001B0001146FFF7F7FF01F09BF800F09AF803B43F
:1001C000FFF7F2FF03BC01F043F8000008480047C6
:1001D000FEE7FEE7FEE7FEE7FEE7FEE7FEE7FEE7F7
:1001E000FEE7FEE703480449024A044B704700005B
:1001F00031010008780000207804002078000020F9
:10020000704700000FB4044910B503AA029800F02B
:1002100009F810BC5DF814FB00000020704770471F
:1002200070477047074B70B50D467B4400F011F8DE
:100230000446284600F020F810B14FF0FF3070BDA2
:10024000204670BDA710000001694A1C02610878B1
:10025000704700B58FB0CDE9013100210591054906
:100260007944CDE903101146684600F02EF80FB02E
:1002700000BD0000E5FFFFFF007B00F0800070473D
:10028000754600F03FF8AE4605006946534620F03B
:100290000700854618B020B5FFF7A4FFBDE8204051
:1002A0004FF000064FF000074FF000084FF0000B32
:1002B00021F00701AC46ACE8C009ACE8C009ACE8E5
:1002C000C009ACE8C0098D4670472DE9F0410646EB
:1002D0000024D6E90170F5688046304603E04146C7
:1002E000B847641C3046A8470028F8D12046BDE82E
:1002F000F08110B50446AFF300802046BDE8104001
:10030000FFF75DBF004870471400002021480068D7
:1003100020F0FF001F490860081D00681E490840C2
:100320001C49091D0860081F006840F08800091F6B
:100330000860081D0068194908431649091D08602E
:1003400014480C3000684CF20371084311490C3119
:1003500008601348006820F0704011490860081DCB
:1003600000680020091D0860081F006840F0004078
:10037000091F0860081D006840F08830091D0860EA
:1003800007480C3000684FF68071084304490C316F
:10039000086070470014014000F0FF0088080088E2
:1003A0000018014030B505460A48008809494988C7
:1003B00000FB01F40021084600F0FAF9054908891C
:1003C00000F05EFC03E0284600F084FD641E002C73
:1003D000F9D130BD0400002010B5044644B9002016
:1003E0000D498871F02008804FF4A070488007E024
:1003F0000120094988714FF4A0700880F0204880DE
:100400002C20054908812A2048812B208881002042
:1004100000F034F910BD00000400002010B500F019
:10042000E1F90A2000F016FF42F27D4091498880F0
:10043000CF2000F025FC002000F04CFDC12000F092
:1004400049FD302000F046FDED2000F019FC64204D
:1004500000F040FD032000F03DFD122000F03AFDC9
:10046000812000F037FDE82000F00AFC852000F034
:1004700031FD102000F02EFD7A2000F02BFDCB2066
:1004800000F0FEFB392000F025FD2C2000F022FDBD
:10049000002000F01FFD342000F01CFD022000F0C1
:1004A00019FDF72000F0ECFB202000F013FDEA20FE
:1004B00000F0E6FB002000F00DFD002000F00AFD3A
:1004C000C02000F0DDFB1B2000F004FDC12000F087
:1004D000D7FB012000F0FEFCC52000F0D1FB30204E
:1004E00000F0F8FC302000F0F5FCC72000F0C8FB5D
:1004F000B72000F0EFFC362000F0C2FB482000F0EF
:10050000E9FC3A2000F0BCFB552000F0E3FCB120F0
:1005100000F0B6FB002000F0DDFC1A2000F0DAFC51
:10052000B62000F0ADFB0A2000F0D4FCA22000F0C1
:10053000D1FCF22000F0A4FB002000F0CBFC262030
:1005400000F09EFB012000F0C5FCE02000F098FBCD
:100550000F2000F0BFFC2A2000F0BCFC282000F097
:10056000B9FC082000F0B6FC0E2000F0B3FC082017
:1005700000F0B0FC542000F0ADFCA92000F0AAFC73
:10058000432000F0A7FC0A2000F0A4FC0F2000F09C
:10059000A1FC002000F09EFC002000F09BFC00204D
:1005A00000F098FC002000F095FCE12000F068FBD2
:1005B000002000F08FFC152000F08CFC172000F0CC
:1005C00089FC072000F086FC112000F083FC062047
:1005D00000F080FC2B2000F07DFC562000F07AFC1F
:1005E0003C2000F077FC052000F074FC102000F0A7
:1005F00071FC0F2000F06EFC3F2000F06BFC3F20F0
:1006000000F068FC0F2000F065FC2B2000F038FBA8
:10061000002000F05FFC002000F05CFC012000F0F6
:1006200059FC3F2000F056FC2A2000F029FB002056
:1006300000F050FC002000F04DFC002000F04AFCCF
:10064000EF2000F047FC112000F01AFB782000F0AA
:100650001FFE292000F014FB0020FFF7BDFE064816
:10066000006840F00100044908604FF6FF70FFF792
:1006700099FE10BD040000200C0C014070B504462A
:100680000023002649488079012818D1082C15D26A
:10069000DFE804F00406080A0C0E101206240DE030
:1006A00007240BE0042409E0052407E0012405E009
:1006B000002403E0032401E0022400BF00BF082C53
:1006C0001CD2DFE804F00406090C0F12151800BF55
:1006D00014E043F0800311E043F040030EE043F0E8
:1006E000C0030BE043F0200308E043F0600305E0A3
:1006F00043F0A00302E043F0E00300BF00BF362652
:1007000043F00803304600F0BBFA184600F0E2FB65
:1007100003F0200068B125480088244949888842B0
:1007200014DA224805884088204908800846458018
:100730000CE01E4800881D494988884206DD1B4898
:100740000588408819490880084645801749488926
:1007500000F096FA002000F0BDFB002000F0BAFB8C
:1007600012490988491EC1F30F2000F0B3FB0F495D
:100770000978491EC8B200F0ADFB0C49888900F029
:100780007FFA002000F0A6FB002000F0A3FB074941
:100790004988491EC1F30F2000F09CFB034989786A
:1007A000491EC8B200F096FB70BD00000400002096
:1007B00010B503460C460A49488900F061FA181240
:1007C00000F088FBD8B200F085FB0549888900F06D
:1007D00057FA201200F07EFBE0B200F07BFB10BD68
:1007E000040000204448806940F0080042498861C4
:1007F0004248006820F00F00404908600846006841
:1008000040F0030008603C48806940F020003A490D
:1008100088613B48006800F0FF2039490860081DE6
:100820000068384908403649091D0860081F0068FB
:1008300040F03310091F0860081D00683249084362
:100840002F49091D08602C48806940F040002A4962
:1008500088612E48006820F070402C490860081D0F
:1008600000680020091D0860081F006840F0405023
:10087000091F0860081D006840F03330091D08603A
:100880001D48806940F480701B49886120480068D9
:1008900020F00F001E4908600846406820F47020D0
:1008A00048600846006840F0030008600846406859
:1008B00040F4403048600846C06840F48050C8604A
:1008C0000F480C30006840F020000D490C310860E2
:1008D0000846006840F0100008600D48C06840F00D
:1008E00001000B49C86005480C30006820F0010089
:1008F00002490C310860704700100240000C0140B2
:100900000014014000F0FF003303003300180140E1
:100910000020014000B50022FFF7F8FC42480068C3
:1009200040F02000404908604048C06840F00100A5
:100930003E49C8600846C06820F48050C8603A4804
:10094000006820F0100038490860081F0068C0F3F4
:1009500080300243081F0068C0F3C03042EA400202
:10096000081F006800F0010042EA8002081F0068CA
:10097000C0F3400042EAC0022D480068C0F3C01036
:1009800042EA00122A480068C0F3002042EA4012FE
:1009900027480068C0F3402042EA801224480068DB
:1009A000C0F3802042EAC01221480068C0F3C02092
:1009B00042EA00221E480068C0F3003042EA4022AA
:1009C0001B480068C0F3403042EA802218480068A3
:1009D000C0F3803042EAC02215480068C0F3C0303E
:1009E00042EA0032081F0068C0F3002042EA4032A9
:1009F000081F0068C0F3402042EA8032081F0068E8
:100A0000C0F3802042EAC0320846006840F010007F
:100A100008600648C06840F480500449C86000F08F
:100A200083FB104600BD00000C1401400020014073
:100A30000818014010B50024D32000F021F9FFF779
:100A400069FF0446FFF766FF0446FFF763FF0446AD
:100A50004FF6FF7000EA0424FFF75CFF044349F2FD
:100A6000413084427DD0042000F00AF9FFF752FFA4
:100A70000446FFF74FFF0446FFF74CFF04464FF6CE
:100A8000FF7000EA0424FFF745FF044348F2525088
:100A9000844201D147F2897447F2897084426AD056
:100AA000D42000F0EDF8FFF735FF0446FFF732FFE2
:100AB0000446FFF72FFF04464FF6FF7000EA0424B8
:100AC000FFF728FF044345F21030844253D04FF41F
:100AD000704000F0D5F8552000F0FCF94FF201000D
:100AE00000F0CEF8AA2000F0F5F94FF2020000F075
:100AF000C7F8522000F0EEF94FF2030000F0C0F802
:100B0000082000F0E7F94FF2040000F0B9F80120E6
:100B100000F0E0F94FF4454000F0B2F8FFF7FAFEBC
:100B200004464FF6FF7000EA04244CF2015000F036
:100B3000A7F8FFF7EFFE0443052000F0A9FB45F2FC
:100B40001050844217D0A12000F09AF8FFF7E2FE7F
:100B50000446FFF7DFFE04464FF6FF7000EA042468
:100B600000E008E0FFF7D6FE044345F261708442DE
:100B700001D141F66314204645F21052A11A944265
:100B800022D00BDCA0F5C850A0F1630000281FD0D4
:100B9000A0F56450AD3800281ED111E0A1F5085031
:100BA000793828B1A0F5D850B838002814D103E01E
:100BB0000DA0FFF727FB13E010A0FFF723FB0FE0CA
:100BC00014A0FFF71FFB0BE018A0FFF71BFB07E0CB
:100BD0001CA0FFF717FB03E020A0FFF713FB00BFEB
:100BE00000BF204610BD00004C4344C6C1D0CDBA62
:100BF000C5A3BA5354373738390D0A004C4344C69D
:100C0000C1D0CDBAC5A3BA494C49393334310D0AE4
:100C1000000000004C4344C6C1D0CDBAC5A3BA4EB3
:100C20005433353331300D0A000000004C4344C6C4
:100C3000C1D0CDBAC5A3BA4E5433353531300D0AC3
:100C4000000000004C4344C6C1D0CDBAC5A3BA537E
:100C50005344313936330D0A00000000C3BBD3D0F2
:100C60004C4344C6C1BBF2CAB9D3C3C1CBCEB4D680
:100C7000AAD0CDBAC5B5C44C4344C6C10D0A0000C4
:100C80009149096841F010018F4A11608F49C96884
:100C900021F001018D4AD1601146C96821F48051CB
:100CA000D1608949096821F02001874A116000F06C
:100CB000010129B11146096841F48041116005E044
:100CC0008149096821F480417F4A116000F00201E6
:100CD00031B17D49096841F400417B4A116005E06A
:100CE0007949096821F40041774A116000F0040154
:100CF00031B17549096841F00101734A116005E09D
:100D00007149096821F001016F4A116000F0080182
:100D100031B16D49096841F002016B4A116005E08B
:100D20006949096821F00201674A116000F0100169
:100D300031B16749096841F08001654A116005E0F9
:100D40006349096821F08001614A116000F02001C7
:100D500031B15F49096841F480715D4A116005E075
:100D60005B49096821F48071594A116000F0400123
:100D700031B15749096841F40071554A116005E0E5
:100D80005349096821F40071514A116000F0800153
:100D900031B14F49096841F480614D4A116005E065
:100DA0004B49096821F48061494A116000F480715F
:100DB00031B14749096841F40061454A116005E0D5
:100DC0004349096821F40061414A116000F400714F
:100DD00031B13F49096841F480513D4A116005E055
:100DE0003B49096821F48051394A116000F480615F
:100DF00031B13749096841F40051354A116005E0C5
:100E00003349096821F40051314A116000F400614E
:100E100031B12F49096841F480412D4A116005E044
:100E20002B49096821F48041294A116000F480515E
:100E300031B12749096841F40041254A116005E0B4
:100E40002349096821F40041214A116000F400514E
:100E500031B11D49096841F480711B4A116005E0F8
:100E60001949096821F48071174A116000F4804122
:100E700031B11549096841F40071134A116005E068
:100E80001149096821F400710F4A116000F4004112
:100E900031B10D49096841F480610B4A116005E0E8
:100EA0000949096821F48061074A11600649096807
:100EB00041F02001044A11600449C96841F480519D
:100EC000024AD160704700000C140140002001402C
:100ED0000C1801409149096841F010018F4A1160D6
:100EE0008F49C96841F001018D4AD1601146C96836
:100EF00021F48051D1608949096821F02001874A95
:100F0000116000F0010129B11146096841F48041E6
:100F1000116005E08149096821F480417F4A116030
:100F200000F0020131B17D49096841F400417B4A7A
:100F3000116005E07949096821F40041774A1160A0
:100F400000F0040131B17549096841F00101734AAB
:100F5000116005E07149096821F001016F4A1160D3
:100F600000F0080131B16D49096841F002016B4A96
:100F7000116005E06949096821F00201674A1160C2
:100F800000F0100131B16749096841F08001654AFC
:100F9000116005E06349096821F08001614A116030
:100FA00000F0200131B15F49096841F480715D4A68
:100FB000116005E05B49096821F48071594A1160AC
:100FC00000F0400131B15749096841F40071554AB8
:100FD000116005E05349096821F40071514A11601C
:100FE00000F0800131B14F49096841F480614D4AF8
:100FF000116005E04B49096821F48061494A11609C
:1010000000F4807131B14749096841F40061454AF3
:10101000116005E04349096821F40061414A11600B
:1010200000F4007131B13F49096841F480513D4AF3
:10103000116005E03B49096821F48051394A11608B
:1010400000F4806131B13749096841F40051354AF3
:10105000116005E03349096821F40051314A1160FB
:1010600000F4006131B12F49096841F480412D4AF3
:10107000116005E02B49096821F48041294A11607B
:1010800000F4805131B12749096841F40041254AF3
:10109000116005E02349096821F40041214A1160EB
:1010A00000F4005131B11D49096841F480711B4AB7
:1010B000116005E01949096821F48071174A11602F
:1010C00000F4804131B11549096841F40071134AB7
:1010D000116005E01149096821F400710F4A11609F
:1010E00000F4004131B10D49096841F480610B4AB7
:1010F000116005E00949096821F48061074A11601F
:101100000649096841F02001044A11600449C96890
:1011100041F48051024AD160704700000C14014034
:10112000002001400C1801401848006820F0FF0022
:1011300016490860081D0068154908401349091D33
:101140000860081F006840F03300091F0860081D90
:101150000068104908430D49091D08600E480068E1
:1011600020F070400C490860081D00680020091D2F
:101170000860081F006840F04050091F0860081D03
:10118000006840F03330091D0860704700140140CA
:1011900000F0FF00330300330018014000204FF03F
:1011A000E02108610846006920F0040008617047EA
:1011B0002249896941F00401204A91612049096866
:1011C00021F47F611E4A11601146096841F496615D
:1011D00011601C49496821F004011A4A51601749FD
:1011E000C96841F48041154AD1601146C96821F4AB
:1011F0008041D1601146896941F480419161124971
:10120000096821F48051104A11601146096841F0C3
:101210000C011160111D096821F44051121D11606B
:101220000A49B1FBF0F1084A121F1160111D09684B
:1012300041F40051121D116070470000001002407F
:1012400004080140000001400C38014000A24A049B
:1012500000BF7047FF214FF0E022916142F2283138
:10126000414351611146096941F00101116100BF1B
:101270004FF0E021096901F480310029F8D04FF0E6
:10128000E021096921F001014FF0E022116170476E
:1012900030B503460025B3F5E96F03DC1846FFF7C8
:1012A000D9FF15E004E0A3F5E96083B2681C85B2BC
:1012B000B3F5E96FF7DA002405E04FF4E960FFF7D2
:1012C000C9FF601C84B2AC42F7DB1846FFF7C2FFCF
:1012D00030BD000000BF054A126802F04002002A3B
:1012E000F9D0C2B2014B1B1D1A6070470038014093
:1012F000092000F06DF8FFF751FF4FF4E130FFF7E0
:1013000057FFFFF78BF83220FFF7C2FFFFF792FB82
:1013100000BFFEE710B5024600210020264B1B68E7
:1013200043F48033244C23600AE000BF224B1B6847
:1013300003F400331BB1B1F5004F00D904E0491CA0
:101340004FF6F0739942F0D300BF4FF6F073994215
:1013500001D301202FE04FF48063174C6360921E8D
:1013600023465B6843EA8243636023465B6843F439
:10137000803363601023114C236023461B6843F0C5
:10138000020323600C4B1B6843F080730A4C2360FC
:1013900000BF094B1B685B0E002BFAD0064B5B6845
:1013A00043F00203044C636000BF034B5B68C3F36C
:1013B0008103022BF9D110BD001002400020024031
:1013C0004A0A52020243014B1A60704708ED00E0DE
:1013D00010B50446002017490861C8601420486110
:1013E00000208861C8610846006840F0010008607C
:1013F00008464068104908400E49486008460068A1
:101400000E4908400B4908600846006820F4802017
:1014100008600846406820F4FE0048604FF41F0052
:1014200088602046FFF776FF00214FF00060FFF74D
:10143000C7FF10BD001002400000FFF8FFFFF6FEDE
:101440006014000800000020040000006C01000887
:1014500064140008040000207404000088010008DF
:041460000000000088
:0400000508000131BD
:00000001FF
