:020000040800F2
:10000000600400200D0200081B0200081D02000809
:100010001F0200082102000823020008000000005F
:1000200000000000000000000000000025020008A1
:100030002702000800000000290200082B02000827
:100040002D0200082D0200082D0200082D020008D4
:100050002D0200082D0200082D0200082D020008C4
:100060002D0200082D0200082D0200082D020008B4
:100070002D0200082D0200082D0200082D020008A4
:100080002D0200082D0200082D0200082D02000894
:100090002D0200082D0200082D0200082D02000884
:1000A0002D0200082D0200082D0200082D02000874
:1000B0002D0200082D0200082D0200082D02000864
:1000C0002D0200082D0200082D0200082D02000854
:1000D0002D0200082D0200082D0200082D02000844
:1000E0002D0200082D0200082D0200082D02000834
:1000F0002D0200082D0200082D0200082D02000824
:100100002D0200082D0200082D0200082D02000813
:100110002D0200082D020008350300082D020008FA
:100120002D0200082D0200082D0200082D020008F3
:100130002D0200082D0200082D0200082D020008E3
:100140002D0200082D0200082D0200082D020008D3
:100150002D0200082D0200082D0200082D020008C3
:100160002D0200082D0200082D0200082D020008B3
:100170002D0200082D0200082D02000800000000DA
:100180002D0200082D02000800F002F800F02EF801
:100190000AA090E8000C82448344AAF10107DA45E2
:1001A00001D100F023F8AFF2090EBAE80F0013F006
:1001B000010F18BFFB1A43F0010318479C0500000C
:1001C000AC0500000023002400250026103A28BFBB
:1001D00078C1FBD8520728BF30C148BF0B607047B9
:1001E0001FB500F0B3FA1FBD10B510BD00F035F813
:1001F0001146FFF7F5FF00F07FF900F053F803B464
:10020000FFF7F2FF03BC00F033F900000B48016870
:1002100041F4700101600A480047FEE7FEE7FEE78F
:10022000FEE7FEE7FEE7FEE7FEE7FEE7FEE700008B
:1002300004480549034A054B7047000088ED00E07B
:100240008901000860000020600400206000002098
:1002500070477047704770477047754600F02CF83C
:10026000AE4605006946534620F00700854618B0A3
:1002700020B5FFF7DDFFBDE820404FF000064FF04E
:1002800000074FF000084FF0000B21F00701AC46CB
:10029000ACE8C009ACE8C009ACE8C009ACE8C009EA
:1002A0008D46704710B50446AFF300802046BDE888
:1002B0001040FFF7A4BF0000004870470000002076
:1002C0001548006840F02000134908601348006892
:1002D00020F47010114908600846006840F4A0102E
:1002E0000860081D006820F4C060091D0860081D32
:1002F000006820F47010091D08600846006840F48A
:100300002010086005481430006840F4C0600349BC
:100310001431086070470000303802400014024079
:1003200000204FF0E02108610846006920F0040039
:10033000086170470848006900F0010058B106489C
:10034000006920F00100044908610448006880F455
:100350008060024908607047001000401414024099
:100360002DE9F04303460C463D48006840F010007C
:100370003B4908603B4800686FF30F00394908604B
:100380000846006840F08000086008468462C36246
:10039000406940F001004861084600690861052095
:1003A00001252E460146C1F10708B8F1040F02D914
:1003B0004FF0040801E0C1F10708C44601F1040848
:1003C000B8F1070F02D24FF0000801E0A1F10308D5
:1003D00047464FF0010808FA0CF8A8F1010808EAAE
:1003E000050808FA07F84FF0010909FA07F9A9F119
:1003F000010909EA060948EA090200BF3621104648
:10040000002904DB05072E0E174D6E5406E0050784
:100410002F0E164D01F00F06361FAF5500BF3620C8
:10042000002809DB00F01F050121A9404509AD00A6
:1004300005F1E025C5F8001100BF0A48C0686FF358
:100440000F000849C8600846C06840F00100C86055
:100450000846006840F001000860BDE8F083000035
:10046000403802400010004000E400E018ED00E0D9
:1004700000BF7047FF214FF0E022916145F2082153
:10048000414351611146096941F00101116100BF09
:100490004FF0E021096901F480310029F8D04FF0D4
:1004A000E021096921F001014FF0E022116170475C
:1004B00030B50346002540F21E30834203DC184667
:1004C000FFF7D8FF16E004E0A3F21E3083B2681CE9
:1004D000C5B240F21E308342F6DA002405E040F255
:1004E0001E30FFF7C7FF601CC4B2AC42F7DB1846F2
:1004F000FFF7C0FF30BD00000723022208214FF4A0
:10050000A87000F003F905200246164B19684FF653
:10051000FF031940144B0B4343EA0221114B1960AE
:1005200000BFFFF7FDFEFFF7CBFE42F2D00141F224
:100530008730FFF715FF13E00C48006820F40070C7
:100540000A4908604FF4FA70FFF7B2FF07480068E5
:1005500040F40070054908604FF4FA70FFF7A8FFF7
:10056000EAE700000CED00E00000FA051414024078
:10057000F0B504460D460021002000265C4F3F6880
:1005800047F48037DFF868C1CCF8007000E0491C00
:10059000574F3F6807F400371FB947F6FF77B94256
:1005A000F5D347F6FF77B94201D101209EE0504FC5
:1005B00040373F6847F08057DFF834C10CF1400CFA
:1005C000CCF800704B4F3F6847F44047DFF824C138
:1005D000CCF80070464F3F1D3F6805F03F0C47EADE
:1005E0000C07DFF80CC10CF1040CCCF80070674666
:1005F0003F6847EA8417CCF8007067463F684FF0C1
:10060000010CCCEB520C47EA0C47DFF8E4C00CF1CC
:10061000040CCCF8007067463F6847EA0367CCF8E3
:10062000007067463F6847F48007CCF800700CF113
:1006300004073F680CF1040CCCF8007067463F6873
:1006400047F4A057CCF8007067463F6847F400476E
:10065000CCF80070264F3F6847F08077DFF890C0F5
:10066000CCF80070002105E0491CB1F5001F01D352
:10067000022005E01E4F3F6807F00077002FF3D0FF
:1006800000BF1D4F3F6847F48077DFF86CC0CCF89F
:10069000007067463F6847F40077CCF80070674603
:1006A0003F6847F48067CCF8007067463F6847F0C2
:1006B0000507CCF800700E4F08373F6847F0020777
:1006C000DFF82CC00CF1080CCCF8007000210AE017
:1006D000074F08373F68C7F38106491CB1F5001F73
:1006E00001D3042001E0032EF2D100BFF0BD0000D1
:1006F0000038024000700040003C02404A0A5202AA
:100700000243014B1A60704708ED00E0F0B5044663
:100710000D4616461F4601200B49086000200A4975
:1007200008310860091F086007490C3108603B4622
:10073000324629462046FFF71BFF00214FF000609C
:10074000FFF7DCFFF0BD0000003802404FF04070C2
:10075000E1EE100A70470000680700080000002062
:0807600060040000C401000860
:040000050800018965
:00000001FF
