:020000040800F2
:1000000068060020D5010008D9010008DB010008BE
:10001000DD010008DF010008E10100080000000028
:10002000000000000000000000000000E3010008E4
:10003000E501000800000000E70100087108000861
:10004000EB010008EB010008EB010008EB010008E0
:10005000EB010008EB010008EB010008EB010008D0
:10006000EB010008EB010008A1060008EB01000805
:10007000EB010008EB010008EB010008EB010008B0
:10008000EB010008EB010008EB010008EB010008A0
:10009000EB010008EB010008EB010008EB01000890
:1000A000EB010008EB010008EB010008EB01000880
:1000B000EB010008EB010008EB010008EB01000870
:1000C000EB010008EB010008EB010008EB01000860
:1000D000EB010008AD080008A9090008EB010008C1
:1000E000EB010008EB010008EB010008EB01000840
:1000F000EB010008EB010008EB010008EB01000830
:10010000EB010008EB010008EB010008EB0100081F
:10011000EB010008EB010008EB010008EB0100080F
:10012000EB010008EB010008EB010008EB010008FF
:1001300000F002F800F03FF80AA090E8000C8244BA
:100140008344AAF10107DA4501D100F034F8AFF297
:10015000090EBAE80F0013F0010F18BFFB1A43F0A5
:10016000010318474809000068090000103A24BF3D
:1001700078C878C1FAD8520724BF30C830C144BF0C
:1001800004680C607047000000230024002500264E
:10019000103A28BF78C1FBD8520728BF30C148BFEA
:1001A0000B607047642900F06780002070471FB51E
:1001B0001FBD10B510BD00F0ADF91146FFF7F7FFF8
:1001C00000F056FC00F0CBF903B4FFF7F2FF03BCDC
:1001D00000F0FDFB08480047FEE7FEE7FEE7FEE70C
:1001E000FEE7FEE7FEE7FEE7FEE7FEE70348044919
:1001F000044A054B704700003101000868000020E8
:100200006806002068020020680200207047000095
:100210000FB4044910B503AA029800F04DF910BCC0
:100220005DF814FB0000002070B504468569006885
:10023000C10601D5302600E02026C00707D070BDDA
:10024000D4E9012130469047206A401C20626D1E8F
:10025000F6D570BD70B5044685690078C00707D132
:1002600070BDD4E9012120209047206A401C206203
:100270006D1EF6D570BD00002DE9F0410646002444
:1002800010687529314616A510D0AFF300800028FC
:1002900002DA404213A507E031688A0701D512A5AA
:1002A00002E0490704D511A5012401E0AFF3008065
:1002B00000210A2206F1240709E0B0FBF2FCB0FBA2
:1002C000F2F302FB1C00303078541846491C002819
:1002D000F3D123462A463046BDE8F04100F093B8FA
:1002E000000000002D0000002B0000002000000096
:1002F0002DE9F0474FF0000A89460446C0F820A0D7
:100300002046E1688847002876D0252806D0D4E921
:1003100001219047206A401C2062F1E7E1682046F5
:1003200000258847C4F81CA006460027C4F818A07A
:100330002A2E09D0304600F043FB38B304EB87087F
:10034000303EC8F8186019E059F8041B204604EB49
:1003500087029161E1688847012F064618D1E0695C
:10036000002820DA25F020051DE0D8F8180000EB61
:10037000800006EB40003038C8F818002046E168DD
:100380008847064600F01CFB0028EED1012F0AD05A
:100390002E2E08D12046E16888477F1C0646022F92
:1003A00045F02005C4DBA069002803DA404245F08F
:1003B0000105A061E80701D025F01005B6B1A6F14E
:1003C0004100192802D8203645F400654A463146D6
:1003D000204625604D46FFF7E5FE58B1012806D0BE
:1003E000ED1D25F0070000F1080989E704E005F19B
:1003F000040985E730468AE7206ABDE8F087704740
:100400007047704770472DE9F0470D469946924670
:10041000044600F124080168880604D5E06921F04B
:100420001001216000E00120A84201DD471B00E02F
:100430000027A1697A1902EB0900081AA061207847
:10044000C00602D42046FFF7EFFE002608E0D4E9FC
:1004500001211AF806009047206A401C761C206291
:100460004E45F4DB2078C0060AD52046FFF7DCFEB7
:1004700006E0D4E9012130209047206A401C206228
:10048000381EA7F10107F4DC07E0D4E9012118F8D0
:1004900005009047206A401C2062281EA5F1010536
:1004A000F3DC2046FFF7D6FE2078000602D50220B6
:1004B000BDE8F0870120FBE7074B70B50D467B4494
:1004C00000F011F80446284600F020F810B14FF073
:1004D000FF3070BD204670BD9305000001694A1CC5
:1004E00002610878704700B58FB0CDE90131002175
:1004F000059105497944CDE9031011466846FFF797
:10050000F7FE0FB000BD0000E5FFFFFF007B00F02D
:1005100080007047754600F029F8AE460500694630
:10052000534620F00700854618B020B5FFF75EFE61
:10053000BDE820404FF000064FF000074FF00008E4
:100540004FF0000B21F00701AC46ACE8C009ACE865
:10055000C009ACE8C009ACE8C0098D467047044644
:10056000AFF300802046FFF72FFE000000487047E1
:10057000040000200949096841F48001074A11601C
:1005800000BF06490839096801F002010029F8D0C6
:1005900002494431096888B270470000083C0140B4
:1005A0003B48806940F080003949886139480068DB
:1005B00020F00F00374908603548806940F400405A
:1005C000334988610846406820F440404860084646
:1005D000406840F4004048602F48006800202E49E1
:1005E0000860081D00680020091D086008460068B2
:1005F00040F4602008600846006840F480100860FD
:1006000025480C30006820F4E01023490C310860C4
:100610000846006840F4E01008601F482830006871
:1006200020F470001C49283108601B4830300068F5
:1006300020F01F001849303108600846006840F07B
:10064000060008601448001D006840F001001249CF
:10065000091D08600846006840F00800086000BFF7
:100660000E48006800F008000028F9D10A48001D73
:10067000006840F004000849091D086000BF0648F2
:10068000001D006800F004000028F8D17047000049
:1006900000100240041C0140043C014008240140B9
:1006A00010B50D48006800F0100098B10A2000F065
:1006B000AFF90A48006800F0100058B90648006811
:1006C00040F01000044908600548006880F02000F0
:1006D0000349086010BD00001404014008180140DF
:1006E0000C0C014000B5002015490861C8601420B9
:1006F000486100208861C8610846006840F0010038
:100700000860084640680F4908400D49486008469F
:1007100000680D4908400A4908600846006820F44E
:10072000802008600846406820F4FE0048600020F1
:10073000886000214FF0006000F008F800BD000064
:10074000001002400000FFF8FFFFF6FE024A0A40D8
:100750000243024B1A60704780FFFF1F08ED00E064
:1007600000F01F02012191404209920002F1E022B3
:10077000C2F800117047F0B503460C4603F00701BC
:10078000C1F10700042801D9042001E0C1F10700EC
:100790000646081D072801D2002000E0C81E0546B5
:1007A0000120B040401E2040A8400127AF407F1EDE
:1007B00017403843F0BD000010B5002807DA0A07DB
:1007C000140E054A00F00F031B1FD45403E00A0760
:1007D000130E024A135410BD18ED00E000E400E0CF
:1007E00030B504460025FFF77DFF1F48006840F440
:1007F00080301D49086000BF1B480068400C00287D
:10080000FAD04FF4806018494860A01EC4B2084670
:10081000406840EA844048600846406840F48030C0
:1008200048601248006840F03200104908600E48E5
:10083000006840F080700C49086000BF0A480068FA
:10084000400E0028FAD00848406840F002000649EF
:10085000486005E004484068C0F3870505F00305DB
:10086000022DF7D130BD00000010024000200240F0
:100870004FF0E020006900F4803048B1FF204FF0D5
:10088000E02188610348006880F020000149086089
:10089000704700000C1801404FF0E020006920F084
:1008A00004004FF0E021086170470000094800880B
:1008B00000F0200010B10748001D0088054800889E
:1008C00000F0100020B1034800880248001D008895
:1008D000704700000038014070B504462D4880691B
:1008E00040F004002B4988612B48006820F47F60A9
:1008F000294908600846006840F496600860274867
:10090000406820F00400254948602248C06840F44F
:1009100080402049C8600846C06820F48040C86014
:100920000846806940F4804088611D48008820F4B2
:1009300080501B4908800846008840F00C00088061
:100940000846008840F0200008800846008840F0F3
:1009500010000880081D008820F44050091D088000
:100960001048B0FBF4F00E49091F08800222012153
:100970000520FFF700FFC5B229462520FFF71CFF21
:100980002520FFF7EDFE0648008840F4005004499A
:10099000088070BD001002400408014000000140C2
:1009A0000C38014000A24A040448008800F02000EE
:1009B00010B10248001D008870470000004400404C
:1009C00030380A2801D201207047002070470146C4
:1009D00000BF7047FF214FF0E022916142F22831C1
:1009E000414351611146096941F00101116100BFA4
:1009F0004FF0E021096901F480310029F8D04FF06F
:100A0000E021096921F001014FF0E02211617047F6
:100A100030B503460025B3F5E96F03DC1846FFF750
:100A2000D9FF15E004E0A3F5E96083B2681CC5B204
:100A3000B3F5E96FF7DA002405E04FF4E960FFF75A
:100A4000C9FF601CC4B2AC42F7DB1846FFF7C2FF17
:100A500030BD000000BF054A128802F04002002AA3
:100A6000F9D0C2B2014B1B1D1A80704700380140FB
:100A70000920FFF7B5FEFFF70FFF4FF4E130FFF756
:100A80002BFFFFF78DFD0AE0FFF774FD04462146BA
:100A900003A0FFF7BDFB4FF4FA70FFF7B9FFF3E7D0
:100AA000646174613A202534640D0A00CC0A0008A0
:100AB00000000020040000006C010008D00A0008BB
:100AC0000400002064060000880100080000000007
:0400000508000131BD
:00000001FF
