:020000040800F2
:100000006806002041020008490200084B0200086F
:100010004D0200084F0200085102000800000000D5
:100020000000000000000000000000005302000873
:10003000550200080000000057020008F9150008EA
:100040005B0200085B0200085B0200085B0200081C
:100050005B0200085B020008F91300085B0200085D
:100060005B0200085B0200085B0200085B020008FC
:100070005B0200085B0200085B0200085B020008EC
:100080005B0200085B0200085B0200085B020008DC
:100090005B0200085B0200085B0200085B020008CC
:1000A0005B0200085B0200085B0200085B020008BC
:1000B0005B0200085B0200085B0200085B020008AC
:1000C0005B0200085B0200085B0200085B0200089C
:1000D0005B0200089D160008C91700085B020008B3
:1000E0005B0200085B0200085B0200085B0200087C
:1000F0005B0200085B0200085B0200085B0200086C
:100100005B0200085B0200085B0200085B0200085B
:100110005B0200085B0200085B0200085B0200084B
:100120005B0200085B0200085B0200085B0200083B
:100130005B0200085B0200085B0200085B0200082B
:100140005B0200085B0200085B0200085B0200081B
:100150005B0200085B0200085B0200085B0200080B
:100160005B0200085B0200085B0200085B020008FB
:100170005B0200085B0200085B0200085B020008EB
:100180005B0200085B02000800F002F800F049F88A
:100190000AA090E8000C82448344AAF10107DA45E2
:1001A00001D100F03EF8AFF2090EBAE80F0013F0EB
:1001B000010F18BFFB1A43F0010318477421000018
:1001C00094210000103A24BF78C878C1FAD85207A9
:1001D00024BF30C830C144BF04680C6070470000C1
:1001E0000023002400250026103A28BF78C1FBD840
:1001F000520728BF30C148BF0B607047662902F024
:100200004280002070471FB502F033F800F006FB73
:1002100004000020002101F08BFBE0601FBD10B541
:1002200010BD00F013FC1146FFF7EDFF01F054FB89
:1002300000F031FC03B4FFF7F2FF03BC01F0EFFA6A
:100240000948804709480047FEE7FEE7FEE7FEE76A
:10025000FEE7FEE7FEE7FEE7FEE7FEE704480549A6
:10026000054A064B70470000351600088901000852
:100270006800002068060020680200206802002054
:10028000704700000FB4044910B503AA029800F0AB
:10029000B3FA10BC5DF814FB000000202DE9F05FFC
:1002A000894604464FF0000ADFF824B1FB44C0F849
:1002B00020A02046E168884700287DD0252806D068
:1002C000D4E901219047206A401C2062F1E7002513
:1002D0005F462046E16888472028064607DB312E26
:1002E00005D2B81910F8200C08B10543F1E7A807AA
:1002F00001D525F00405C4F81CA00027C4F818A0F7
:100300002A2E09D0304601F083FA38B304EB87086F
:10031000303EC8F8186019E059F8041B204604EB79
:1003200087029161E1688847012F064618D1E0698C
:10033000002820DA25F020051DE0D8F8180000EB91
:10034000800006EB40003038C8F818002046E1680D
:100350008847064601F05CFA0028EED1012F0AD04A
:100360002E2E08D12046E16888477F1C0646022FC2
:1003700045F02005C4DBA069002803DA404245F0BF
:100380000105A061E80701D025F01005A6B1A6F18E
:100390004100192802D8203645F400654A46314606
:1003A000204625604D46FFF729FF60B1012807D0A0
:1003B000ED1D25F0070000E007E000F1080978E7EF
:1003C00005F1040975E730467AE7206ABDE8F09F39
:1003D000DA1F0000704770477047704770472DE97B
:1003E000FF4F0C461E464FF0FF378BB0D2E900019D
:1003F000DDF860800A908A46C1F30A5505B93D468A
:10040000002108464FF00000BAF1000F00F4400050
:1004100005DA00EB80004FF4400101EA50004FEA9A
:100420009059B9F1010F00DDB9460A9850EA4A0027
:100430000ED044F61050A5F2FF3545432F14B8F105
:10044000000F1ED07542291E1EDDC9F100021CE0FE
:10045000B8F1010F4FF0000001D0302103E0F2436A
:1004600005E02154401CB042FBDB30460022002155
:1004700021540B99C1F80880C1E900200FB0BDE8F4
:10048000F08FBD1B6D1CDEE74A4600DA694206A804
:1004900000F066FA06AB93E8070003AB83E80700B9
:1004A00050460A9900F03EFB8DE80700A0F5005089
:1004B0001F3800900398002D09DD42F21F014A46C3
:1004C000084403A90390684600F09DFD08E0A0F5EC
:1004D00000504A461F3803A90390684600F0A7FD64
:1004E0008DE807000004000C03D04FF0FF304108F6
:1004F00000E01046B8F1000F03D00022009215462C
:100500001EE0751E05D400F08DF9303262556D1E67
:10051000F9D5B3460122084302D000227F1C04E033
:100520002078302801D100227F1E002A099786D02A
:100530001DE0112D07DA00F075F9303262556D1C9F
:1005400050EA0102F5D1084302D00098C8B10EE08C
:100550000021681E05E0235C625C63542254401E47
:10056000491C8142F7DBAB46A81B401E09900020C6
:1005700004F80B000B98099AC0F80880C0E9002B1A
:100580007CE711264FF0000859E72DE9F04F884627
:100590000446D21D22F0070191B0D1E90001CDE956
:1005A0000A0101F01DF902460B98C00F01D02D2061
:1005B00007E02068810701D52B2002E0202101EA15
:1005C000C000032A099001D0072A05DB03464146F3
:1005D000204600F085F90BE12078800601D5E0691E
:1005E00000E00620B8F1650F814606D0B8F1660F2D
:1005F00018D0B8F1670F70D131E00020B9F1110FB8
:10060000009001DB112301E009F101030AAA01A90D
:100610000CA8FFF7E4FEDDE90C70002609F10105E6
:10062000834647E001204B4600904FF000470AAA5E
:1006300001A90CA8FFF7D3FEDDE90DB00C995D46CA
:10064000002610B909F101000D18B9EB050003D41B
:10065000C0F1FF3609F10105A5EB09002BE0B9F166
:10066000010F01DA4FF001090020B9F1110F0090DC
:10067000484601DD112300E003460AAA01A90CA89F
:10068000FFF7ADFEDDE90C704D460026834620786D
:1006900000070AD4AB4500DA5D4601A8012D04DD50
:1006A000411911F8011C302907D04F4502DA17F122
:1006B000040F04DA012082460FE06D1EEEE7002FE2
:1006C00002DCED1B3E4403E0781CA84200DD7D1CEB
:1006D000B81B00F1010A4FF000472078000703D44F
:1006E000AA4501DB4FF0FF3A0021B7F1004F0DF1B1
:1006F00043088DF8431024D002202B23002F01DA69
:100700007F422D230A21021EA0F1010000DC5FB10F
:1007100097FBF1FC97FBF1F201FB1C7C17460CF1F7
:10072000300C08F801CDEEE7A8F101000370218834
:10073000090501D5452100E06521A0F1010800F877
:10074000011C09980FA9A1EB0807FF1D00B10120AA
:10075000411901EBEA70A1693844081A401EA061F2
:100760002078C00602D42046AFF30080099828B153
:10077000D4E901219047206A401C20622078C006FD
:1007800022D52046AFF300801EE0002E04DBB345E7
:1007900002DD01A8805D00E03020D4E9012190470E
:1007A000206A401C2062761CAAF101005FEA000A60
:1007B0000AD100F033F8C0680168405CD4E9012137
:1007C0009047206A401C2062281EA5F10105DCDC50
:1007D00007E0D4E9012118F8010B9047206A401C7A
:1007E0002062381EA7F10107F3DC2046AFF300803A
:1007F000032011B043E60000074B70B50D467B4463
:1008000000F05BF80446284600F018F910B14FF0EC
:10081000FF3070BD204670BDBB100000004870471F
:100820002400002030B5B0F10A024FEA900E71F1B9
:1008300000034EEA817EB0EB0E0061EB91014FEABE
:10084000101E4EEA017E10EB0E0041EB11114FEA33
:10085000102E4EEA016E10EB0E0041EB11214FEA13
:10086000104E4EEA014E10EB0E0041EB11414018C4
:1008700041F100014FEAD00040EA41704FEAD10156
:1008800010EB80054FEA810444EA907444EB0104C4
:100890006D1944EB0404521BA3414FF0000348BF01
:1008A0000A3200D530BD401C41F1000130BD0000CE
:1008B00001694A1C02610878704700B58FB0CDE924
:1008C00001310021059105497944CDE90310114614
:1008D0006846FFF7E3FC0FB000BD0000E5FFFFFF37
:1008E0002DE9F0411F46044603260168072A01F45A
:1008F000006004DB08B116A505E016A503E008B109
:1009000015A500E015A521F010002060A069C01E0B
:10091000A0610FB1401EA0612046AFF300804FB12F
:10092000D4E9012138469047206A401C2062C01C4F
:10093000206206E0206AFAE7D4E9012115F8010BEC
:100940009047761EF8D22046AFF30080BDE8F081D4
:100950004E414E006E616E00494E4600696E660063
:100960002DE9F047814616468AB0334878440DC8D1
:100970008DE80D0030487844801C03AC0DC884E835
:100980000D0041F69B300844372190FBF1F290FBBB
:10099000F1F5A5F1800501FB12041B3C02D5644270
:1009A000012000E00020DFF890A080460027FA44F4
:1009B000AAF1BE0A0DE0E00709D03246684607EB0F
:1009C00047010AEB810100F032FB8DE8070064105B
:1009D0007F1C002CEFD1184F7F44AC3F18E0E80794
:1009E00014D007EB04100DF1180A90E80E008AE805
:1009F0000E00C068F04201D198190890324606A94D
:100A000003A800F014FB03AB83E807006D10641C1F
:100A1000002DE4D132466946B8F1000F03A802D098
:100A200000F0F1FA01E000F002FBC9E90001C9F8A9
:100A300008200AB0BDE8F087A8190000007B00F08C
:100A40008000704700487047040000207546FFF79B
:100A5000F9FFAE4605006946534620F0070085467B
:100A600018B020B5FFF7FAFBBDE820404FF00006B4
:100A70004FF000074FF000084FF0000B21F0070186
:100A8000AC46ACE8C009ACE8C009ACE8C009ACE8C9
:100A9000C0098D4670470446AFF300802046FFF73B
:100AA000C9FB00004FF0013C50F8042B51F8043B07
:100AB0009A4221D1A2EB0C03934313EACC1317D132
:100AC00050F8042B51F8043B9A4215D1A2EB0C03C9
:100AD000934313EACC130BD150F8042B51F8043B89
:100AE0009A4209D1A2EB0C03934313EACC13DBD057
:100AF0004FF00000704700BFD01A01BAB1FA81F17F
:100B000001F0180122FA01F0CB40C1F12001DBB263
:100B1000C0B2C01A2CFA01F3D11A914311EAC311E1
:100B2000E6D170475FEA400C08BF91F0000F4FEA32
:100B30008C234FEAC12243EA51514FEA1C5018BF9F
:100B400000F5F0404FEA300018BF41F000415FEA85
:100B50006C5C00F02980BCF1FF3F08BF40F0804092
:100B60007047130C06BF12044FF0100C4FF0000C2E
:100B7000130E04BF12020CF1080C130F04BF120174
:100B80000CF1040C930F04BF92000CF1020CD30F74
:100B900004BF52000CF1010C11464FF00002A0F10D
:100BA0001F00A0EB0C00704711F0004F08BF70470A
:100BB00031F000413FF4D5AF0B0C06BF09044FF0F4
:100BC000100C4FF0000C0B0E04BF09020CF1080CC6
:100BD0000B0F04BF09010CF1040C8B0F04BF89003B
:100BE0000CF1020CCB0F04BF49000CF1010CCCF14D
:100BF0002003A0EB0C0022FA03F302FA0CF241EA04
:100C0000030100F10100704720F07F4C80EA0300EF
:100C100023F07F47ACEB070303F57C5300F0004063
:100C200003F1FF032DE980494FEA154B09B44FEA60
:100C3000144325EA0B4E24EA03480FF2042606EB80
:100C4000132749083E785FEA320203FB0667C7F5BF
:100C5000000707FB06F64FEA54374FEAD64606F17F
:100C6000020607FB066CCCF1005C4FEA1C472CEA3D
:100C7000074C07FB06F40CFB06F504EB15464FEAA0
:100C8000961634BF00204FF000404FEAD13706FBE4
:100C900007FC4FEA1C4C0CFB0BF7D21B03FB0CF7B9
:100CA00061EB07010CFB0EF7B0EB074072EB17424C
:100CB0000CFB08F734BFA2EB0742B2EB074261EB33
:100CC00017414FEA0C444FEA910706FB07FC4FEA35
:100CD0001C4C0CFB0BF7B0EBC74072EB573203FB1D
:100CE0000CF734BFA2EBC742B2EBC74261EB5731FE
:100CF0000CFB0EF7B0EBC70072EB57720CFB08F75A
:100D000034BFA2EBC702B2EBC70261EB5771039F7E
:100D10004FEA816141EA921104EBCC044FEAD137EA
:100D20004FEA826206FB07FC42EA90124FEA8060BB
:100D30004FEA1C4C0CFB0BF7D21B03FB0CF761EBCF
:100D400007010CFB0EF7B0EB074072EB17420CFBF0
:100D500008F734BFA2EB0742B2EB074261EB174141
:100D60004FEA8C554FEA910704EB9C2406FB07FCE5
:100D70004FEA1C4C0CFB0BF7B0EBC74072EB573241
:100D800003FB0CF734BFA2EBC742B2EBC74261EBE7
:100D900057310CFB0EF7B0EBC70072EB57720CFB30
:100DA00008F734BFA2EBC702B2EBC70261EB577181
:100DB00015EB4C254FEA816141EA92114FEA8262BC
:100DC0004FEAD13742EA901206FB07FC44F10004D7
:100DD0004FEA80604FEA1C4C0CFB0BF7D21B03FB65
:100DE0000CF761EB07010CFB0EF7B0EB074072EB61
:100DF00017420CFB08F734BFA2EB0742B2EB0742E5
:100E000061EB174115EB1C154FEA813141EA924124
:100E10004FEA823242EA90424FEA80304FEA0C7643
:100E200044F1000448EA03434EEA0B484FF0000E39
:100E3000B2EB080C71EB030724BF624639464EEB58
:100E40000E0E4FF0000B0018524149414BEB0B0BBB
:100E5000B2EB080C71EB03077BF1000B24BF624679
:100E600039464EEB0E0E4FF0000B0018524149412F
:100E70004BEB0B0BB2EB080C71EB03077BF1000B98
:100E800024BF624639464EEB0E0E51EA020718BFE8
:100E900046F0010616EB0E7655F1000254F1000102
:100EA00003D5BDE88901BDE80088BDE88901BDE83A
:100EB0000048B619524141EB0101A3F1010370470B
:100EC00080807F7E7D7C7B7A797877767675747387
:100ED000727171706F6E6E6D6C6C6B6A6A69686846
:100EE000676666656464636362616160605F5F5EDC
:100EF0005E5D5D5C5C5B5B5A5A5959585857575652
:100F000056555555545453535252525151505050B6
:100F10004F4F4F4E4E4D4D4D4C4C4C4B4B4B4A4A08
:100F20004A4949494848484747474746464645454C
:100F30004544444444434343434242424241414185
:100F4000002B26D4770021D01CB54FEA370703B415
:100F50004FF010004FF010014FF000000FBCBDE843
:100F600010400BF1010BBBF1010F08BF5FEA17073F
:100F700022BF12F1010211F101014FF0004143F1D2
:100F8000000300F0004043EA00007047F9D357081F
:100F9000DAE746EA064613F1400F4FEA16461FDD30
:100FA00013F1200FDFBF16430A46002120335B42B6
:100FB000C8D0C3F1200746EA064602FA07F74FEA0F
:100FC000164646EA0706C3F1200722FA03F201FAA1
:100FD00007F721FA03F14FF0000342EA0702B1E7F5
:100FE00046EA020646EA06464FEA164646EA010681
:100FF000BCBF46EA0646360C4FF000034FF0000235
:101000004FF000019EE72DE9C048934630B491E8C7
:10101000380007C831EA400C48BF34EA430C03D516
:10102000FFF7F2FDFFF78CFFF0BCBDE800882DE96B
:10103000C048934630B491E8380007C810F0804F9C
:1010400008BF13F0804F03D100F005F8FFF778FFD9
:10105000F0BCBDE8008820F07F4780EA030023F061
:101060007F4C07EB0C03A3F57C5300F00040A3F189
:10107000FE0392F0000F00F0B38095F0000F00F037
:1010800077802DE901494FEA11404FEA144621EAE1
:10109000004800FB06FC24EA064708FB06F607FBAF
:1010A00008F800FB07F718EB06484CEB164C4FEA24
:1010B000124B18EB07484FEA15464CEB174022EA53
:1010C0000B4E0BFB06FC25EA06470EFB06F607FB5C
:1010D0000EFE0BFB07F71EEB064E4CEB164C4FF0CB
:1010E00000061EEB074E4CEB174B18EB0B0840F1BC
:1010F000000018EB0E0B58EB000840F100008F1AAF
:101100004FF000013CBFC943661B14BFB5EB040C94
:1011100000213CBFC943F61B4FEA17444EEA8E0E2E
:1011200027EA04454FEA1C4704FB07622CEA074CF8
:1011300005FB07F70CFB05F604FB0CFC16EB07465A
:1011400042EB174216EB0C4642EB1C421BEB060629
:1011500058EB0202414146EA9E0601D5BDE80189ED
:10116000B619524141EB0101A3F10103BDE8018928
:101170004FEA14454FEA114724EA054621EA074C95
:1011800005FB07F406FB07F70CFB06F105FB0CFC5F
:1011900011EB074144EB17444FEA124711EB0C41A6
:1011A00044EB1C4422EA074C05FB07F206FB07F759
:1011B0000CFB06F605FB0CFC16EB074642EB174250
:1011C00016EB0C4642EB1C456A1854F1000148BF6F
:1011D0007047B619524141EB0101A3F10103704779
:1011E00095F0000F37D04FEA11424FEA144721EA39
:1011F000024624EA074C02FB07F106FB07F70CFB4B
:1012000006F402FB0CFC14EB074441EB17414FEAD8
:10121000154714EB0C4441EB1C4125EA074C02FB3B
:1012200007F506FB07F70CFB06F602FB0CFC16EBBA
:10123000074645EB174516EB0C4645EB1C421219C9
:1012400051F1000148BF7047B619524141EB01010D
:10125000A3F1010370474FEA14454FEA114724EA0E
:10126000054621EA074C05FB07F106FB07F70CFBD7
:1012700006F24FF0000605FB0CFC12EB074241EBB7
:10128000174112EB0C4251EB1C4148BF70479218BA
:1012900041EB0101A3F101037047000010B52DEDF2
:1012A000088B0521102000F0DBF808EE100AB8EEDC
:1012B000480A10EE100A00F06BFF41EC1A0B9FED8C
:1012C000150B53EC102B00F07BFD41EC190B9FED3F
:1012D000130B53EC102B51EC190B00F06FFE41EC8B
:1012E0001B0B9FED100B53EC102B00F011FC41EC8D
:1012F0001A0B9FED0E0B53EC102B00F061FB41EC31
:10130000190B51EC190B00F029FB00EE100ABDEC93
:10131000088B10BD6666666666664A3F52B81E85D3
:10132000EB51E83F7B14AE47E17A643F00000000D8
:10133000000039400849896841F08041064A9160BF
:1013400000BF0549096801F002010029F9D00249EE
:10135000C96C88B270470000002001402348006833
:1013600040F48070214908602148406800202049ED
:10137000486008468068002088600846806840F41D
:10138000806088600846C06820F4E010C8600846A5
:10139000C06840F4E010C8600846C06A20F47000DD
:1013A000C8620846406B20F01F0048630846406B47
:1013B00040F0100048630F48006820F44030C1F846
:1013C00004030846D0F8040340F48030C1F8040355
:1013D0000846D0F8040340F40000C1F804030846AE
:1013E000806840F001008860704700004438024087
:1013F000002001400423014010B51548006800F0AA
:10140000010018B30A2000F02BFA1248006900F01E
:101410000100D8B10E48006840F001000C49086096
:101420000D48006880F040000B49086008460068DD
:1014300080F4007008600846006880F480600860EE
:101440000648006880F001000449086010BD0000F3
:10145000143C0140000002401414024014080240F1
:101460002DE9F04107460C460025002607E0FFF76E
:1014700061FF0544052000F0FDF9701CC6B2A642CC
:10148000F5DBB5FBF4F080B2BDE8F08100F01F029F
:10149000012191404209920002F1E022C2F80011BC
:1014A0007047F0B503460C4603F00701C1F1070091
:1014B000042801D9042001E0C1F107000646081DF7
:1014C000072801D2002000E0C81E05460120B040D8
:1014D000401E2040A8400127AF407F1E17403843E0
:1014E000F0BD000010B5002807DA0A07140E054AFF
:1014F00000F00F031B1FD45403E00A07130E024A27
:10150000135410BD18ED00E000E400E00CB500201D
:10151000019000903448006840F4803032490860FF
:1015200000BF3148006800F4003000900198401C72
:101530000190009818B90198B0F5A04FF1D12A4850
:10154000006800F4003010B10120009001E000209C
:1015500000900098012846D123484030006840F0B0
:1015600080502149403108602048006840F44040E4
:101570001E4908601C48083000681B490831086093
:101580000846006840F4004008600846006840F4DF
:10159000A05008601648091F0860081F006840F046
:1015A0008070091F086000BF0F48006800F00070DD
:1015B0000028F9D040F205700E4908600A4808304A
:1015C000006820F0030008490831086008460068F8
:1015D00040F00200086000BF03480830006800F0D7
:1015E0000C000828F8D10CBD003802400070004003
:1015F00019544007003C02404FF0E020006900F41D
:10160000803048B1FF204FF0E02188610348006836
:1016100080F0400001490860704700001414024047
:101620004FF0E020006920F004004FF0E021086155
:101630007047000010B51548006840F47000134969
:1016400008601348006840F001001149086000205C
:101650000F49083108600E4800680E4908400C49DF
:1016600008600D48091D0860081F006820F48020EC
:10167000091F0860002006490C310860FFF746FF8B
:101680004FF0006001498039086010BD88ED00E02E
:1016900000380240FFFFF6FE103000240E4800889C
:1016A00000F0200038B10C4880880C48006820F019
:1016B00040000A4908600848008800F0100048B15E
:1016C00005480088044880880448006840F04000CD
:1016D00002490860704700000010014014140240E5
:1016E00070B504463448006840F001003249086093
:1016F0003248006820F470103049086008460068DD
:1017000040F4201008600846406820F400704860EB
:101710000846806820F4402088600846806840F4CD
:10172000002088600846C06820F44010C860084661
:10173000406A20F47F6121484162406A40F4EE61D2
:101740001E4841621C481430006840F010001A49DD
:10175000143108601A48808920F4104018498881A3
:101760000846808940F00C0088810846808940F056
:10177000200088810846808940F010008881084652
:10178000008A20F4405008820E48B0FBF4F0088133
:10179000022201210520FFF784FEC5B2294625203B
:1017A000FFF7A0FE2520FFF771FE0548808940F471
:1017B00000500349888170BD30380240000002406B
:1017C0000010014000BD01050448008800F0200021
:1017D00010B10248001D008870470000004400401E
:1017E00003B401984100009850EAC12018BF0420BA
:1017F0004A0D18BF40F0010040F2FF72B2EB515F9A
:1018000008BF40F00200012808BF052002B0704761
:1018100030380A2801D20120704700207047014665
:1018200000BF7047FF214FF0E022916145F208218F
:10183000414351611146096941F00101116100BF45
:101840004FF0E021096901F480310029F8D04FF010
:10185000E021096921F001014FF0E0221161704798
:1018600001464AF2104201FB02F000E0401E00284F
:10187000FCD1704730B50346002540F21E3083424C
:1018800003DC1846FFF7CEFF16E004E0A3F21E309B
:1018900083B2681CC5B240F21E308342F6DA0024DF
:1018A00005E040F21E30FFF7BDFF601CC4B2AC4241
:1018B000F7DB1846FFF7B6FF30BD000000BF054A52
:1018C000128802F04002002AF9D0C2B2014B9A807D
:1018D00070470000001001402DED028BFFF7A0FEC5
:1018E0004FF4E130FFF7FCFEFFF738FD11E0FFF7A2
:1018F000D5FC10EE104A204600F04AFC41EC180BD3
:1019000053EC182B03A0FEF7BDFC4FF47A70FFF7E1
:10191000B1FFECE7414443D7AABBBBBAF3B5C4CA95
:10192000FDD6B5A3BA25302E32660D0A00000000A0
:1019300010B500290AD00878002807D00548784457
:10194000FFF7B0F8002801D0002010BD024878440D
:1019500010BD0000120A00000A0A000021F0004237
:10196000A2F16052B2F5801F01F0004328BFD2F10E
:101970007F6C0BD95FEA001C43EAC20242EB507055
:1019800018BF704728BF20F001007047B2F5801FD4
:10199000BCBF184670474FEA410C1CF5001F02D22D
:1019A000084600F06BBC70B500F0B4FA0000008986
:1019B000FFF7F6BF4FF00040A0F580007047000031
:1019C00010B591EA030F48BF83F0004300F1FE8297
:1019D000841A71EB030C05D2121943EB0C03001BA4
:1019E00061EB0C01DFF824E14FEA1154A4EB135C26
:1019F0001EEA430F18BF9EEA445F73D023EA0E032A
:101A0000DCF1200E21EA045143F4801332D322FA90
:101A10000CFE10EB0E0023FA0CFE41EB0E01CCF194
:101A2000200E03FA0EFE10EB0E0051F10001B1F58D
:101A3000801FCCF1200E32D201EB045112FA0EF2CB
:101A4000BDE8104058BF7047401C38BF5FEA4202F3
:101A500018BF7047002814BF20F0010041F10001B9
:101A60004FEA410313F5001F38BF7047A1F1C04191
:101A700000F09EBA012A43EB0302ACF1200CDCF12A
:101A80001F0E32BF4FF0000E23FA0CF310EB0300D1
:101A900041EB0451B4EB115FD0D0A1EB045101F53F
:101AA000801149085FEA300001EB04510ED350F178
:101AB000000038BF12FA0EFE08D1BDE81040C9E799
:101AC000401C38BF5FEA4202CAD1C3E7BDE81040FC
:101AD0004FEA410313F5001F38BF7047A1F1C04121
:101AE00000F066BA9EEA445F08D011EA5E0FBDE8D6
:101AF000104004BF01F0004100207047BDE81040D5
:101B000070B500F007FA00BF64FBBE3E0000E0FFC6
:101B10002DE9C04130B4DFF8A0C23CEA111418BF6F
:101B20003CEA131400F0EC8081EA03051CEA11146E
:101B300044EAD57418BF1CEA131500F0C780A4EB63
:101B400005044FF0004545EAC12145EAC32341EAB7
:101B5000505143EA525304F17F74994204F5003422
:101B60004FEAC0204FEAC22208BF904200F09C809A
:101B70004FEA13650FF24016765D4FEA134506FBF8
:101B800005F7C7F1807706FB07F74FEAD737A7FBC2
:101B900003687642C8F58038A7FB06CE38BFA8F1A7
:101BA000010807FB08E64FF0000EA6FB028CE6FBDF
:101BB00003CEDCF1000CCEF1004E38BFAEF1010EC9
:101BC000A6FB0C584FF000074FF00005E6FB0E8710
:101BD000A1FB08C6A0FB07CE16EB0E0645F10005DB
:101BE000E1FB076515F1E04E7EBFA4F580345FEAA6
:101BF00046066D4116F1800745F100054FEA1727AB
:101C00004FEA066647EA0567A6F1DE46B6F1805F51
:101C10004FEA15251FD9384624F0010C05EBC47195
:101C2000BCF1FE6F01EB0C1102D8F0BCBDE80081E5
:101C300024425CBF01F5801E9EEAC47F02D4F0BC42
:101C4000BDE80081244238D4F0BCA1F1C041BDE818
:101C5000004100F0ADB94FEAD22242EA43524FEAC6
:101C6000D323A7FB02864FEAD02040EA415007FB6E
:101C700003661EEA0E0F4FEAD12105FB026658BF2C
:101C8000A6EB0056B6EB00564FEA520E4EEAC37E64
:101C900018EB0E0E56EB530EBDD518EB02085E4145
:101CA0007F1C55F10005B6E74FF480154FF0000793
:101CB0004FF000064FF00008ADE7F0BC4FF0000019
:101CC00001F1C04101F00041BDE8008111EA0C1FA3
:101CD0000CEA131500D00CE013EA0C1F00F025806D
:101CE0004FF00000F0BC81EA030101F00041BDE8C3
:101CF0000081F0BCBDE8004181EA030100F058B961
:101D0000F0BCBDE8004170B500F004F9097EFC3E6E
:101D100000F007B881EA03014FF0000001F0004134
:101D2000704781EA030100F043B9F0BCBDE800410F
:101D30004FF0000021497047FFFDFBF9F7F5F4F281
:101D4000F0EEEDEBE9E8E6E4E3E1E0DEDDDBDAD856
:101D5000D7D5D4D3D1D0CFCDCCCBCAC8C7C6C5C4B4
:101D6000C2C1C0BFBEBDBCBBBAB9B8B7B6B5B4B3CB
:101D7000B2B1B0AFAEADACABAAA9A8A8A7A6A5A4B6
:101D8000A3A3A2A1A09F9F9E9D9C9C9B9A9999987A
:101D90009797969595949393929191908F8F8E8E1D
:101DA0008D8C8C8B8B8A89898888878786858584AA
:101DB00084838382828181800000FF070000F87F96
:101DC000DFF848C170B51CEA111E1EBF1CEA1315CE
:101DD0009EEA0C0F95EA0C0F00F06F8081EA030475
:101DE00023EA4C134EEAD47E21EA4C1141F48011CF
:101DF00043F48013AE44A1FB024CA0FB0365AEF19B
:101E00007F7E361955EB0C05A1FB034C4CF100030A
:101E1000A0FB021C16EB0C06654153F100030942BE
:101E200018BF46F0010613F4007F0BD14FEA0331CF
:101E30004FEA0530340341EA155140EA16506FF07D
:101E400003020AE04FEAC3214FEAC520F40241EA47
:101E5000555140EA56506FF0020202EB2E4201EB60
:101E6000025585EACE710AD05FEA440C18BF24F00F
:101E7000004450F1000041F1000120EAD47040F22A
:101E8000FE7C624500D270BDA84214BF4FF0804472
:101E90004FF04044002E08BF0024BEF1806FA8BF61
:101EA000A1F1C041BDE8704080F282804FF0000097
:101EB00001F1C04101F0004170479EEA0C0F0CEAAD
:101EC000131518BF95EA0C0F06D04FF0000081EAF9
:101ED000030E0EF0004170BD00F01CF88900013EB9
:101EE00000F007B800F009B84FEA430C5FEA5C5C09
:101EF00008D081EA030100F05BB84FEA410C5FEAC9
:101F00005C5CF6D14FF00000014970470000FF070C
:101F10000000F87F0EF1020E2EF0030E5EF8046B47
:101F2000364205D4012A43EB030515F5001F12D8EC
:101F3000012841EB010C1CF5001F0CD80ED14FEA13
:101F4000D17C15F5001F0CEB4C0C0CF1020C08BFFA
:101F50004CEBD37C04E04FF0080C01E04FEAD37C5B
:101F60000CEB4C0526FA05F606F00706B6F1040C54
:101F700006D20EEB860CBDE870404CF0010C6047B9
:101F8000DFE80CF0090B02024FF000414FF00000B7
:101F9000A1F5002170BD19461046012851EB01043E
:101FA00018BFD4F5001484BF002001F0004170BDBB
:101FB0000808A0F500114FEA3101704710B591EA09
:101FC000030F48BF83F000433FF502AD841A71EB65
:101FD000030C07D212198CF0004C43EB0C03001BCE
:101FE00061EB0C01DFF8A4E14FEA1154A4EB135CA0
:101FF0001EEA430F18BF9EEA445F00F0B08023EA58
:102000006E03524221EA0451C3EB6E0338BF5B1EDC
:10201000DCF1200E25D322FA0CFE10EB0E0043FA61
:102020000CFE41EB0E01CCF1200E03FA0EFE10EB7C
:102030000E0051F10001CCF1200E29D412FA0EF25B
:1020400001EB0451BDE8104058BF7047401C1CBF55
:10205000B2F1004F704700280CBF491C20F001006E
:10206000704712EB020E43EB030218BF4FF0010E54
:102070004EEA4202ACF1200CDCF11E0E54D943FAB8
:102080000CFE10EB0E0051F1FF31CCF11E0ED5D538
:102090000EF1010E12FA0EFE404141EB010101EB7F
:1020A000445C5FEA5C5C10D910EBDE7001EB04511C
:1020B00038BFBEF1004FBDE8104018BF7047002880
:1020C0000CBF491C20F00100704730D24FEAD42CDD
:1020D00011F5001124F400641BD0B1FA81F20B3A1F
:1020E000A41AA41ED2F12003914030FA03F319433D
:1020F000904001EBCC71002C01EB0451BDE8104085
:10210000A8BF704701F1C0414FF0000001F000414D
:102110007047B0FA80F310FA03F100D110BDE41A51
:10212000173C4805C90AE4E701EB045110BD49100A
:1021300001EB0451BDE810404FEA300002E04FF0DF
:10214000000170474A0008BF0042F8D0B2F5001FF6
:1021500028BF704701F000414FF0000070479EEA31
:10216000445F07D011EA5E0FBDE8104004BF0021B4
:1021700000207047BDE8104070B5FFF7CBFE00BFF0
:1021800040DFF63E83F00041104670470000E0FF5C
:1021900043004FEAD30C4FEA3C0C43401FBF4007BB
:1021A0000CF1605113F0FE4F70471CF0006F03D12B
:1021B00000200CF0004170470CF0004343EA5070DF
:1021C00010B540EACC0000F00EF800BF000000920D
:1021D0004FEA0001FFF7ECBE4FF000414FF0000066
:1021E000A1F5002170470EF1020E2EF0030E5EF8ED
:1021F000044B244204D44FEA4102B2F17F4F11D87C
:102200004FEA4003B3F17F4F0CD80ED14FEAD07C98
:10221000B2F17F4F0CEB4C0C0CF1020C08BF4CEBF5
:10222000D17C04E04FF0080C01E04FEAD17C0CEBCC
:102230004C0324FA03F404F00704B4F1040C06D2AE
:102240000EEB840CBDE810404CF0010C6047DFE859
:102250000CF0070802024FF00040A0F5800010BD0E
:102260000846420018BFD2F1807288BF00F00040DB
:1022700010BD4FF04070E1EE100A7047FF2141EAB7
:10228000D050C0057047FEF780B904000008000078
:1022900000000000000200010000100002400000E9
:1022A000000000A00000000005400000000000C881
:1022B000000000000C4000000000409C00000000F6
:1022C000194000000020BCBE0000000034400000A7
:1022D000BFC91B8E00000004B5400000504BCFD09A
:1022E0006607E2CF010000006C4100003E8251AA67
:1022F000DFEEA73401000000D9420000DCB5A0E207
:102300003A301F97FFFFFFFFB4450000FD25A0C82E
:10231000E9A3C14FFFFFFFFFFF3F00000000008067
:1023200000000000FF3F00000000008000000000EF
:102330006C2300080000002004000000C401000815
:10234000702300080400002064060000E00100087B
:102350001C00000043000000F8FFFFFF0C0000001D
:102360000E0000000F0000002E0000000000000022
:040000050800018965
:00000001FF
