:020000040800F2
:1000000068040020CD010008D1010008D3010008D8
:10001000D5010008D7010008D90100080000000040
:10002000000000000000000000000000DB010008EC
:10003000DD01000800000000DF010008E101000808
:10004000E3010008E3010008E3010008E301000800
:10005000E3010008E3010008E3010008E3010008F0
:10006000E3010008E3010008E3010008E3010008E0
:10007000E3010008E3010008E3010008E3010008D0
:10008000E3010008E3010008E3010008E3010008C0
:10009000E3010008E3010008E3010008E3010008B0
:1000A000E3010008E3010008E3010008E3010008A0
:1000B000E3010008E3010008E3010008E301000890
:1000C000E3010008E3010008E3010008E301000880
:1000D000E3010008E3010008E3010008E301000870
:1000E000E3010008E3010008E3010008E301000860
:1000F000E3010008E3010008E3010008E301000850
:10010000E3010008E3010008E3010008E30100083F
:10011000E3010008E3010008E3010008E30100082F
:10012000E3010008E3010008E3010008E30100081F
:1001300000F002F800F03AF80AA090E8000C8244BF
:100140008344AAF10107DA4501D100F02FF8AFF29C
:10015000090EBAE80F0013F0010F18BFFB1A43F0A5
:1001600001031847D4040000F4040000103A24BF2F
:1001700078C878C1FAD8520724BF30C830C144BF0C
:1001800004680C607047000000230024002500264E
:10019000103A28BF78C1FBD8520728BF30C148BFEA
:1001A0000B6070471FB51FBD10B510BD00F02DF8D6
:1001B0001146FFF7F7FF00F085F900F04BF803B4A4
:1001C000FFF7F2FF03BC00F03BF9000008480047CE
:1001D000FEE7FEE7FEE7FEE7FEE7FEE7FEE7FEE7F7
:1001E000FEE7FEE703480449024A044B704700005B
:1001F0003101000868000020680400206800002029
:1002000070477047704770477047754600F02CF88C
:10021000AE4605006946534620F00700854618B0F3
:1002200020B5FFF7DFFFBDE820404FF000064FF09C
:1002300000074FF000084FF0000B21F00701AC461B
:10024000ACE8C009ACE8C009ACE8C009ACE8C0093A
:100250008D46704710B50446AFF300802046BDE8D8
:100260001040FFF7ACBF00000048704704000020BA
:100270004AF6AA200149086070470000003000409B
:1002800045F25552054B1A601A46506091604AF685
:10029000AA221A604CF6CC421A6070470030004027
:1002A0001748806940F04000154988610846806918
:1002B00040F0040088611348006820F47F20114951
:1002C00008600846006840F4082008600D480C30BB
:1002D000006840F018000B490C3108600A480068BB
:1002E00020F00F00084908600846006840F0080048
:1002F000086005480C30006803490C3108607047FD
:1003000000100240001801400008014010B5002410
:1003100027480078002837D02648006800F0010000
:1003200048B925480068C0F3001020B12248006891
:10033000C0F3C00008BB0A2000F0A2F81D48006806
:1003400000F0010048B91C480068C0F3001020B15B
:1003500019480068C0F3C00078B90020144908703B
:1003600015480068C0F3001008B901240CE01248D9
:100370000068C0F3C00008B9022405E00D48006819
:1003800000F0010000B103240A48006800F00100F9
:1003900060B909480068C0F3001038B10648006829
:1003A000C0F3C00010B1012001490870204610BD03
:1003B0000000002008080140081801401848806922
:1003C00040F00800164988610846806940F0400006
:1003D00088611448006820F47000124908600846DB
:1003E000006840F4401008600F48006820F4700076
:1003F0000D4908600846006840F44010086009484C
:100400000C30006840F0200006490C3108600648B6
:100410000C30006840F0200003490C310860704740
:1004200000100240000C01400018014000204FF075
:10043000E02108610846006920F004000861704767
:1004400000BF7047FF214FF0E022916142F2283156
:10045000414351611146096941F00101116100BF39
:100460004FF0E021096901F480310029F8D04FF004
:10047000E021096921F001014FF0E022116170478C
:1004800030B503460025B3F5E96F03DC1846FFF7E6
:10049000D9FF15E004E0A3F5E96083B2681C85B2DA
:1004A000B3F5E96FF7DA002405E04FF4E960FFF7F0
:1004B000C9FF601C84B2AC42F7DB1846FFF7C2FFED
:1004C00030BD00000024092000F07EF8FFF7AEFFE9
:1004D000FFF774FFFFF7E4FE40F253710420FFF7CB
:1004E000CFFE4FF47A70FFF7CBFF0748006820F08B
:1004F00020000549086005E0FFF708FF04460CB13D
:10050000FFF7B6FEF8E700000C0C014010B50246FC
:1005100000210020264B1B6843F48033244C2360C9
:100520000AE000BF224B1B6803F400331BB1B1F596
:10053000004F00D904E0491C4FF6F0739942F0D304
:1005400000BF4FF6F073994201D301202FE04FF422
:100550008063174C6360921E23465B6843EA8243C4
:10056000636023465B6843F4803363601023114C5F
:10057000236023461B6843F0020323600C4B1B6877
:1005800043F080730A4C236000BF094B1B685B0E6D
:10059000002BFAD0064B5B6843F00203044C636007
:1005A00000BF034B5B68C3F38103022BF9D110BD7D
:1005B00000100240002002404A0A52020243014B4E
:1005C0001A60704708ED00E010B504460020174996
:1005D0000861C8601420486100208861C86108462D
:1005E000006840F001000860084640681049084073
:1005F0000E494860084600680E4908400B490860EB
:100600000846006820F4802008600846406820F40E
:10061000FE0048604FF41F0088602046FFF776FF19
:1006200000214FF00060FFF7C7FF10BD001002402F
:100630000000FFF8FFFFF6FE58060008000000204B
:10064000040000006C0100085C06000804000020A3
:0C065000640400008801000801000000A4
:0400000508000131BD
:00000001FF
