:020000040800F2
:1000000068140020D5010008D9010008DB010008B0
:10001000DD010008DF010008E10100080000000028
:10002000000000000000000000000000E3010008E4
:10003000E501000800000000E7010008E9010008F0
:10004000EB010008EB010008EB010008EB010008E0
:10005000EB010008EB010008EB010008EB010008D0
:10006000EB010008EB010008EB010008EB010008C0
:10007000EB010008EB010008EB010008EB010008B0
:10008000EB010008EB010008EB010008EB010008A0
:10009000EB010008EB010008EB010008EB01000890
:1000A000EB010008EB010008EB010008EB01000880
:1000B000EB010008EB010008EB010008EB01000870
:1000C000EB010008EB010008EB010008EB01000860
:1000D000EB010008EB010008EB010008EB01000850
:1000E000EB010008EB010008EB010008EB01000840
:1000F000EB010008EB010008EB010008EB01000830
:10010000EB010008EB010008EB010008EB0100081F
:10011000EB010008EB010008EB010008EB0100080F
:10012000EB010008EB010008EB010008EB010008FF
:1001300000F002F800F03FF80AA090E8000C8244BA
:100140008344AAF10107DA4501D100F034F8AFF297
:10015000090EBAE80F0013F0010F18BFFB1A43F0A5
:1001600001031847D4080000F4080000103A24BF27
:1001700078C878C1FAD8520724BF30C830C144BF0C
:1001800004680C607047000000230024002500264E
:10019000103A28BF78C1FBD8520728BF30C148BFEA
:1001A0000B607047732900F0D780002070471FB59F
:1001B0001FBD10B510BD00F001F91146FFF7F7FFA4
:1001C00000F066FB00F01FF903B4FFF7F2FF03BC79
:1001D00000F04DFB08480047FEE7FEE7FEE7FEE7BC
:1001E000FEE7FEE7FEE7FEE7FEE7FEE70348044919
:1001F000024A044B704700003101000868100020DB
:100200006814002068100020704700000FB40449F3
:1002100010B503AA029800F0A3F810BC5DF814FB17
:10022000000000202DE9F0410E4604460020206227
:100230002046E168884730B3252805D0D4E901215C
:100240009047206A401CF2E7E16820460027884773
:10025000050018D0A5F14100192802D820354FF427
:1002600000673246294620462760FFF79BFF40B1D2
:10027000012804D0F61D26F007060836D8E7361DFB
:10028000D6E72846DAE7206ABDE8F08170B50C466B
:100290000546012A05D02878800600D5EA690023A2
:1002A00002E0012305E05B1C934202D2E05C0028DF
:1002B000F9D1A869E618C01AA861286A184428620A
:1002C0002846AFF3008004E0D5E9012114F8010BC2
:1002D0009047B442F8D32846AFF3008070BD4FF08A
:1002E000000200B5134694469646203922BFA0E886
:1002F0000C50A0E80C50B1F12001BFF4F7AF090792
:1003000028BFA0E80C5048BF0CC05DF804EB890082
:1003100028BF40F8042B08BF704748BF20F8022BC5
:1003200011F0804F18BF00F8012B704770477047DD
:100330007047704710B5436913B1AFF3008001E017
:10034000FFF7A4FF012010BD127800F124010A700C
:1003500000224A700122EDE711684FF0FF32E9E711
:10036000074B70B50D467B4400F011F80446284653
:1003700000F020F810B14FF0FF3070BD204670BD86
:100380000B05000001694A1C02610878704700B53E
:100390008FB0CDE901310021059105497944CDE9BE
:1003A000031011466846FFF73DFF0FB000BD000087
:1003B000E5FFFFFF007B00F080007047754600F00E
:1003C0002BF8AE4605006946534620F007008546E7
:1003D00018B020B5FFF70AFFBDE820404FF0000637
:1003E0004FF000074FF000084FF0000B21F007011D
:1003F000AC46ACE8C009ACE8C009ACE8C009ACE860
:10040000C0098D46704710B50446AFF30080204602
:10041000BDE81040FFF7D8BE004870470410002028
:100420002648806940F00800244988612448006813
:10043000C0F31300224908600846006821490843B8
:100440001F4908601E480830006840F460401C499D
:10045000083108601948C06940F480401749C861F4
:10046000194800686FF30F001749086008460068D4
:1004700040F4007008600846006840F4807008602E
:100480000846006808600846006840F004000860FC
:10049000081D006820F0FF00091D08600A481C3094
:1004A00000686FF30B0008491C31086006480068BB
:1004B00040F040000449086070470000001002400E
:1004C000040C01400000B0BB0038004000BF0A49E6
:1004D000096801F002010029F9D00749091D0860E7
:1004E00000BF0549096801F001010029F9D002495E
:1004F000091D0968C8B270470838004000204FF055
:10050000E02108610846006920F004000861704796
:100510002249896941F00401204A91612049096812
:1005200021F47F611E4A11601146096841F4966109
:1005300011601C49496821F004011A4A51601749A9
:10054000C96841F48041154AD1601146C96821F457
:100550008041D1601146896941F48041916112491D
:10056000096821F48051104A11601146096841F070
:100570000C011160111D096821F44051121D116018
:100580000A49B1FBF0F1084A121F1160111D0968F8
:1005900041F40051121D116070470000001002402C
:1005A00004080140000001400C38014000A24A0448
:1005B00010B50E48806940F008000C4988610C486D
:1005C000006820F470200A4908600846006840F47A
:1005D0004030086006480830006840F48050044904
:1005E00008310860FFF71CFF10BD0000001002403A
:1005F000040C014070B506460C46154600F000F9A3
:100600000E48006820F480500C4908600220FFF773
:100610005DFF304600F080F804E02878FFF756FFD1
:100620006D1C641E002CF8D10448006840F4805012
:100630000249086000F07EF870BD00000C0C01401B
:1006400070B506460C4615460D48006820F48050EB
:100650000B4908600320FFF739FF304600F05CF8D3
:1006600005E0FF20FFF732FF28706D1C641E002C90
:10067000F7D10348006840F480500149086070BD1C
:100680000C0C014070B5044600250026012C04D056
:10069000022C04D0032C06D103E0052605E0352604
:1006A00003E0152601E0052600BF00BF0A480068E8
:1006B00020F48050084908603046FFF707FFFF200C
:1006C000FFF704FF05460448006840F480500249E3
:1006D0000860284670BD00000C0C014010B50446AF
:1006E00000F08EF800F026F80A48006820F48050E8
:1006F000084908602020FFF7E9FE204600F00CF8CA
:100700000448006840F480500249086000F012F884
:1007100010BD00000C0C014010B50446C4F30740A6
:10072000FFF7D4FEC4F30720FFF7D0FEE0B2FFF7D7
:10073000CDFE10BD10B500BF0120FFF7A3FF00F0F4
:1007400001000028F8D110BD2DE9F05F07460E46E4
:100750009146DFF8A8B04FEA1738C7F30B0ACAF57D
:100760008054A64200DC344644E04FEA08305A4642
:100770004FF48051FFF764FF002508E00AEB050005
:100780001BF80000FF2800D003E0681C85B2A542DA
:10079000F4DB00BFA54216DA4046FFF79FFF0025B5
:1007A00007E019F8050005EB0A010BF80100681CC9
:1007B00085B2A542F5DB4FEA08305A464FF4805126
:1007C00000F032F804E04A462146384600F02CF8A2
:1007D000A64200D10FE008F101084FF0000AA14441
:1007E0002744301B86B2B6F5805F02DD4FF480549B
:1007F00000E03446B9E700BFBDE8F09F04000020E8
:1008000010B50848006820F48050064908600620AA
:10081000FFF75CFE0348006840F48050014908601F
:1008200010BD00000C0C01402DE9F04106460C46BD
:100830001746F0B2C0F58075AC4200DC254612E0E8
:100840003A4629463046FFF7D5FEAC4200D10BE0D0
:100850002F442E44601B84B2B4F5807F02DD4FF438
:10086000807500E02546EBE700BFBDE8F08100BFE2
:100870007047000000BF054A126802F04002002ADB
:10088000F9D0C2B2014B1B1D1A60704700380140FD
:100890008CB014A30FCBCDE90A23CDE908012021A8
:1008A0006846FFF71CFD092000F08EF8FFF726FED2
:1008B0004FF4E130FFF72CFEFFF77AFE08AA102173
:1008C0000020FFF741FF6A4610210020FFF7B8FE25
:1008D00008A908A0FFF79AFC694609A0FFF796FC53
:1008E00000BFFEE76173643132333435363738394F
:1008F0007A786300737472A3BA25730D0A0000003E
:10090000617272A3BA25730D0A00000010B5024689
:1009100000210020264B1B6843F48033244C2360C5
:100920000AE000BF224B1B6803F400331BB1B1F592
:10093000004F00D904E0491C4FF6F0739942F0D300
:1009400000BF4FF6F073994201D301202FE04FF41E
:100950008063174C6360921E23465B6843EA8243C0
:10096000636023465B6843F4803363601023114C5B
:10097000236023461B6843F0020323600C4B1B6873
:1009800043F080730A4C236000BF094B1B685B0E69
:10099000002BFAD0064B5B6843F00203044C636003
:1009A00000BF034B5B68C3F38103022BF9D110BD79
:1009B00000100240002002404A0A52020243014B4A
:1009C0001A60704708ED00E010B504460020174992
:1009D0000861C8601420486100208861C861084629
:1009E000006840F00100086008464068104908406F
:1009F0000E494860084600680E4908400B490860E7
:100A00000846006820F4802008600846406820F40A
:100A1000FE0048604FF41F0088602046FFF776FF15
:100A200000214FF00060FFF7C7FF10BD001002402B
:100A30000000FFF8FFFFF6FE580A00080000002043
:100A4000040000006C0100085C0A0008040000209B
:0C0A500064140000880100080000000091
:0400000508000131BD
:00000001FF
