:020000040800F2
:10000000780400202902000837020008390200089D
:100010003B0200083D0200083F020008000000000B
:100020000000000000000000000000004102000885
:1000300043020008000000004502000847020008D3
:100040004902000849020008490200084902000864
:100050004902000849020008490200084902000854
:100060004902000849020008490200084902000844
:100070004902000849020008490200084902000834
:100080004902000849020008490200084902000824
:100090004902000849020008490200084902000814
:1000A0004902000849020008490200084902000804
:1000B00049020008490200084902000849020008F4
:1000C00049020008490200084902000849020008E4
:1000D00049020008490200084902000849020008D4
:1000E00049020008490200084902000849020008C4
:1000F00049020008490200084902000849020008B4
:1001000049020008490200084902000849020008A3
:100110004902000849020008490200084902000893
:100120004902000849020008490200084902000883
:100130004902000849020008490200084902000873
:100140004902000849020008490200084902000863
:100150004902000849020008490200084902000853
:100160004902000849020008490200084902000843
:100170004902000849020008490200080000000086
:10018000490200084902000800F002F800F03CF8BB
:100190000AA090E8000C82448344AAF10107DA45E2
:1001A00001D100F031F8AFF2090EBAE80F0013F0F8
:1001B000010F18BFFB1A43F001031847E80D0000B8
:1001C000080E0000103A24BF78C878C1FAD8520748
:1001D00024BF30C830C144BF04680C6070470000C1
:1001E0000023002400250026103A28BF78C1FBD840
:1001F000520728BF30C148BF0B6070471FB500F0E1
:10020000CBFE1FBD10B510BD00F070F81146FFF712
:10021000F5FF00F0C1FD00F0A2F803B4FFF7F2FF14
:1002200003BC00F068FD00000B48016841F4700158
:1002300001600A480047FEE7FEE7FEE7FEE7FEE74B
:10024000FEE7FEE7FEE7FEE7FEE70000044805499B
:10025000034A054B7047000088ED00E08901000863
:10026000780000207804002078000020704700000B
:100270000FB4044910B503AA029800F009F810BCA5
:100280005DF814FB0000002070477047704770470E
:10029000074B70B50D467B4400F011F80446284624
:1002A00000F020F810B14FF0FF3070BD204670BD57
:1002B000E30A000001694A1C02610878704700B532
:1002C0008FB0CDE901310021059105497944CDE98F
:1002D00003101146684600F02EF80FB000BD000074
:1002E000E5FFFFFF007B00F080007047754600F0DF
:1002F0003FF8AE4605006946534620F007008546A4
:1003000018B020B5FFF7A2FFBDE820404FF000066F
:100310004FF000074FF000084FF0000B21F00701ED
:10032000AC46ACE8C009ACE8C009ACE8C009ACE830
:10033000C0098D4670472DE9F04106460024D6E9F4
:100340000170F5688046304603E04146B847641CBA
:100350003046A8470028F8D12046BDE8F08110B506
:100360000446AFF300802046BDE81040FFF755BFBC
:10037000004870471400002000B58248006840F033
:100380007A00804908607F480830006840F001002A
:100390007C49083108607C48006820F040407A4978
:1003A00008600846006840F080400860081D00684A
:1003B00020F40040091D0860081D006840F040401E
:1003C000091D086071480068714908406F4908605C
:1003D000084600686F4908436C490860081D0068BA
:1003E0004CF2337188436949091D0860081D006893
:1003F0006749C94308436549083108600C224CF23B
:100400003371624800F040FC63480068C0F30D009F
:100410006149086008460068604908435E49086011
:10042000084640684FF6807188435B49486008463B
:1004300080685B490843584988600C224FF68071F8
:10044000554800F021FC5748006820F0407055499D
:1004500008600846006840F000700860081D0068E9
:1004600020F48050091D0860081D006840F04070AD
:10047000091D08604B48406A20F4702149484162D8
:10048000406A40F44021474841624748006820F0F4
:100490004070454908600846006840F000700860F8
:1004A000081D006820F48050091D0860081D0068C0
:1004B00040F04070091D08603B48406A20F47021FC
:1004C00039484162406A40F44021374841622E4831
:1004D0001430006820F400402B49143108600020DB
:1004E000C9068861C861314908604FF020408069C1
:1004F00040F480404FF0204188610846806940F414
:10050000805088610846806940F010008861084684
:10051000806920F0020088610846C06920F04050E0
:10052000C8610846C06940F47050C8610846C06997
:1005300020F0F000C8610846C06940F00F00C861B3
:100540000846D0F81C0120F04050C1F81C010846B4
:10055000D0F81C0140F40060C1F81C010846D0F836
:100560001C0120F0F000C1F81C010846D0F81C0165
:1005700040F00900C1F81C010846806940F0010004
:10058000886100BD3038024000040240000C024087
:10059000F0F0C00F0A0A2AA0001002400080AAAAA8
:1005A00000C0FFFF00140240001802401C0100A020
:1005B00030B504460A4800880949498800FB01F51E
:1005C0000021084600F0FEF9054800890549088029
:1005D00003E00448801C04806D1E002DF9D130BD5D
:1005E000040000207E00006C10B5044644B90020D1
:1005F0000D498871F02008804FF4A070488007E012
:100600000120094988714FF4A0700880F0204880CB
:100610002C20054908812A2048812B208881002030
:1006200000F034F910BD00000400002010B5FFF701
:10063000A3FE322000F061FB42F27D4091498880A8
:10064000CF2000F015FB002000F018FBC12000F0C7
:1006500015FB302000F012FBED2000F009FB6420B8
:1006600000F00CFB032000F009FB122000F006FB59
:10067000812000F003FBE82000F0FAFA852000F06A
:10068000FDFA102000F0FAFA7A2000F0F7FACB20F9
:1006900000F0EEFA392000F0F1FA2C2000F0EEFA2A
:1006A000002000F0EBFA342000F0E8FA022000F01D
:1006B000E5FAF72000F0DCFA202000F0DFFAEA206B
:1006C00000F0D6FA002000F0D9FA002000F0D6FAA7
:1006D000C02000F0CDFA1B2000F0D0FAC12000F0BD
:1006E000C7FA012000F0CAFAC52000F0C1FA302094
:1006F00000F0C4FA302000F0C1FAC72000F0B8FAC8
:10070000B72000F0BBFA362000F0B2FA482000F023
:10071000B5FA3A2000F0ACFA552000F0AFFAB1205B
:1007200000F0A6FA002000F0A9FA1A2000F0A6FABC
:10073000B62000F09DFA0A2000F0A0FAA22000F0F6
:100740009DFAF22000F094FA002000F097FA26209B
:1007500000F08EFA012000F091FAE02000F088FA13
:100760000F2000F08BFA2A2000F088FA282000F0F1
:1007700085FA082000F082FA0E2000F07FFA0820A7
:1007800000F07CFA542000F079FAA92000F076FA03
:10079000432000F073FA0A2000F070FA0F2000F0F6
:1007A0006DFA002000F06AFA002000F067FA0020DD
:1007B00000F064FA002000F061FAE12000F058FA3D
:1007C000002000F05BFA152000F058FA172000F026
:1007D00055FA072000F052FA112000F04FFA0620D7
:1007E00000F04CFA2B2000F049FA562000F046FAAF
:1007F0003C2000F043FA052000F040FA102000F001
:100800003DFA0F2000F03AFA3F2000F037FA3F207F
:1008100000F034FA0F2000F031FA2B2000F028FA13
:10082000002000F02BFA002000F028FA012000F050
:1008300025FA3F2000F022FA2A2000F019FA0020C1
:1008400000F01CFA002000F019FA002000F016FA5F
:10085000EF2000F013FA112000F00AFA782000F0DF
:100860006AFA292000F004FA0020FFF7BDFE0648CE
:10087000006840F00100044908604FF6FF70FFF780
:1008800097FE10BD040000201404024030B501465C
:1008900000200023494CA479012C18D1082915D235
:1008A000DFE801F00406080A0C0E101206210DE024
:1008B00007210BE0042109E0052107E0012105E003
:1008C000002103E0032101E0022100BF00BF08294D
:1008D0001CD2DFE801F00406090C0F12151800BF46
:1008E00014E040F0800011E040F040000EE040F0E5
:1008F000C0000BE040F0200008E040F0600005E0A0
:1009000040F0A00002E040F0E00000BF00BF36234E
:1009100040F008002A4C23805C06A4F8800000F018
:1009200020046CB1254C2488244D6D88AC4214DA27
:10093000224C22886488214D2C802C4662800CE059
:100940001E4C24881D4D6D88AC4206DD1B4C228850
:1009500064881A4D2C802C466280184C6489184D8E
:100960002C8000244FF0D845A5F88040A5F88040A1
:10097000124C2488641EC4F30F24A5F880400F4C49
:100980002478641EE4B2A5F880400C4CA4890C4D78
:100990002C800024AD1C2C804FF0D845A5F8804059
:1009A000064C6488641EC4F30F24A5F88040034CF1
:1009B000A478641EE4B2A5F8804030BD0400002095
:1009C0007E00006C0C4A52890C4B1A8002124FF0C8
:1009D000D843A3F88020C2B2A3F88020064A9289A7
:1009E000064B1A800A129B1C1A80CAB24FF0D843D9
:1009F000A3F8802070470000040000207E00006CF7
:100A000008B500200090034800880090BDF8000061
:100A100008BD00008000006C10B50024D3206D4993
:100A20000880FFF7EDFF0446FFF7EAFF0446FFF7F3
:100A3000E7FF04464FF6FF7000EA0424FFF7E0FFEB
:100A4000044349F2413084427ED004206149088049
:100A5000FFF7D6FF0446FFF7D3FF0446FFF7D0FFAA
:100A600004464FF6FF7000EA0424FFF7C9FF044371
:100A700048F25250844201D147F2897447F289709A
:100A8000844270D0D42053490880FFF7B9FF044650
:100A9000FFF7B6FF0446FFF7B3FF04464FF6FF70BB
:100AA00000EA0424FFF7ACFF044345F2103084420F
:100AB00059D04FF470404749088055204FF0D84135
:100AC000A1F880004FF2010042490880AA20891C49
:100AD00008804FF20200891E08805220891C08807D
:100AE0004FF20300891E08800820891C08804FF2FD
:100AF0000400891E08800120891C08804FF44540AD
:100B00004FF0D841A1F87E00FFF77AFF04464FF678
:100B1000FF7000EA04244CF201504FF0D841A1F8D4
:100B20007E00FFF76DFF0443052000F004F945F255
:100B30001050844217D0A12026490880FFF760FF9B
:100B40000446FFF75DFF00E00DE004464FF6FF703E
:100B500000EA0424FFF754FF044345F26170844225
:100B600001D141F6631445F21051601A8C4222D033
:100B70000BDCA4F5C850A0F1630000281FD0A0F53D
:100B80006450AD3800281ED111E0A0F50850793826
:100B900028B1A0F5D850B838002814D103E00EA031
:100BA000FFF766FB13E011A0FFF762FB0FE015A053
:100BB000FFF75EFB0BE019A0FFF75AFB07E01DA053
:100BC000FFF756FB03E021A0FFF752FB00BF00BF79
:100BD000204610BD7E00006C4C4344C6C1D0CDBA47
:100BE000C5A3BA5354373738390D0A004C4344C6AD
:100BF000C1D0CDBAC5A3BA494C49393334310D0AF5
:100C0000000000004C4344C6C1D0CDBAC5A3BA4EC3
:100C10005433353331300D0A000000004C4344C6D4
:100C2000C1D0CDBAC5A3BA4E5433353531300D0AD3
:100C3000000000004C4344C6C1D0CDBAC5A3BA538E
:100C40005344313936330D0A00000000C3BBD3D002
:100C50004C4344C6C1BBF2CAB9D3C3C1CBCEB4D690
:100C6000AAD0CDBAC5B5C44C4344C6C10D0A0000D4
:100C700001490880704700007E00006C014908802F
:100C8000704700008000006CF0B503460C46002160
:100C900024E00846012585402540EDB1C61003F14A
:100CA000200555F826504607F70E0F26BE40B543DF
:100CB000C71003F1200646F82750C61003F120059F
:100CC00055F826504607F60E02FA06F63543C710C9
:100CD00003F1200646F827504D1CE9B21029D8DB55
:100CE000F0BD00204FF0E02108610846006920F0C7
:100CF00004000861704700BF7047FF214FF0E022F9
:100D0000916145F20821414351611146096941F061
:100D10000101116100BF4FF0E021096901F4803148
:100D20000029F8D04FF0E021096921F001014FF0CE
:100D3000E0221161704730B50346002540F21E30B5
:100D4000834203DC1846FFF7D8FF16E004E0A3F265
:100D50001E3083B2681CC5B240F21E308342F6DA00
:100D6000002405E040F21E30FFF7C7FF601CC4B24C
:100D7000AC42F7DB1846FFF7C0FF30BD00BF054AA5
:100D8000126802F04002002AF9D0C2B2014B5A6048
:100D900070470000001001400723022208214FF491
:100DA000A87000F0D9F8FFF79CFFFFF73FFC322056
:100DB000FFF7C1FFFFF730FE00BFFEE7F0B50446C6
:100DC0000D460021002000265C4F3F6847F4803725
:100DD000DFF868C1CCF8007000E0491C574F3F684D
:100DE00007F400371FB947F6FF77B942F5D347F646
:100DF000FF77B94201D101209EE0504F40373F6854
:100E000047F08057DFF834C10CF1400CCCF800708B
:100E10004B4F3F6847F44047DFF824C1CCF80070DF
:100E2000464F3F1D3F6805F03F0C47EA0C07DFF8CF
:100E30000CC10CF1040CCCF8007067463F6847EA1F
:100E40008417CCF8007067463F684FF0010CCCEB7C
:100E5000520C47EA0C47DFF8E4C00CF1040CCCF864
:100E6000007067463F6847EA0367CCF80070674642
:100E70003F6847F48007CCF800700CF104073F6826
:100E80000CF1040CCCF8007067463F6847F4A0579B
:100E9000CCF8007067463F6847F40047CCF8007014
:100EA000264F3F6847F08077DFF890C0CCF800709D
:100EB000002105E0491CB1F5001F01D3022005E027
:100EC0001E4F3F6807F00077002FF3D000BF1D4F83
:100ED0003F6847F48077DFF86CC0CCF80070674655
:100EE0003F6847F40077CCF8007067463F6847F4E6
:100EF0008067CCF8007067463F6847F00507CCF87C
:100F000000700E4F08373F6847F00207DFF82CC02B
:100F10000CF1080CCCF8007000210AE0074F0837EC
:100F20003F68C7F38106491CB1F5001F01D30420B7
:100F300001E0032EF2D100BFF0BD000000380240F6
:100F400000700040003C02404A0A52020243014B3A
:100F50001A60704708ED00E0F0B504460D461646ED
:100F60001F4601200B49086000200A49083108602B
:100F7000091F086007490C3108603B463246294684
:100F80002046FFF71BFF00214FF00060FFF7DCFF5A
:100F9000F0BD0000003802404FF04070E1EE100A52
:100FA00070470000C40F000800000020040000008B
:100FB000C4010008C80F00080400002074040000E9
:080FC000E00100080000000040
:040000050800018965
:00000001FF
