:020000040800F2
:1000000030050020D5010008D9010008DB010008F7
:10001000DD010008DF010008E10100080000000028
:10002000000000000000000000000000E3010008E4
:10003000E501000800000000E7010008E9010008F0
:10004000EB010008EB010008EB010008EB010008E0
:10005000EB010008EB010008EB010008EB010008D0
:10006000EB010008EB010008EB010008EB010008C0
:10007000EB010008EB010008EB010008EB010008B0
:10008000EB010008EB010008EB010008EB010008A0
:10009000EB010008EB010008EB010008EB01000890
:1000A000EB010008EB010008EB010008EB01000880
:1000B000EB010008EB010008EB010008EB01000870
:1000C000EB010008EB010008EB010008EB01000860
:1000D000EB010008E9030008EB010008EB01000850
:1000E000EB010008EB010008EB010008EB01000840
:1000F000EB010008EB010008EB010008EB01000830
:10010000EB010008EB010008EB010008EB0100081F
:10011000EB010008EB010008EB010008EB0100080F
:10012000EB010008EB010008EB010008EB010008FF
:1001300000F002F800F03FF80AA090E8000C8244BA
:100140008344AAF10107DA4501D100F034F8AFF297
:10015000090EBAE80F0013F0010F18BFFB1A43F0A5
:1001600001031847D8050000F8050000103A24BF25
:1001700078C878C1FAD8520724BF30C830C144BF0C
:1001800004680C607047000000230024002500264E
:10019000103A28BF78C1FBD8520728BF30C148BFEA
:1001A0000B607047732900F0B080002070471FB5C6
:1001B0001FBD10B510BD00F0DBF81146FFF7F7FFCB
:1001C00000F008FA00F0F9F803B4FFF7F2FF03BCFF
:1001D00000F0F0F908480047FEE7FEE7FEE7FEE71B
:1001E000FEE7FEE7FEE7FEE7FEE7FEE70348044919
:1001F000024A044B70470000310100083001002022
:100200003005002030010020704700000FB4044981
:1002100010B503AA029800F07DF810BC5DF814FB3D
:10022000040000202DE9F0410E4604460020206223
:100230002046E168884730B3252805D0D4E901215C
:100240009047206A401CF2E7E16820460027884773
:10025000050018D0A5F14100192802D820354FF427
:1002600000673246294620462760FFF79BFF40B1D2
:10027000012804D0F61D26F007060836D8E7361DFB
:10028000D6E72846DAE7206ABDE8F08170B50C466B
:100290000546012A05D02878800600D5EA690023A2
:1002A00002E0012305E05B1C934202D2E05C0028DF
:1002B000F9D1A869E618C01AA861286A184428620A
:1002C0002846AFF3008004E0D5E9012114F8010BC2
:1002D0009047B442F8D32846AFF3008070BD704712
:1002E00070477047704710B5436913B1AFF3008092
:1002F00001E0FFF7CBFF012010BD127800F12401CF
:100300000A7000224A700122EDE711684FF0FF32B7
:10031000E9E70000074B70B50D467B4400F011F88B
:100320000446284600F020F810B14FF0FF3070BDB1
:10033000204670BD9B02000001694A1C02610878DA
:10034000704700B58FB0CDE9013100210591054915
:100350007944CDE9031011466846FFF763FF0FB0FB
:1003600000BD0000E5FFFFFF007B00F0800070474C
:10037000754600F02BF8AE4605006946534620F05E
:100380000700854618B020B5FFF730FFBDE82040D4
:100390004FF000064FF000074FF000084FF0000B41
:1003A00021F00701AC46ACE8C009ACE8C009ACE8F4
:1003B000C009ACE8C0098D46704710B50446AFF3DC
:1003C00000802046BDE81040FFF7FEBE00487047A1
:1003D000D000002000204FF0E021086108460069AD
:1003E00020F004000861704710B51648006800F05E
:1003F000200088B11348001D0068C1B2124802787D
:100400000078401C104B1870104881540D4800684B
:1004100020F020000B4908600A48006800F0100036
:1004200070B10A490AA0FFF7F1FE002006490870E2
:100430000448006820F0100002490860081D0068A8
:1004400010BD00000038014000000020080000201E
:10045000257300002DE9F04103464F48806940F0C4
:1004600004004D4988614D48006820F47F604B4985
:1004700008600846006840F4966008604848406894
:1004800020F00400464948604348C06840F480407A
:100490004149C8600846C06820F48040C8600846EA
:1004A000806940F4804088613E48006820F48050B4
:1004B0003C4908600846006840F00C0008600846A7
:1004C000006840F0200008600846006840F0100016
:1004D0000860081D006820F44050091D086032487B
:1004E000B0FBF3F02F49091F0860052001242546C1
:1004F0000146C1F1070CBCF1040F02D94FF0040C06
:1005000001E0C1F1070C674601F1040CBCF1070FD3
:1005100002D24FF0000C01E0A1F1030C66464FF04F
:10052000010C0CFA07FCACF1010C0CEA040C0CFAFF
:1005300006FC4FF0010808FA06F8A8F1010808EADD
:1005400005084CEA080200BF25211046002904DBFB
:100550000407250E154C655406E00407260E144CBE
:1005600001F00F052D1F665500BF2520002809DB6F
:1005700000F01F040121A1404409A40004F1E0247B
:10058000C4F8001100BF0748006840F40050054956
:100590000860BDE8F081000000100240040801403E
:1005A000000001400C38014000A24A0400E400E0D1
:1005B00018ED00E000BF704700BF054A126802F066
:1005C0004002002AF9D0C2B2014B1B1D1A607047CD
:1005D00000380140092000F079F8052002460A4B56
:1005E00019684FF6FF031940084B0B4343EA0221F9
:1005F000054B196000BFFFF7EDFE4FF4E130FFF748
:1006000029FF00BFFEE700000CED00E00000FA0546
:1006100010B5024600210020264B1B6843F48033AE
:10062000244C23600AE000BF224B1B6803F4003314
:100630001BB1B1F5004F00D904E0491C4FF6F0732F
:100640009942F0D300BF4FF6F073994201D30120D5
:100650002FE04FF48063174C6360921E23465B6863
:1006600043EA8243636023465B6843F480336360FC
:100670001023114C236023461B6843F002032360C0
:100680000C4B1B6843F080730A4C236000BF094B7E
:100690001B685B0E002BFAD0064B5B6843F002032D
:1006A000044C636000BF034B5B68C3F38103022B00
:1006B000F9D110BD00100240002002404A0A520247
:1006C0000243014B1A60704708ED00E010B5044684
:1006D000002017490861C860142048610020886123
:1006E000C8610846006840F001000860084640689C
:1006F000104908400E494860084600680E49084005
:100700000B4908600846006820F48020086008460D
:10071000406820F4FE0048604FF41F0088602046C7
:10072000FFF776FF00214FF00060FFF7C7FF10BD15
:10073000001002400000FFF8FFFFF6FE5C07000813
:1007400000000020080000006C0100086407000899
:1007500008000020280500008801000800000000B3
:040760000000000095
:0400000508000131BD
:00000001FF
