:020000040800F2
:1000000078060020ED010008F1010008F301000866
:10001000F5010008F7010008F901000800000000E0
:10002000000000000000000000000000FB010008CC
:10003000FD01000800000000FF010008A11F0008EA
:10004000030200080302000803020008030200087C
:10005000030200080302000803020008030200086C
:1000600003020008030200083D1300080302000811
:10007000030200080302000803020008030200084C
:10008000030200080302000803020008030200083C
:10009000030200080302000803020008030200082C
:1000A000030200080302000803020008030200081C
:1000B000030200080302000803020008030200080C
:1000C00003020008030200080302000803020008FC
:1000D000030200085D2200085923000803020008FB
:1000E00003020008030200080302000803020008DC
:1000F00003020008030200080302000803020008CC
:1001000003020008030200080302000803020008BB
:1001100003020008030200080302000803020008AB
:10012000030200080302000803020008030200089B
:1001300000F002F800F04AF80AA090E8000C8244AF
:100140008344AAF10107DA4501D100F03FF8AFF28C
:10015000090EBAE80F0013F0010F18BFFB1A43F0A5
:1001600001031847C0280000E0280000103A24BF0F
:1001700078C878C1FAD8520724BF30C830C144BF0C
:1001800004680C607047000000230024002500264E
:10019000103A28BF78C1FBD8520728BF30C148BFEA
:1001A0000B607047662902F0F083642900F07C80C0
:1001B000002070471FB500F02FFB04000020002135
:1001C00002F0ACF9E0601FBD10B510BD00F03CFCC2
:1001D0001146FFF7EFFF02F053F900F05AFC03B4A9
:1001E000FFF7F2FF03BC02F0D7F800000848004711
:1001F000FEE7FEE7FEE7FEE7FEE7FEE7FEE7FEE7D7
:10020000FEE7FEE703480449044A054B7047000037
:1002100031010008780000207806002078020020D4
:1002200078020020704700000FB4044910B503AAFB
:10023000029800F0DFFA10BC5DF814FB000000200B
:100240002DE9F0410E460446002020622046E16878
:10025000884730B3252805D0D4E901219047206A8A
:10026000401CF2E7E168204600278847050018D0C7
:10027000A5F14100192802D820354FF40067324615
:10028000294620462760FFF78DFF40B1012804D0A2
:10029000F61D26F007060836D8E7361DD6E72846AD
:1002A000DAE7206ABDE8F0812DE9F0410646002436
:1002B00010687529314616A510D0AFF300800028CC
:1002C00002DA404213A507E031688A0701D512A57A
:1002D00002E0490704D511A5012401E0AFF3008035
:1002E00000210A2206F1240709E0B0FBF2FCB0FB72
:1002F000F2F302FB1C00303078541846491C0028E9
:10030000F3D123462A463046BDE8F04100F00CB850
:10031000000000002D0000002B0000002000000065
:1003200070477047704770472DE9F0470D46994672
:100330009246044600F124080168880604D5E06965
:1003400021F01001216000E00120A84201DD471BDF
:1003500000E00027A1697A1902EB0900081AA061E0
:100360002078C00602D42046AFF30080002608E0C3
:10037000D4E901211AF806009047206A401C761C37
:1003800020624E45F4DB2078C0060AD52046AFF344
:10039000008006E0D4E9012130209047206A401C0B
:1003A0002062381EA7F10107F4DC07E0D4E901213F
:1003B00018F805009047206A401C2062281EA5F10D
:1003C0000105F3DC2046AFF300802078000602D55B
:1003D0000220BDE8F0870120FBE770472DE9FF4FC1
:1003E0000C461E464FF0FF378BB0D2E90001DDF816
:1003F00060800A908A46C1F30A5505B93D4600213E
:1004000008464FF00000BAF1000F00F4400005DA92
:1004100000EB80004FF4400101EA50004FEA905990
:10042000B9F1010F00DDB9460A9850EA4A000ED032
:1004300044F61050A5F2FF3545432F14B8F1000FD4
:100440001ED07542291E1EDDC9F100021CE0B8F164
:10045000010F4FF0000001D0302103E0F24305E02E
:100460002154401CB042FBDB3046002200212154C5
:100470000B99C1F80880C1E900200FB0BDE8F08FEA
:10048000BD1B6D1CDEE74A4600DA694206A800F093
:1004900065FA06AB93E8070003AB83E80700504614
:1004A0000A9900F03DFB8DE80700A0F500501F38C9
:1004B00000900398002D09DD42F21F014A460844CE
:1004C00003A90390684600F09CFD08E0A0F50050E9
:1004D0004A461F3803A90390684600F0A6FD8DE840
:1004E00007000004000C03D04FF0FF30410800E08B
:1004F0001046B8F1000F03D00022009215461EE00E
:10050000751E05D400F08CF9303262556D1EF9D598
:10051000B3460122084302D000227F1C04E0207869
:10052000302801D100227F1E002A099786D01DE0C5
:10053000112D07DA00F074F9303262556D1C50EA63
:100540000102F5D1084302D00098C8B10EE00021A5
:10055000681E05E0235C625C63542254401E491C03
:100560008142F7DBAB46A81B401E0990002004F82F
:100570000B000B98099AC0F80880C0E9002B7CE7B3
:1005800011264FF0000859E72DE9F04F8846044640
:10059000D21D22F0070191B0D1E90001CDE90A0195
:1005A00001F0E6FE02460B98C00F01D02D2007E0B7
:1005B0002068810701D52B2002E0202101EAC0003C
:1005C000032A099001D0072A05DB0346414620464D
:1005D00000F084F90BE12078800601D5E06900E0A5
:1005E0000620B8F1650F814606D0B8F1660F18D025
:1005F000B8F1670F70D131E00020B9F1110F009010
:1006000001DB112301E009F101030AAA01A90CA8E9
:10061000FFF7E4FEDDE90C70002609F101058346D1
:1006200047E001204B4600904FF000470AAA01A97D
:100630000CA8FFF7D3FEDDE90DB00C995D4600264E
:1006400010B909F101000D18B9EB050003D4C0F190
:10065000FF3609F10105A5EB09002BE0B9F1010F07
:1006600001DA4FF001090020B9F1110F009048465E
:1006700001DD112300E003460AAA01A90CA8FFF737
:10068000ADFEDDE90C704D4600268346207800075C
:100690000AD4AB4500DA5D4601A8012D04DD4119FD
:1006A00011F8011C302907D04F4502DA17F1040F69
:1006B00004DA012082460FE06D1EEEE7002F02DC17
:1006C000ED1B3E4403E0781CA84200DD7D1CB81BF6
:1006D00000F1010A4FF000472078000703D4AA4533
:1006E00001DB4FF0FF3A0021B7F1004F0DF1430855
:1006F0008DF8431024D002202B23002F01DA7F42F3
:100700002D230A21021EA0F1010000DC5FB197FB3E
:10071000F1FC97FBF1F201FB1C7C17460CF1300C4D
:1007200008F801CDEEE7A8F1010003702188090562
:1007300001D5452100E06521A0F1010800F8011C68
:1007400009980FA9A1EB0807FF1D00B1012041196D
:1007500001EBEA70A1693844081A401EA0612078B4
:10076000C00602D42046AFF30080099828B1D4E92E
:1007700001219047206A401C20622078C00622D5C3
:100780002046AFF300801EE0002E04DBB34502DDFF
:1007900001A8805D00E03020D4E901219047206A63
:1007A000401C2062761CAAF101005FEA000A0AD10F
:1007B00000F032F8C0680168405CD4E9012190473C
:1007C000206A401C2062281EA5F10105DCDC07E040
:1007D000D4E9012118F8010B9047206A401C2062DF
:1007E000381EA7F10107F3DC2046AFF30080032099
:1007F00011B043E6074B70B50D467B4400F05BF843
:100800000446284600F018F910B14FF0FF3070BDD3
:10081000204670BD671C000000487047340000206F
:1008200030B5B0F10A024FEA900E71F100034EEAC2
:10083000817EB0EB0E0061EB91014FEA101E4EEA93
:10084000017E10EB0E0041EB11114FEA102E4EEA23
:10085000016E10EB0E0041EB11214FEA104E4EEAF3
:10086000014E10EB0E0041EB1141401841F1000127
:100870004FEAD00040EA41704FEAD10110EB800509
:100880004FEA810444EA907444EB01046D1944EB8F
:100890000404521BA3414FF0000348BF0A3200D5A5
:1008A00030BD401C41F1000130BD000001694A1C0F
:1008B00002610878704700B58FB0CDE901310021A1
:1008C000059105497944CDE9031011466846FFF7C3
:1008D000B7FC0FB000BD0000E5FFFFFF2DE9F041C0
:1008E0001F46044603260168072A01F4006004DB62
:1008F00008B116A505E016A503E008B115A500E0AE
:1009000015A521F010002060A069C01EA0610FB1E4
:10091000401EA0612046AFF300804FB1D4E9012111
:1009200038469047206A401C2062C01C206206E0C6
:10093000206AFAE7D4E9012115F8010B9047761EE9
:10094000F8D22046AFF30080BDE8F0814E414E0062
:100950006E616E00494E4600696E66002DE9F047F3
:10096000814616468AB0334878440DC88DE80D009C
:1009700030487844801C03AC0DC884E80D0041F673
:100980009B300844372190FBF1F290FBF1F5A5F183
:10099000800501FB12041B3C02D56442012000E0EB
:1009A0000020DFF890A080460027FA44AAF1BE0A92
:1009B0000DE0E00709D03246684607EB47010AEB35
:1009C000810100F032FB8DE8070064107F1C002CD1
:1009D000EFD1184F7F44AC3F18E0E80714D007EB85
:1009E00004100DF1180A90E80E008AE80E00C068A5
:1009F000F04201D198190890324606A903A800F0E8
:100A000014FB03AB83E807006D10641C002DE4D1D8
:100A100032466946B8F1000F03A802D000F0F1FA9F
:100A200001E000F002FBC9E90001C9F808200AB0A2
:100A3000BDE8F087A0200000007B00F08000704738
:100A400000487047140000207546FFF7F9FFAE46D6
:100A500005006946534620F00700854618B020B5CA
:100A6000FFF7D0FBBDE820404FF000064FF0000735
:100A70004FF000084FF0000B21F00701AC46ACE846
:100A8000C009ACE8C009ACE8C009ACE8C0098D46B3
:100A900070470446AFF300802046FFF7A0FB00003C
:100AA0004FF0013C50F8042B51F8043B9A4221D1FD
:100AB000A2EB0C03934313EACC1317D150F8042B89
:100AC00051F8043B9A4215D1A2EB0C03934313EA6D
:100AD000CC130BD150F8042B51F8043B9A4209D1A6
:100AE000A2EB0C03934313EACC13DBD04FF00000CE
:100AF000704700BFD01A01BAB1FA81F101F01801B4
:100B000022FA01F0CB40C1F12001DBB2C0B2C01A21
:100B10002CFA01F3D11A914311EAC311E6D17047BF
:100B20005FEA400C08BF91F0000F4FEA8C234FEAB8
:100B3000C12243EA51514FEA1C5018BF00F5F04062
:100B40004FEA300018BF41F000415FEA6C5C00F0F2
:100B50002980BCF1FF3F08BF40F080407047130C74
:100B600006BF12044FF0100C4FF0000C130E04BF20
:100B700012020CF1080C130F04BF12010CF1040C4B
:100B8000930F04BF92000CF1020CD30F04BF52006C
:100B90000CF1010C11464FF00002A0F11F00A0EB78
:100BA0000C00704711F0004F08BF704731F0004152
:100BB0003FF4D5AF0B0C06BF09044FF0100C4FF0FB
:100BC000000C0B0E04BF09020CF1080C0B0F04BF44
:100BD00009010CF1040C8B0F04BF89000CF1020C0D
:100BE000CB0F04BF49000CF1010CCCF12003A0EBAA
:100BF0000C0022FA03F302FA0CF241EA030100F1BD
:100C00000100704720F07F4C80EA030023F07F470B
:100C1000ACEB070303F57C5300F0004003F1FF0346
:100C20002DE980494FEA154B09B44FEA144325EAF0
:100C30000B4E24EA03480FF2042606EB132749085B
:100C40003E785FEA320203FB0667C7F5000707FB41
:100C500006F64FEA54374FEAD64606F1020607FB7E
:100C6000066CCCF1005C4FEA1C472CEA074C07FBF2
:100C700006F40CFB06F504EB15464FEA961634BF56
:100C800000204FF000404FEAD13706FB07FC4FEA47
:100C90001C4C0CFB0BF7D21B03FB0CF761EB0701A1
:100CA0000CFB0EF7B0EB074072EB17420CFB08F79A
:100CB00034BFA2EB0742B2EB074261EB17414FEAA8
:100CC0000C444FEA910706FB07FC4FEA1C4C0CFB57
:100CD0000BF7B0EBC74072EB573203FB0CF734BF96
:100CE000A2EBC742B2EBC74261EB57310CFB0EF7E8
:100CF000B0EBC70072EB57720CFB08F734BFA2EBE6
:100D0000C702B2EBC70261EB5771039F4FEA8161E3
:100D100041EA921104EBCC044FEAD1374FEA8262E8
:100D200006FB07FC42EA90124FEA80604FEA1C4C37
:100D30000CFB0BF7D21B03FB0CF761EB07010CFB61
:100D40000EF7B0EB074072EB17420CFB08F734BF0D
:100D5000A2EB0742B2EB074261EB17414FEA8C5519
:100D60004FEA910704EB9C2406FB07FC4FEA1C4C5E
:100D70000CFB0BF7B0EBC74072EB573203FB0CF7E1
:100D800034BFA2EBC742B2EBC74261EB57310CFB59
:100D90000EF7B0EBC70072EB57720CFB08F734BFCD
:100DA000A2EBC702B2EBC70261EB577115EB4C2502
:100DB0004FEA816141EA92114FEA82624FEAD137EC
:100DC00042EA901206FB07FC44F100044FEA8060FF
:100DD0004FEA1C4C0CFB0BF7D21B03FB0CF761EB2F
:100DE00007010CFB0EF7B0EB074072EB17420CFB50
:100DF00008F734BFA2EB0742B2EB074261EB1741A1
:100E000015EB1C154FEA813141EA92414FEA8232DB
:100E100042EA90424FEA80304FEA0C7644F10004F7
:100E200048EA03434EEA0B484FF0000EB2EB080CC1
:100E300071EB030724BF624639464EEB0E0E4FF0AE
:100E4000000B0018524149414BEB0B0BB2EB080C65
:100E500071EB03077BF1000B24BF624639464EEB72
:100E60000E0E4FF0000B0018524149414BEB0B0B9B
:100E7000B2EB080C71EB03077BF1000B24BF624659
:100E800039464EEB0E0E51EA020718BF46F0010636
:100E900016EB0E7655F1000254F1000103D5BDE8C2
:100EA0008901BDE80088BDE88901BDE80048B619A0
:100EB000524141EB0101A3F10103704780807F7E25
:100EC0007D7C7B7A797877767675747372717170C0
:100ED0006F6E6E6D6C6C6B6A6A6968686766666572
:100EE0006464636362616160605F5F5E5E5D5D5C00
:100EF0005C5B5B5A5A595958585757565655555571
:100F00005454535352525251515050504F4F4F4ED0
:100F10004E4D4D4D4C4C4C4B4B4B4A4A4A4949491E
:100F20004848484747474746464645454544444460
:100F3000444343434342424242414141002B26D471
:100F4000770021D01CB54FEA370703B44FF01000EB
:100F50004FF010014FF000000FBCBDE810400BF146
:100F6000010BBBF1010F08BF5FEA170722BF12F1A7
:100F7000010211F101014FF0004143F1000300F0C3
:100F8000004043EA00007047F9D35708DAE746EA21
:100F9000064613F1400F4FEA16461FDD13F1200FEE
:100FA000DFBF16430A46002120335B42C8D0C3F19D
:100FB000200746EA064602FA07F74FEA164646EACF
:100FC0000706C3F1200722FA03F201FA07F721FA14
:100FD00003F14FF0000342EA0702B1E746EA0206D6
:100FE00046EA06464FEA164646EA0106BCBF46EA0E
:100FF0000646360C4FF000034FF000024FF00001A0
:101000009EE72DE9C048934630B491E8380007C800
:1010100031EA400C48BF34EA430C03D5FFF7F2FD38
:10102000FFF78CFFF0BCBDE800882DE9C04893466F
:1010300030B491E8380007C810F0804F08BF13F0B3
:10104000804F03D100F005F8FFF778FFF0BCBDE852
:10105000008820F07F4780EA030023F07F4C07EBF5
:101060000C03A3F57C5300F00040A3F1FE0392F0C3
:10107000000F00F0B38095F0000F00F077802DE9AD
:1010800001494FEA11404FEA144621EA004800FBAB
:1010900006FC24EA064708FB06F607FB08F800FBF7
:1010A00007F718EB06484CEB164C4FEA124B18EBBF
:1010B00007484FEA15464CEB174022EA0B4E0BFB54
:1010C00006FC25EA06470EFB06F607FB0EFE0BFBA9
:1010D00007F71EEB064E4CEB164C4FF000061EEBCE
:1010E000074E4CEB174B18EB0B0840F1000018EBC8
:1010F0000E0B58EB000840F100008F1A4FF0000172
:101100003CBFC943661B14BFB5EB040C00213CBFB8
:10111000C943F61B4FEA17444EEA8E0E27EA0445F0
:101120004FEA1C4704FB07622CEA074C05FB07F754
:101130000CFB05F604FB0CFC16EB074642EB1742D2
:1011400016EB0C4642EB1C421BEB060658EB020268
:10115000414146EA9E0601D5BDE80189B6195241D2
:1011600041EB0101A3F10103BDE801894FEA1445F8
:101170004FEA114724EA054621EA074C05FB07F42C
:1011800006FB07F70CFB06F105FB0CFC11EB074116
:1011900044EB17444FEA124711EB0C4144EB1C445B
:1011A00022EA074C05FB07F206FB07F70CFB06F6E5
:1011B00005FB0CFC16EB074642EB174216EB0C4600
:1011C00042EB1C456A1854F1000148BF7047B6193C
:1011D000524141EB0101A3F10103704795F0000F6B
:1011E00037D04FEA11424FEA144721EA024624EA77
:1011F000074C02FB07F106FB07F70CFB06F402FBAA
:101200000CFC14EB074441EB17414FEA154714EB74
:101210000C4441EB1C4125EA074C02FB07F506FB99
:1012200007F70CFB06F602FB0CFC16EB074645EB3A
:10123000174516EB0C4645EB1C42121951F1000103
:1012400048BF7047B619524141EB0101A3F10103B8
:1012500070474FEA14454FEA114724EA054621EA50
:10126000074C05FB07F106FB07F70CFB06F24FF0F6
:10127000000605FB0CFC12EB074241EB174112EB99
:101280000C4251EB1C4148BF7047921841EB0101E1
:10129000A3F10103704710B500F072F810BD2DE9FD
:1012A000F04104460E46174600F05CF9A046E117EF
:1012B00004EB11610912A02202EB4101C8B200F057
:1012C00019F900F07BF8054625B100F071F901200D
:1012D000BDE8F081A046E11704EB11610912A4EB0F
:1012E0000121C8B200F006F900F068F805461DB10A
:1012F00000F05EF90220EBE700F034F9A12000F0E5
:10130000F9F800F05BF805461DB100F051F9022034
:10131000DEE70DE000F07EF83870701EC6B21EB930
:10132000012000F0ADF804E0002000F0A9F87F1CD7
:10133000F0E700BF00F03CF92846C9E710B50D48BA
:10134000006800F0100098B10A2001F04DF80A483A
:10135000006800F0100058B90648006840F010001E
:10136000044908600548006880F0200003490860CF
:1013700010BD000014040140081801400C0C01408D
:101380000C48806940F008000A4988610A480068F2
:1013900020F07F40084908600846006840F0E640B9
:1013A000086005480C30006840F0C00002490C316C
:1013B0000860704700100240000C014010B514484E
:1013C000006820F04000124908600846006840F0BC
:1013D00080000860052001F028F80D48006840F002
:1013E00040000B490860081F006800F0800030B121
:1013F0000846006820F040000860012010BD044845
:10140000006820F04000024908600020F6E7000074
:101410000C0C014070B500241848006820F0400012
:10142000164908600846006840F080000860002502
:1014300019E01248006820F040001049086060067A
:10144000040E052000F0F1FF0C48006840F0400059
:101450000A490860081F006800F0800008B144F0E5
:101460000104681CC5B2082DE3DB0448006820F0C5
:10147000400002490860204670BD00000C0C01408D
:1014800010B504461A48006820F04000184908606A
:10149000052000F0CAFF012C0FD11548006840F06C
:1014A000800013490860012000F0BFFF1048006869
:1014B00040F040000E4908600FE074B90C48006825
:1014C00020F080000A490860012000F0AEFF0848C3
:1014D000006840F0400006490860052000F0A5FFC4
:1014E0000348006820F040000149086010BD00007A
:1014F0000C0C014070B50446002528E0184800682F
:1015000020F0400016490860052000F08EFF04F02E
:10151000800030B11248006840F080001049086037
:1015200005E00F48006820F080000D4908600120A8
:1015300000F07BFF0A48006840F04000084908605E
:10154000052000F072FF6006040E681CC5B2082D6D
:10155000D4DB0348006820F040000149086070BDFA
:101560000C0C014010B51148006820F040000F49F4
:1015700008600846006840F080000860084600687F
:1015800040F040000860052000F04FFF0748006869
:1015900020F0800005490860052000F046FF034860
:1015A000006820F040000149086010BD0C0C0140AB
:1015B00010B50E48006820F040000C49086008464D
:1015C000006820F0800008600846006840F0400095
:1015D0000860052000F029FF0448006840F0800002
:1015E00002490860052000F020FF10BD0C0C0140EE
:1015F00010B504464FF496332A2000F029F8002055
:1016000000F0D0F8002000F0CDF8002000F0CAF87B
:10161000EF2000F0C7F82B2000F01AF8002000F0AF
:10162000C1F8002000F0BEF8012000F0BBF840F245
:101630003F1000F0B7F82C2000F00AF804E04FF655
:10164000FF7000F0AFF85B1E002BF8D110BD00005A
:101650005149096841F010014F4A11604F49C9686A
:1016600021F001014D4AD1601146C96821F4805131
:10167000D1604949096821F02001474A116000F012
:10168000010129B11146096841F48041116005E06A
:101690004149096821F480413F4A116000F002018C
:1016A00031B13D49096841F400413B4A116005E010
:1016B0003949096821F40041374A116000F00401FA
:1016C00031B13549096841F00101334A116005E043
:1016D0003149096821F001012F4A116000F0080129
:1016E00031B12D49096841F002012B4A116005E032
:1016F0002949096821F00201274A116000F0100110
:1017000031B12749096841F08001254A116005E09F
:101710002349096821F08001214A116000F020016D
:1017200031B11F49096841F480711D4A116005E01B
:101730001B49096821F48071194A116000F04001C9
:1017400031B11749096841F40071154A116005E08B
:101750001349096821F40071114A116000F08001F9
:1017600031B10F49096841F480610D4A116005E00B
:101770000B49096821F48061094A1160064909682A
:1017800041F02001044A11600449C96841F48051C4
:10179000024AD160704700000C1401400020014053
:1017A0000C1801409149096841F010018F4A1160FD
:1017B0008F49C96841F001018D4AD1601146C9685D
:1017C00021F48051D1608949096821F02001874ABC
:1017D000116000F0010129B11146096841F480410E
:1017E000116005E08149096821F480417F4A116058
:1017F00000F0020131B17D49096841F400417B4AA2
:10180000116005E07949096821F40041774A1160C7
:1018100000F0040131B17549096841F00101734AD2
:10182000116005E07149096821F001016F4A1160FA
:1018300000F0080131B16D49096841F002016B4ABD
:10184000116005E06949096821F00201674A1160E9
:1018500000F0100131B16749096841F08001654A23
:10186000116005E06349096821F08001614A116057
:1018700000F0200131B15F49096841F480715D4A8F
:10188000116005E05B49096821F48071594A1160D3
:1018900000F0400131B15749096841F40071554ADF
:1018A000116005E05349096821F40071514A116043
:1018B00000F0800131B14F49096841F480614D4A1F
:1018C000116005E04B49096821F48061494A1160C3
:1018D00000F4807131B14749096841F40061454A1B
:1018E000116005E04349096821F40061414A116033
:1018F00000F4007131B13F49096841F480513D4A1B
:10190000116005E03B49096821F48051394A1160B2
:1019100000F4806131B13749096841F40051354A1A
:10192000116005E03349096821F40051314A116022
:1019300000F4006131B12F49096841F480412D4A1A
:10194000116005E02B49096821F48041294A1160A2
:1019500000F4805131B12749096841F40041254A1A
:10196000116005E02349096821F40041214A116012
:1019700000F4005131B11D49096841F480711B4ADE
:10198000116005E01949096821F48071174A116056
:1019900000F4804131B11549096841F40071134ADE
:1019A000116005E01149096821F400710F4A1160C6
:1019B00000F4004131B10D49096841F480610B4ADE
:1019C000116005E00949096821F48061074A116046
:1019D0000649096841F02001044A11600449C968B8
:1019E00041F48051024AD160704700000C1401405C
:1019F000002001400C1801404448806940F0080074
:101A0000424988614248006820F00F004049086060
:101A10000846006840F0030008603C48806940F0D8
:101A200020003A4988613B48006800F0FF203949AE
:101A30000860081D0068384908403649091D0860DB
:101A4000081F006840F03310091F0860081D006877
:101A5000324908432F49091D08602C48806940F02D
:101A600040002A4988612E48006820F070402C49C7
:101A70000860081D00680020091D0860081F006834
:101A800040F04050091F0860081D006840F03330E6
:101A9000091D08601D48806940F480701B498861F9
:101AA0002048006820F00F001E4908600846406882
:101AB00020F4702048600846006840F00300086089
:101AC0000846406840F4403048600846C06840F42A
:101AD0008050C8600F480C30006840F020000D496D
:101AE0000C3108600846006840F0100008600D489E
:101AF000C06840F001000B49C86005480C30006820
:101B000020F0010002490C310860704700100240CB
:101B1000000C01400014014000F0FF0033030033CB
:101B2000001801400020014010B5FFF765FFCF20ED
:101B3000FFF78EFD0020FFF735FEC120FFF732FED4
:101B40003020FFF72FFEED20FFF782FD6420FFF726
:101B500029FE0320FFF726FE1220FFF723FE812037
:101B6000FFF720FEE820FFF773FD8520FFF71AFE40
:101B70001020FFF717FE7A20FFF714FECB20FFF7A7
:101B800067FD3920FFF70EFE2C20FFF70BFE00202B
:101B9000FFF708FE3420FFF705FE0220FFF702FEE4
:101BA000F720FFF755FD2020FFF7FCFDEA20FFF7A7
:101BB0004FFD0020FFF7F6FD0020FFF7F3FDC020EA
:101BC000FFF746FD1B20FFF7EDFDC120FFF740FDAD
:101BD0000120FFF7E7FDC520FFF73AFD3020FFF7B2
:101BE000E1FD3020FFF7DEFDC720FFF731FDB72014
:101BF000FFF7D8FD3620FFF72BFD4820FFF7D2FD79
:101C00003A20FFF725FD5520FFF7CCFDB120FFF767
:101C10001FFD0020FFF7C6FD1A20FFF7C3FDB62009
:101C2000FFF716FD0A20FFF7BDFDA220FFF7BAFD62
:101C3000F220FFF70DFD0020FFF7B4FD2620FFF78F
:101C400007FD0120FFF7AEFDE020FFF701FD0F20AB
:101C5000FFF7A8FD2A20FFF7A5FD2820FFF7A2FD2A
:101C60000820FFF79FFD0E20FFF79CFD0820FFF7DF
:101C700099FD5420FFF796FDA920FFF793FD43201F
:101C8000FFF790FD0A20FFF78DFD0F20FFF78AFD7B
:101C90000020FFF787FD0020FFF784FD0020FFF7FD
:101CA00081FD0020FFF77EFDE120FFF7D1FC002041
:101CB000FFF778FD1520FFF775FD1720FFF772FD80
:101CC0000720FFF76FFD1120FFF76CFD0620FFF7DF
:101CD00069FD2B20FFF766FD5620FFF763FD3C20D2
:101CE000FFF760FD0520FFF75DFD1020FFF75AFDAF
:101CF0000F20FFF757FD3F20FFF754FD3F20FFF770
:101D000051FD0F20FFF74EFD2B20FFF7A1FC002017
:101D1000FFF748FD0020FFF745FD0120FFF742FDDA
:101D20003F20FFF73FFD2A20FFF792FC0020FFF73E
:101D300039FD0020FFF736FD0020FFF733FDEF20CF
:101D4000FFF730FD3620FFF783FC0820FFF72AFD60
:101D50001120FFF77DFC782000F046FB2920FFF7DB
:101D600077FC0548006840F00100034908604FF621
:101D7000FF70FFF73DFC10BD0C0C0140F8B500F002
:101D8000F9F900901E49B1F9040000F091FC0646F3
:101D9000BDF8000000F0A4FC074619480168384669
:101DA00000F0B2FC0546314600F000FC044600F0AD
:101DB0005FFC80B2ADF800001149B1F90C0000F0F1
:101DC00077FC0646BDF8020000F08AFC07460C4886
:101DD0008168384600F098FC0546314600F0E6FB85
:101DE000044600F045FC80B2ADF80200BDF80220C8
:101DF000BDF8001003A0FEF717FA0098F8BD000028
:101E000004000020783A256420202020793A2564B7
:101E10000D0A000000B5002015490861C8601420B3
:101E2000486100208861C8610846006840F00100F0
:101E30000860084640680F4908400D494860084658
:101E400000680D4908400A4908600846006820F407
:101E5000802008600846406820F4FE0048600020AA
:101E6000886000214FF0006000F008F800BD00001D
:101E7000001002400000FFF8FFFFF6FE024A0A4091
:101E80000243024B1A60704780FFFF1F08ED00E01D
:101E900000F01F02012191404209920002F1E0226C
:101EA000C2F800117047F0B503460C4603F0070175
:101EB000C1F10700042801D9042001E0C1F10700A5
:101EC0000646081D072801D2002000E0C81E05466E
:101ED0000120B040401E2040A8400127AF407F1E97
:101EE00017403843F0BD000010B5002807DA0A0794
:101EF000140E054A00F00F031B1FD45403E00A0719
:101F0000130E024A135410BD18ED00E000E400E087
:101F100030B504460025FFF77DFF1F48006840F4F8
:101F200080301D49086000BF1B480068400C002835
:101F3000FAD04FF4806018494860A01EC4B2084629
:101F4000406840EA844048600846406840F4803079
:101F500048601248006840F03200104908600E489E
:101F6000006840F080700C49086000BF0A480068B3
:101F7000400E0028FAD00848406840F002000649A8
:101F8000486005E004484068C0F3870505F0030594
:101F9000022DF7D130BD00000010024000200240A9
:101FA0004FF0E020006900F4803048B1FF204FF08E
:101FB000E02188610348006880F020000149086042
:101FC000704700000C1801404FF0E020006920F03D
:101FD00004004FF0E02108617047000070B505462D
:101FE00000264048006820F400703E49086008461A
:101FF000006820F400600860002423E03A4800688C
:1020000020F002003849086005F0800030B1354802
:10201000006840F400703349086005E0314800680A
:1020200020F400702F49086000F0D7F92E480068AE
:1020300040F002002C49086000F0CFF96806050E58
:10204000601CC4B2082CD9DB2748006820F00200CD
:10205000254908602348006820F400702149086081
:10206000782000F0E2F92048006820F002001E49C4
:10207000086000F0B2F91C48006840F002001A49FC
:10208000086000F0AAF900241CE04FF6FF7000EA97
:1020900046061548006820F002001349086000F069
:1020A0009CF91148006840F002000F490860081FC1
:1020B000006800F0040008B146F0010600F08DF958
:1020C000601CC4B20C2CE0DB0648006840F40060E1
:1020D000044908600448006820F0020002490860D2
:1020E000304670BD0C1C01400C0C01401E4880693C
:1020F00040F008001C4988611C48006820F47F609B
:102100001A4908600846006840F48660086016486E
:10211000806940F0800014498861154800684FF6D6
:10212000F0718843124908600846006843F2304164
:1021300008430F4908600E480830006840F400600A
:102140000B490831086009480C30006820F0020093
:1021500006490C31086006480830006820F4007019
:10216000034908310860704700100240000C01402C
:10217000041C01402DE9F0418CB000260027002509
:102180000DE0D020FFF72AFF07A921F815009020C5
:10219000FFF724FF02A921F81500681CC5B20A2D1B
:1021A000EFDB012533E000242BE007A830F8141002
:1021B00007AA601C32F8100081420BDD07A830F836
:1021C000148007A9601C31F8100021F81400601C6D
:1021D00021F8108002A830F8141002AA601C32F80E
:1021E000100081420BDD02A830F8148002A9601CA7
:1021F00031F8100021F81400601C21F81080601CD8
:10220000C4B2C5F10A00A042CFDC681CC5B20A2DD9
:10221000C9DB01250BE007A830F81500304486B271
:1022200002A830F81500384487B2681CC5B2092DE1
:10223000F1DB3046F11706EB5171C1F3CF01ADF878
:1022400004103846F91707EB5171C1F3CF01ADF80F
:10225000061001980CB0BDE8F08100000948008824
:1022600000F0200010B10748001D008805480088D4
:1022700000F0100020B1034800880248001D0088CB
:10228000704700000038014070B504462D48806951
:1022900040F004002B4988612B48006820F47F60DF
:1022A000294908600846006840F49660086027489D
:1022B000406820F00400254948602248C06840F486
:1022C00080402049C8600846C06820F48040C8604B
:1022D0000846806940F4804088611D48008820F4E9
:1022E00080501B4908800846008840F00C00088098
:1022F0000846008840F0200008800846008840F02A
:1023000010000880081D008820F44050091D088036
:102310001048B0FBF4F00E49091F08800222012189
:102320000520FFF7C0FDC5B229462520FFF7DCFDDB
:102330002520FFF7ADFD0648008840F40050044911
:10234000088070BD001002400408014000000140F8
:102350000C38014000A24A040448008800F0200024
:1023600010B10248001D0088704700000044004082
:10237000490050EAC12018BF04204A0D18BF40F0A0
:10238000010040F2FF72B2EB515F08BF40F0020063
:10239000012808BF05207047014600BF7047FF2194
:1023A0004FF0E022916142F22831414351611146E0
:1023B000096941F00101116100BF4FF0E021096995
:1023C00001F480310029F8D04FF0E021096921F0B3
:1023D00001014FF0E02211617047282001E0411E09
:1023E000C8B20028FBD1704730B503460025B3F5CD
:1023F000E96F03DC1846FFF7D2FF15E004E0A3F510
:10240000E96083B2681CC5B2B3F5E96FF7DA00245E
:1024100005E04FF4E960FFF7C2FF601CC4B2AC42B4
:10242000F7DB1846FFF7BBFF30BDFF214FF0E0227E
:10243000916100EBC00151611146096941F0010150
:10244000116100BF4FF0E021096901F480310029DA
:10245000F8D04FF0E021096921F001014FF0E022AE
:102460001161704700BF054A128802F04002002A3D
:10247000F9D0C2B2014B1B1D1A80704700380140D1
:1024800008B50920FFF744FD052002461A4B1968DC
:102490004FF6FF031940194B0B4343EA0221164B39
:1024A000196000BFFFF790FD4FF4E130FFF7ECFE3D
:1024B000FEF7F1FEFFF71AFEFFF736FB104A102178
:1024C0000020FEF7ECFE10210EA0FDF7ADFE0C493A
:1024D000086800F03FF8044622460B460CA0FDF7C2
:1024E000A3FE07E00C48006800F4806010B9FFF715
:1024F00045FC0090F6E700000CED00E00000FA0556
:1025000004000020C7F8D3F2A3BA25640D0A000026
:1025100025660D0A00000000081C014010B50029C6
:102520000AD00878002807D005487844FEF7B8FAA2
:10253000002801D0002010BD0248784410BD0000E2
:102540001A050000120500000808A0F500114FEA66
:102550003101704743004FEAD30C4FEA3C0C434033
:102560001FBF40070CF1605113F0FE4F70471CF085
:10257000006F03D100200CF0004170470CF00043C5
:1025800043EA507010B540EACC0000F03EF900BFBD
:10259000000000924FEA0001FFF7D6BF4FF0004164
:1025A0004FF00000A1F500217047000090EA010FF4
:1025B00048BF81F0004100F17A81421A3CBF801A85
:1025C00089184FEAD0524FF07F4C1CEA410FA2EB22
:1025D000D15318BF9CEA026F00F03B804FF0004CD3
:1025E0004CEA00204CEA012121FA03FC10EB0C0C10
:1025F0001ED202F1FF325FEA1C2040EBC25038BF0E
:1026000070471CF07F0F4FEA400C18BFBCF17F4FA2
:1026100038BF7047C3F12003994008BF20F0010084
:10262000BCF17F4F38BF7047A0F1C04000F033B914
:102630004FEA3C00000A40EBC25028BF1CF0FF0FDD
:102640004FEA400CE6D018BFBCF17F4F38BF70474F
:10265000EAE79CEA026F05D010EA5C0F08BF00F0C1
:102660000040704710B500F0D0F800BF64FBBE3EDC
:10267000C10DD1F19E0206DB4FEA002343F0004377
:1026800023FA02F07047004207D54FEA4001B1F14A
:10269000FE4F02D24FF00000704710B500F0B5F8C1
:1026A00049922480002070476FEA200070470000A4
:1026B00010F0004148BF4042B0FA80F310FA03F234
:1026C000C3F19D030BD051EAC35101EB1220530615
:1026D00038BF704700F1010008BF20F001007047CB
:1026E000B0FA80F310FA03F2C3F19D030AD0D905C2
:1026F00001EB1220530638BF704700F1010008BFFC
:1027000020F00100704700004FF47F0C1CEAD0124B
:102710001EBF1CEAD11392EA0C0F93EA0C0F00F0D3
:10272000478090EA010F48BF42F480724FF0004C9E
:102730004CEA00204CEA012102EB0302A0FB01134A
:10274000A2F50002002918BF43F001035B0028BF77
:102750004FEA330342EB22425FEA132C4CEBC250A8
:102760002EBFBCEB436FB2F57C0F70474FEA036C92
:10277000BCF1004F08BF20F00100B2F57C0F38BF5C
:1027800070470BD582F0FF0212F5803FC8BF70473B
:1027900000F1C040D8BF00F00040704700F5000CC9
:1027A0005FEA4C0C48BF7047B0F1C04000F073B80E
:1027B00090EA010F0CEAD11348BF42F480726245DF
:1027C00038BF634504D280EA010000F00040704742
:1027D00010B500F01AF800BF8900013E00F007B8FC
:1027E00000F009B85FEA410C5FEA1C6C08D080EA8F
:1027F000010000F050B85FEA400C5FEA1C6CF6D1B3
:102800004FF00040A0F5800070470EF1020E2EF050
:10281000030E5EF8044B244204D44FEA4102B2F1A5
:102820007F4F11D84FEA4003B3F17F4F0CD80ED140
:102830004FEAD07CB2F17F4F0CEB4C0C0CF1020C48
:1028400008BF4CEBD17C04E04FF0080C01E04FEAEC
:10285000D17C0CEB4C0324FA03F404F00704B4F12C
:10286000040C06D20EEB840CBDE810404CF0010CB9
:102870006047DFE80CF0070802024FF00040A0F5C7
:10288000800010BD0846420018BFD2F1807288BF98
:1028900000F0004010BDFF2141EAD050C005704754
:1028A00090EA010F48BF81F000413FF586AE421A21
:1028B00004D882F00042A0EB020011444FEAD0524B
:1028C0004FF07F4C1CEA410FA2EBD15318BF9CEA9A
:1028D000026F4AD04FF0004C4CEA00204CEA012134
:1028E00021FA03FCB0EB0C0C0FD412F0FE0F36D023
:1028F0005FEA4C001DD5001240EBC25038BF704754
:102900001CF03F0F18BF70470BE0A2F101025FEA15
:102910001C2040EBC25038BF70471CF07F0F18BF1F
:102920007047C3F12003994014BF401E20F00100FE
:10293000704780084FEA122308BF7047B0FA80FC46
:10294000A2EB0C02CCF1280C60FA0CF093EA122FE7
:1029500004BF00EBC25070474FEAC3707047130AC0
:102960005FEADC1008BF7047F6E79CEA026F04D00C
:1029700010EA5C0F08BF0020704710B5FFF745FF55
:1029800040DFF63E81F000407047FDF7FDBD0000DE
:1029900002400000000000A0000000000540000010
:1029A000000000C8000000000C4000000000409C37
:1029B00000000000194000000020BCBE0000000024
:1029C00034400000BFC91B8E00000004B540000069
:1029D000504BCFD06607E2CF010000006C410000F1
:1029E0003E8251AADFEEA73401000000D942000068
:1029F000DCB5A0E23A301F97FFFFFFFFB4450000AF
:102A0000FD25A0C8E9A3C14FFFFFFFFFFF3F000066
:102A10000000008000000000FF3F00000000008078
:102A200000000000602A00080000002004000000F0
:102A30006C010008642A00080400002074060000ED
:102A4000880100081C00000043000000F8FFFFFFA1
:102A50000C0000000E0000000F0000002E0000001F
:042A60000000000072
:0400000508000131BD
:00000001FF
