:020000040800F2
:1000000060040020B1010008B5010008B701000834
:10001000B9010008BB010008BD0100080000000094
:10002000000000000000000000000000BF01000808
:10003000C101000800000000C3010008C50100085C
:10004000C7010008C7010008C7010008C701000870
:10005000C7010008C7010008C7010008C701000860
:10006000C7010008C7010008C7010008C701000850
:10007000C7010008C7010008C7010008C701000840
:10008000C7010008C7010008C7010008C701000830
:10009000C7010008C7010008C7010008C701000820
:1000A000C7010008C7010008C7010008C701000810
:1000B000C7010008C7010008C7010008C701000800
:1000C000C7010008C7010008C7010008C7010008F0
:1000D000C7010008C7010008C7010008C7010008E0
:1000E000C7010008C7010008C7010008C7010008D0
:1000F000C7010008C7010008C7010008C7010008C0
:10010000C7010008C7010008C7010008C7010008AF
:10011000C7010008C7010008D9020008C70100088C
:10012000C7010008C7010008C7010008C70100088F
:1001300000F002F800F02CF80AA090E8000C8244CD
:100140008344AAF10107DA4501D100F021F8AFF2AA
:10015000090EBAE80F0013F0010F18BFFB1A43F0A5
:1001600001031847C4040000D40400000023002445
:1001700000250026103A28BF78C1FBD8520728BFB7
:1001800030C148BF0B6070471FB51FBD10B510BD13
:1001900000F02DF81146FFF7F7FF00F077F900F0B7
:1001A0004BF803B4FFF7F2FF03BC00F02DF9000099
:1001B00008480047FEE7FEE7FEE7FEE7FEE7FEE74A
:1001C000FEE7FEE7FEE7FEE703480449024A044B68
:1001D000704700003101000860000020600400202A
:1001E0006000002070477047704770477047754641
:1001F00000F02CF8AE4605006946534620F0070093
:10020000854618B020B5FFF7DFFFBDE820404FF06E
:1002100000064FF000074FF000084FF0000B21F0F0
:100220000701AC46ACE8C009ACE8C009ACE8C009BD
:10023000ACE8C0098D46704710B50446AFF30080A6
:100240002046BDE81040FFF7ACBF000000487047F3
:10025000000000201848806940F0080016498861B5
:100260000846806940F0400088611448006820F426
:100270007000124908600846006840F440100860A9
:100280000F48006820F470000D49086008460068B7
:1002900040F44010086009480C30006840F020002D
:1002A00006490C31086006480C30006840F0200018
:1002B00003490C310860704700100240000C0140F7
:1002C0000018014000204FF0E02108610846006955
:1002D00020F00400086170470848006900F0010040
:1002E00058B10648006920F001000449086104483B
:1002F000006880F02000024908607047001000404C
:100300000C1801402DE9F04303460C463A48C069F9
:1003100040F010003849C861384800686FF30F009A
:10032000364908600846006840F0800008600846CA
:100330008462C362406940F0010048610846006978
:100340000861052001252E460146C1F10708B8F1D4
:10035000040F02D94FF0040801E0C1F10708C446B8
:1003600001F10408B8F1070F02D24FF0000801E0D4
:10037000A1F1030847464FF0010808FA0CF8A8F16C
:10038000010808EA050808FA07F84FF0010909FA18
:1003900007F9A9F1010909EA060948EA090200BFBB
:1003A00036211046002904DB05072E0E144D6E542D
:1003B00006E005072F0E134D01F00F06361FAF554F
:1003C00000BF3620002809DB00F01F050121A940ED
:1003D0004509AD0005F1E025C5F8001100BF07484B
:1003E000C06840F001000549C8600846006840F058
:1003F00001000860BDE8F0830010024000100040DA
:1004000000E400E018ED00E000BF7047FF214FF06E
:10041000E022916142F2283141435161114609695C
:1004200041F00101116100BF4FF0E021096901F4C1
:1004300080310029F8D04FF0E021096921F0010155
:100440004FF0E0221161704730B503460025B3F547
:10045000E96F03DC1846FFF7D9FF15E004E0A3F5C8
:10046000E96083B2681C85B2B3F5E96FF7DA00245E
:1004700005E04FF4E960FFF7C9FF601C84B2AC42AD
:10048000F7DB1846FFF7C2FF30BD0000092000F07F
:1004900093F805200246164B19684FF6FF031940E2
:1004A000144B0B4343EA0221114B196000BFFFF7C5
:1004B00009FFFFF7CFFE4FF4E15141F28730FFF71C
:1004C00021FF13E00C48006820F020000A49086072
:1004D0004FF4FA70FFF7B8FF0748006840F02000BB
:1004E000054908604FF4FA70FFF7AEFFEAE7000035
:1004F0000CED00E00000FA050C0C014010B50246BE
:1005000000210020264B1B6843F48033244C2360D9
:100510000AE000BF224B1B6803F400331BB1B1F5A6
:10052000004F00D904E0491C4FF6F0739942F0D314
:1005300000BF4FF6F073994201D301202FE04FF432
:100540008063174C6360921E23465B6843EA8243D4
:10055000636023465B6843F4803363601023114C6F
:10056000236023461B6843F0020323600C4B1B6887
:1005700043F080730A4C236000BF094B1B685B0E7D
:10058000002BFAD0064B5B6843F00203044C636017
:1005900000BF034B5B68C3F38103022BF9D110BD8D
:1005A00000100240002002404A0A52020243014B5E
:1005B0001A60704708ED00E010B5044600201749A6
:1005C0000861C8601420486100208861C86108463D
:1005D000006840F001000860084640681049084083
:1005E0000E494860084600680E4908400B490860FB
:1005F0000846006820F4802008600846406820F41F
:10060000FE0048604FF41F0088602046FFF776FF29
:1006100000214FF00060FFF7C7FF10BD001002403F
:100620000000FFF8FFFFF6FE38060008000000207B
:08063000600400006C010008E9
:0400000508000131BD
:00000001FF
