:020000040800F2
:1000000078060020D5010008D9010008DB010008AE
:10001000DD010008DF010008E10100080000000028
:10002000000000000000000000000000E3010008E4
:10003000E501000800000000E70100088110000849
:10004000EB010008EB010008EB010008EB010008E0
:10005000EB010008EB010008EB010008EB010008D0
:10006000EB010008EB01000869050008EB0100083E
:10007000EB010008EB010008EB010008EB010008B0
:10008000EB010008EB010008EB010008EB010008A0
:10009000EB010008EB010008EB010008EB01000890
:1000A000EB010008EB010008EB010008EB01000880
:1000B000EB010008EB010008BD100008EB0100088F
:1000C000EB010008EB010008EB010008EB01000860
:1000D000EB0100088514000881150008EB010008F9
:1000E000EB010008EB010008EB010008EB01000840
:1000F000EB010008EB010008EB0100088104000897
:10010000EB010008EB010008EB010008EB0100081F
:10011000EB010008EB01000879110008A5110008A7
:10012000EB010008EB010008EB010008EB010008FF
:1001300000F002F800F03FF80AA090E8000C8244BA
:100140008344AAF10107DA4501D100F034F8AFF297
:10015000090EBAE80F0013F0010F18BFFB1A43F0A5
:1001600001031847101B0000301B0000103A24BF89
:1001700078C878C1FAD8520724BF30C830C144BF0C
:1001800004680C607047000000230024002500264E
:10019000103A28BF78C1FBD8520728BF30C148BFEA
:1001A0000B607047642900F07380002070471FB512
:1001B0001FBD10B510BD00F033F91146FFF7F7FF72
:1001C00001F05EFA00F051F903B4FFF7F2FF03BC4F
:1001D00001F0E2F908480047FEE7FEE7FEE7FEE728
:1001E000FEE7FEE7FEE7FEE7FEE7FEE70348044919
:1001F000044A054B704700003101000878000020D8
:100200007806002078020020780200207047000065
:100210000FB4044910B503AA029800F0D3F810BC3B
:100220005DF814FB000000202DE9F0410E46044665
:10023000002020622046E168884730B3252805D099
:10024000D4E901219047206A401CF2E7E16820468A
:1002500000278847050018D0A5F14100192802D8C9
:1002600020354FF400673246294620462760FFF7C5
:1002700099FF40B1012804D0F61D26F00706083684
:10028000D8E7361DD6E72846DAE7206ABDE8F081D0
:100290002DE9F0410646002410687529314616A55F
:1002A00010D0AFF30080002802DA404213A507E027
:1002B00031688A0701D512A502E0490704D511A5C6
:1002C000012401E0AFF3008000210A2206F1240797
:1002D00009E0B0FBF2FCB0FBF2F302FB1C00303093
:1002E00078541846491C0028F3D123462A46304644
:1002F000BDE8F04100F00CB8000000002D00000047
:100300002B000000200000007047704770477047C6
:100310002DE9F0470D4699469246044600F124081F
:100320000168880604D5E06921F01001216000E031
:100330000120A84201DD471B00E00027A1697A19CE
:1003400002EB0900081AA0612078C00602D42046FA
:10035000AFF30080002608E0D4E901211AF8060076
:100360009047206A401C761C20624E45F4DB2078C2
:10037000C0060AD52046AFF3008006E0D4E901218B
:1003800030209047206A401C2062381EA7F10107E8
:10039000F4DC07E0D4E9012118F805009047206A51
:1003A000401C2062281EA5F10105F3DC2046AFF3B6
:1003B00000802078000602D50220BDE8F0870120E9
:1003C000FBE70000074B70B50D467B4400F011F8C9
:1003D0000446284600F020F810B14FF0FF3070BD01
:1003E000204670BD9712000001694A1C026108781E
:1003F000704700B58FB0CDE9013100210591054965
:100400007944CDE9031011466846FFF70DFF0FB0A0
:1004100000BD0000E5FFFFFF007B00F0800070479B
:10042000754600F029F8AE4605006946534620F0AF
:100430000700854618B020B5FFF7D8FEBDE820407C
:100440004FF000064FF000074FF000084FF0000B90
:1004500021F00701AC46ACE8C009ACE8C009ACE843
:10046000C009ACE8C0098D4670470446AFF3008070
:100470002046FFF7A9FE0000004870471800002042
:1004800010B50B48006800F0020038B108484C3045
:10049000006884B2214607A0FFF7BAFE044808307E
:1004A000006840F4800002490831086010BD000077
:1004B000003C0140646174613A25640D0A0000004B
:1004C00010B500F029F910BD2DE9F04104460E46A3
:1004D000174600F013FAA046E11704EB1161091268
:1004E000A02202EB4101C8B200F0D0F900F032F9CD
:1004F000054625B100F028FA0120BDE8F081A046AC
:10050000E11704EB11610912A4EB0121C8B200F05C
:10051000BDF900F01FF905461DB100F015FA0220E3
:10052000EBE700F0EBF9A12000F0B0F900F012F9D0
:1005300005461DB100F008FA0220DEE70DE000F0EC
:1005400035F93870701EC6B21EB9012000F064F98A
:1005500004E0002000F060F97F1CF0E700BF00F02D
:10056000F3F92846C9E7000010B50D48006800F00F
:10057000100098B10A2001F037F80A48006800F02E
:10058000100058B90648006840F01000044908609F
:100590000548006880F020000349086010BD000095
:1005A00014040140081801400C0C014052488069B5
:1005B00040F4B470504988610846406940F4807046
:1005C00048614E48006820F00F004C49086008461A
:1005D000006840F0030008604948006800F0FF2010
:1005E00047490860081D0068464908404449091DFC
:1005F0000860081F006840F0BB10091F0860081D54
:100600000068414908433E49091D08603F480068A9
:1006100020F070403D490860081D00680020091D59
:100620000860081F006840F03040091F0860081D7E
:10063000006840F0BB30091D08603548006820F0B4
:100640000F00334908600846406820F47020486075
:100650000846006840F00B0008600846406840F417
:100660003020486025480C30006820F00100234904
:100670000C31086000204FF020418861C861254995
:1006800008604FF02040806940F480404FF02041E6
:1006900088610846806940F4805088610846806916
:1006A00020F0300088610846806940F010008861C1
:1006B0000846C06920F04050C8610846C06940F44F
:1006C0007060C8610846C06940F00100C861114807
:1006D0000068C1F81C010846D0F81C0140F4007005
:1006E000C1F81C010B480068C1F81C01084680696C
:1006F00040F001008861704700100240000C01408A
:100700000014014000F0FF00BB0B00BB00180140CB
:10071000002001401C0100A00C48806940F0080046
:100720000A4988610A48006820F07F40084908604B
:100730000846006840F0E640086005480C30006854
:1007400040F0C00002490C310860704700100240C0
:10075000000C014010B51448006820F04000124918
:1007600008600846006840F080000860052000F03E
:100770005CFF0D48006840F040000B490860081F0E
:10078000006800F0800030B10846006820F04000AA
:100790000860012010BD0448006820F040000249B4
:1007A00008600020F6E700000C0C014070B5002442
:1007B0001848006820F040001649086008460068A4
:1007C00040F080000860002519E01248006820F021
:1007D0004000104908606006040E052000F025FF67
:1007E0000C48006840F040000A490860081F006893
:1007F00000F0800008B144F00104681CC5B2082D67
:10080000E3DB0448006820F040000249086020460D
:1008100070BD00000C0C014010B504461A48006879
:1008200020F0400018490860052000F0FEFE012C71
:100830000FD11548006840F080001349086001207E
:1008400000F0F3FE1048006840F040000E490860D8
:100850000FE074B90C48006820F080000A49086075
:10086000012000F0E2FE0848006840F04000064920
:100870000860052000F0D9FE0348006820F0400021
:100880000149086010BD00000C0C014070B5044621
:10089000002528E01848006820F04000164908604C
:1008A000052000F0C2FE04F0800030B1124800685C
:1008B00040F080001049086005E00F48006820F013
:1008C00080000D490860012000F0AFFE0A48006872
:1008D00040F0400008490860052000F0A6FE6006D0
:1008E000040E681CC5B2082DD4DB0348006820F054
:1008F00040000149086070BD0C0C014010B5114862
:10090000006820F040000F4908600846006840F089
:10091000800008600846006840F04000086005203C
:1009200000F083FE0748006820F080000549086059
:10093000052000F07AFE0348006820F040000149DD
:10094000086010BD0C0C014010B50E48006820F086
:1009500040000C4908600846006820F080000860EC
:100960000846006840F040000860052000F05DFE89
:100970000448006840F0800002490860052000F04B
:1009800054FE10BD0C0C014000B503464FF49632E6
:100990002A2000F05BF8002000F05EF8002000F054
:1009A0005BF8002000F058F8EF2000F055F82B20FD
:1009B00000F04CF8002000F04FF8002000F04CF858
:1009C000012000F049F840F23F1000F045F82C20DB
:1009D00000F03CF803E0184600F03EF8521E002AF2
:1009E000F9D100BDF0B505460C46059F02FB03F6A4
:1009F0002A2000F02BF8281200F02EF8284600F0EC
:100A00002BF8A918081200F027F8A91888B200F0EE
:100A100023F82B2000F01AF8201200F01DF82046D1
:100A200000F01AF8E118081200F016F8E11888B280
:100A300000F012F82C2000F009F803E0384600F02E
:100A40000BF8761E002EF9D1F0BD00000149088098
:100A500070470000FE07006C0149088070470000E5
:100A60000008006C10B5FFF7A1FD322000F0BCFDBE
:100A7000CF20FFF7EBFF0020FFF7EEFFC120FFF7CD
:100A8000EBFF3020FFF7E8FFED20FFF7DFFF6420EA
:100A9000FFF7E2FF0320FFF7DFFF1220FFF7DCFF85
:100AA0008120FFF7D9FFE820FFF7D0FF8520FFF76F
:100AB000D3FF1020FFF7D0FF7A20FFF7CDFFCB2028
:100AC000FFF7C4FF3920FFF7C7FF2C20FFF7C4FF53
:100AD0000020FFF7C1FF3420FFF7BEFF0220FFF721
:100AE000BBFFF720FFF7B2FF2020FFF7B5FFEA209A
:100AF000FFF7ACFF0020FFF7AFFF0020FFF7ACFFD0
:100B0000C020FFF7A3FF1B20FFF7A6FFC120FFF7C0
:100B10009DFF0120FFF7A0FFC520FFF797FF3020C2
:100B2000FFF79AFF3020FFF797FFC720FFF78EFFF0
:100B3000B720FFF791FF3620FFF788FF4820FFF727
:100B40008BFF3A20FFF782FF5520FFF785FFB1208A
:100B5000FFF77CFF0020FFF77FFF1A20FFF77CFFE5
:100B6000B620FFF773FF0A20FFF776FFA220FFF7FA
:100B700073FFF220FFF76AFF0020FFF76DFF2620CA
:100B8000FFF764FF0120FFF767FFE020FFF75EFF3C
:100B90000F20FFF761FF2A20FFF75EFF2820FFF7F5
:100BA0005BFF0820FFF758FF0E20FFF755FF0820D6
:100BB000FFF752FF5420FFF74FFFA920FFF74CFF2C
:100BC0004320FFF749FF0A20FFF746FF0F20FFF7FA
:100BD00043FF0020FFF740FF0020FFF73DFF00200C
:100BE000FFF73AFF0020FFF737FFE120FFF72EFF66
:100BF0000020FFF731FF1520FFF72EFF1720FFF72A
:100C00002BFF0720FFF728FF1120FFF725FF062005
:100C1000FFF722FF2B20FFF71FFF5620FFF71CFFD7
:100C20003C20FFF719FF0520FFF716FF1020FFF704
:100C300013FF0F20FFF710FF3F20FFF70DFF3F20AE
:100C4000FFF70AFF0F20FFF707FF2B20FFF7FEFE3D
:100C50000020FFF701FF0020FFF7FEFE0120FFF755
:100C6000FBFE3F20FFF7F8FE2A20FFF7EFFE0020F3
:100C7000FFF7F2FE0020FFF7EFFE0020FFF7ECFE8B
:100C8000EF20FFF7E9FE3620FFF7E0FE0820FFF730
:100C9000E3FE1120FFF7DAFE782000F0A5FC292002
:100CA000FFF7D4FE0548006840F0010003490860E2
:100CB0004FF6FF70FFF768FE10BD00000C0C0140FE
:100CC0002DE9F84304460D4616461F464FF000082E
:100CD0001648006800F48060E0B915480078C8B193
:100CE00000F028F80090002011490870BDF80000BD
:100CF000A0420FDDBDF80000A11988420ADABDF854
:100D00000200A84206DDBDF80200E919884201DAB6
:100D10004FF001080548006800F4806010B1012020
:100D2000034908704046BDE8F8830000081C0140F4
:100D3000040000202DE9FF4100F034FB029000F098
:100D400031FB009003905049B1F9040000F024FEFB
:100D50000646BDF8080000F037FE07464A4801681D
:100D6000384600F045FE0546314600F0D1FC044609
:100D700000F0F2FD80B2ADF808004349B1F90C0073
:100D800000F00AFE0646BDF80A0000F01DFE074608
:100D90003D488168384600F02BFE0546314600F09C
:100DA000B7FC044600F0D8FD80B2ADF80A00364921
:100DB000B1F9040000F0F0FD0646BDF80C0000F0AB
:100DC00003FE074630480168384600F011FE05462C
:100DD000314600F09DFC044600F0BEFD80B2ADF847
:100DE0000C002949B1F90C0000F0D6FD0646BDF80B
:100DF0000E0000F0E9FD074623488168384600F000
:100E0000F7FD0546314600F083FC044600F0A4FDE2
:100E100081B2ADF80E10BDF80820BDF80C30D11A23
:100E2000002901DB0A4600E04A42082A22DABDF81E
:100E30000A30BDF80E20981A002801DB024600E0B7
:100E40004242082A16DABDF80810BDF80C208818AE
:100E500000EBD071C1F34F01ADF80410BDF80A20CA
:100E6000BDF80E10501800EBD071C1F34F01ADF872
:100E7000061005E040F6FF70ADF80400ADF806007E
:100E8000019804B0BDE8F081080000201648806990
:100E900040F04800144988611448006820F470004C
:100EA000124908600846006840F440100860104885
:100EB000006820F470000E4908600846006840F49D
:100EC0004010086009480C30006840F020000749D5
:100ED0000C31086006480C30006840F020000449DE
:100EE0000C3108607047000000100240000C014007
:100EF0000018014000B5002015490861C8601420A1
:100F0000486100208861C8610846006840F001001F
:100F10000860084640680F4908400D494860084687
:100F200000680D4908400A4908600846006820F436
:100F3000802008600846406820F4FE0048600020D9
:100F4000886000214FF0006000F008F800BD00004C
:100F5000001002400000FFF8FFFFF6FE024A0A40C0
:100F60000243024B1A60704780FFFF1F08ED00E04C
:100F700000F01F02012191404209920002F1E0229B
:100F8000C2F800117047F0B503460C4603F00701A4
:100F9000C1F10700042801D9042001E0C1F10700D4
:100FA0000646081D072801D2002000E0C81E05469D
:100FB0000120B040401E2040A8400127AF407F1EC6
:100FC00017403843F0BD000010B5002807DA0A07C3
:100FD000140E054A00F00F031B1FD45403E00A0748
:100FE000130E024A135410BD18ED00E000E400E0B7
:100FF00030B504460025FFF77DFF1F48006840F428
:1010000080301D49086000BF1B480068400C002864
:10101000FAD04FF4806018494860A01EC4B2084658
:10102000406840EA844048600846406840F48030A8
:1010300048601248006840F03200104908600E48CD
:10104000006840F080700C49086000BF0A480068E2
:10105000400E0028FAD00848406840F002000649D7
:10106000486005E004484068C0F3870505F00305C3
:10107000022DF7D130BD00000010024000200240D8
:101080004FF0E020006900F4803048B1FF204FF0BD
:10109000E02188610348006880F020000149086071
:1010A000704700000C1801404FF0E020006920F06C
:1010B00004004FF0E0210861704700002DE9F0477F
:1010C0002048008800F0040050B11E48008820F03D
:1010D00004001C4908801B48283000881A490880F1
:1010E0001848008800F40070002828D015480088AF
:1010F00020F00200134908800846008820F40070A0
:101100000880104824300488204600F05DFC8046AA
:101110000D48008800F058FC8146414600F05AFB1B
:1011200007460A4900F064FC064600F015FC85B24B
:101130002B4605480288214605A0FFF769F8BDE85F
:10114000F087000010080040060000200000C842A0
:10115000D6DCC6DAA3BA2564202020B8DFB5E7C6FE
:10116000BDA3BA2564202020D5BCBFD5B1C8A3BA81
:10117000256425250D0A00000848008A00F00100BA
:1011800058B10648008A20F001000449088204484A
:10119000006880F02000024908607047001000409D
:1011A0000C1801401648008800F0010000B31448F4
:1011B000008820F00100124908801248007858B9D0
:1011C0001148008818B901200E49087004E00E4843
:1011D000008814380C4908800A48007801280DD18D
:1011E00009480088B0F57A7F03D1002005490870CE
:1011F00004E0054800881430034908807047000067
:1012000010140040050000203804004070B5054669
:1012100000264048006820F400703E4908600846F7
:10122000006820F400600860002423E03A48006869
:1012300020F002003849086005F0800030B13548E0
:10124000006840F400703349086005E031480068E8
:1012500020F400702F49086000F0BFF92E480068A4
:1012600040F002002C49086000F0B7F96806050E4E
:10127000601CC4B2082CD9DB2748006820F00200AB
:10128000254908602348006820F40070214908605F
:10129000782000F0CAF92048006820F002001E49BA
:1012A000086000F09AF91C48006840F002001A49F2
:1012B000086000F092F900241CE04FF6FF7000EA8D
:1012C00046061548006820F002001349086000F047
:1012D00084F91148006840F002000F490860081FB7
:1012E000006800F0040008B146F0010600F075F94E
:1012F000601CC4B20C2CE0DB0648006840F40060BF
:10130000044908600448006820F0020002490860AF
:10131000304670BD0C1C01400C0C01401E48806919
:1013200040F008001C4988611C48006820F47F6078
:101330001A4908600846006840F48660086016484C
:10134000806940F0800014498861154800684FF6B4
:10135000F0718843124908600846006843F2304142
:1013600008430F4908600E480830006840F40060E8
:101370000B490831086009480C30006820F0020071
:1013800006490C31086006480830006820F40070F7
:10139000034908310860704700100240000C01400A
:1013A000041C01402DE9F04188B00027B846002513
:1013B0000DE0D020FFF72AFF05A921F815009020A5
:1013C000FFF724FF02A921F81500681CC5B2052DFE
:1013D000EFDB012533E000242BE005A830F81410E2
:1013E00005AA601C32F8100081420BDD05A830F818
:1013F000146005A9601C31F8100021F81400601C6D
:1014000021F8106002A830F8141002AA601C32F80B
:10141000100081420BDD02A830F8146002A9601CA4
:1014200031F8100021F81400601C21F81060601CD5
:10143000C4B2C5F10500A042CFDC681CC5B2052DC1
:10144000C9DB01250CE005A830F81500384487B247
:1014500002A830F8150040441FFA80F8681CC5B295
:10146000042DF0DB032097FBF0F080B2ADF8040010
:10147000032098FBF0F080B2ADF80600019808B0A8
:10148000BDE8F0810948008800F0200010B107484D
:10149000001D00880548008800F0100020B10348B6
:1014A00000880248001D0088704700000038014095
:1014B00070B504462D48806940F004002B498861CE
:1014C0002B48006820F47F602949086008460068BE
:1014D00040F4966008602748406820F004002549E1
:1014E00048602248C06840F480402049C8600846EF
:1014F000C06820F48040C8600846806940F480409D
:1015000088611D48008820F480501B4908800846E7
:10151000008840F00C0008800846008840F0200059
:1015200008800846008840F010000880081D0088E8
:1015300020F44050091D08801048B0FBF4F00E491B
:10154000091F0880022201210520FFF71CFDC5B2FA
:1015500029462520FFF738FD2520FFF709FD06481D
:10156000008840F400500449088070BD001002401B
:1015700004080140000001400C38014000A24A0468
:101580000448008800F0200010B10248001D0088C7
:101590007047000000440040014600BF7047FF2133
:1015A0004FF0E022916142F22831414351611146EE
:1015B000096941F00101116100BF4FF0E0210969A3
:1015C00001F480310029F8D04FF0E021096921F0C1
:1015D00001014FF0E022116170471E2001E0411E21
:1015E000C8B20028FBD1704730B503460025B3F5DB
:1015F000E96F03DC1846FFF7D2FF15E004E0A3F51E
:10160000E96083B2681CC5B2B3F5E96FF7DA00246C
:1016100005E04FF4E960FFF7C2FF601CC4B2AC42C2
:10162000F7DB1846FFF7BBFF30BDFF214FF0E0228C
:10163000916100EBC00151611146096941F001015E
:10164000116100BF4FF0E021096901F480310029E8
:10165000F8D04FF0E021096921F001014FF0E022BC
:101660001161704700BF054A128802F04002002A4B
:10167000F9D0C2B2014B1B1D1A80704700380140DF
:1016800008B50920FFF7B4FC052002461C4B196879
:101690004FF6FF0319401B4B0B4343EA0221184B43
:1016A000196000BFFFF700FD4FF4E130FFF700FFC6
:1016B000FFF7ECFBFEF704FFFFF730FEFFF7D2F970
:1016C000114A10210020FEF7FFFE4FF478403C2322
:1016D0001A46782100900846FFF784F90EE03C2373
:1016E0001A4678210846FFF7EBFA0446012C05D18B
:1016F0000648006880F0200004490860EFE7000019
:101700000CED00E00000FA05080000200C0C014080
:1017100090EA010F48BF81F0004100F13C82421A7B
:101720003CBF801A89184FEAD0524FF07F4C1CEA18
:10173000410FA2EBD15318BF9CEA026F00F03B802F
:101740004FF0004C4CEA00204CEA012121FA03FC46
:1017500010EB0C0C1ED202F1FF325FEA1C2040EBB2
:10176000C25038BF70471CF07F0F4FEA400C18BFC3
:10177000BCF17F4F38BF7047C3F12003994008BFC9
:1017800020F00100BCF17F4F38BF7047A0F1C0408E
:1017900000F0F5B94FEA3C00000A40EBC25028BF08
:1017A0001CF0FF0F4FEA400CE6D018BFBCF17F4F92
:1017B00038BF7047EAE79CEA026F05D010EA5C0F79
:1017C00008BF00F00040704710B500F092F900BF6C
:1017D00064FBBE3E4FF47F0C1CEAD0121EBF1CEA15
:1017E000D11392EA0C0F93EA0C0F00F0858090EA77
:1017F000010F48BF42F4807240F4000C41F4000035
:101800002CF07F4120F07F4000B58142A2EB030223
:101810000FF2081CACEB504EC0F100009EF800E047
:101820004FEA4E0E00FB0EFC38BF49004FEA2C1C5D
:1018300002F5FA020CFB0EF34FEACE1E4FEA112C12
:101840004FEAC1210EEB635E42EB22420EFB0CFC21
:101850004FEA1C5300FB03114FEA112C4FEA0131F0
:101860000EFB0CFC4FEADC4C00FB0C11C14228BF04
:1018700009184CEB03335DF804EB10EB410143EB2B
:10188000C250B2F57C0F38BF704729D512F0F00F67
:101890001CBF00F1C04000F000407047008182830F
:1018A0008485868788898B8C8D8E8F91929395966F
:1018B00097999A9C9D9FA0A2A3A5A7A8AAACAEB0F9
:1018C000B2B3B5B7B9BCBEC0C2C5C7C9CCCED1D4FE
:1018D000D7D9DCDFE2E6E9ECF0F3F7FAFE0000002E
:1018E0004FEA400C0CF1807CBCF17E4F28BF704762
:1018F000B0F1C04000F043B990EA010F0CEAD113F7
:1019000048BF42F48072624538BF634507D213F482
:101910007F0F16D080EA010000F00040704710B53C
:1019200000F0E7F8097EFC3E00F005B880EA01000F
:1019300000F00040704780EA010000F0004000F035
:101940001EB912F47F0F04BF0248704780EA0100FD
:1019500000F015B90000C07FC10DD1F19E0206DB79
:101960004FEA002343F0004323FA02F0704700429D
:1019700007D54FEA4001B1F1FE4F02D24FF000000F
:10198000704710B500F0B5F84992248000207047E8
:101990006FEA20007047000010F0004148BF40424D
:1019A000B0FA80F310FA03F2C3F19D030BD051EAB1
:1019B000C35101EB1220530638BF704700F10100FC
:1019C00008BF20F001007047B0FA80F310FA03F26C
:1019D000C3F19D030AD0D90501EB1220530638BF8D
:1019E000704700F1010008BF20F0010070470000BF
:1019F0004FF47F0C1CEAD0121EBF1CEAD11392EAEE
:101A00000C0F93EA0C0F00F0478090EA010F48BFDB
:101A100042F480724FF0004C4CEA00204CEA012165
:101A200002EB0302A0FB0113A2F50002002918BF7C
:101A300043F001035B0028BF4FEA330342EB22422D
:101A40005FEA132C4CEBC2502EBFBCEB436FB2F5D8
:101A50007C0F70474FEA036CBCF1004F08BF20F0C9
:101A60000100B2F57C0F38BF70470BD582F0FF0242
:101A700012F5803FC8BF704700F1C040D8BF00F0EA
:101A80000040704700F5000C5FEA4C0C48BF7047FF
:101A9000B0F1C04000F073B890EA010F0CEAD11326
:101AA00048BF42F48072624538BF634504D280EA81
:101AB000010000F00040704710B500F01AF800BFB8
:101AC0008900013E00F007B800F009B85FEA410C58
:101AD0005FEA1C6C08D080EA010000F050B85FEAB1
:101AE000400C5FEA1C6CF6D14FF00040A0F580007E
:101AF00070470EF1020E2EF0030E5EF8044B2442E6
:101B000004D44FEA4102B2F17F4F11D84FEA4003AB
:101B1000B3F17F4F0CD80ED14FEAD07CB2F17F4F9A
:101B20000CEB4C0C0CF1020C08BF4CEBD17C04E02C
:101B30004FF0080C01E04FEAD17C0CEB4C0324FA87
:101B400003F404F00704B4F1040C06D20EEB840C89
:101B5000BDE810404CF0010C6047DFE80CF00708CE
:101B600002024FF00040A0F5800010BD0846420080
:101B700018BFD2F1807288BF00F0004010BDFF2175
:101B800041EAD050C005704790EA010F48BF81F08C
:101B900000413FF5C4AD421A04D882F00042A0EBE8
:101BA000020011444FEAD0524FF07F4C1CEA410F23
:101BB000A2EBD15318BF9CEA026F4AD04FF0004C01
:101BC0004CEA00204CEA012121FA03FCB0EB0C0C9A
:101BD0000FD412F0FE0F36D05FEA4C001DD5001274
:101BE00040EBC25038BF70471CF03F0F18BF704722
:101BF0000BE0A2F101025FEA1C2040EBC25038BFAB
:101C000070471CF07F0F18BF7047C3F12003994045
:101C100014BF401E20F00100704780084FEA1223D5
:101C200008BF7047B0FA80FCA2EB0C02CCF1280C84
:101C300060FA0CF093EA122F04BF00EBC250704719
:101C40004FEAC3707047130A5FEADC1008BF7047A1
:101C5000F6E79CEA026F04D010EA5C0F08BF002090
:101C6000704710B5FFF745FF40DFF63E81F00040BA
:101C700070470000941C00080000002008000000CD
:101C80006C0100089C1C0008080000207006000081
:0C1C9000880100080000000001000000B6
:0400000508000131BD
:00000001FF
