:020000040800F2
:100000009006002031020008390200083B02000877
:100010003D0200083F020008410200080000000005
:100020000000000000000000000000004302000883
:10003000450200080000000047020008F10800081F
:100040004B0200084B0200084B0200084B0200085C
:100050004B0200084B0200081D0500084B02000877
:100060004B0200084B0200084B0200084B0200083C
:100070004B0200084B0200084B0200084B0200082C
:100080004B0200084B020008E50400084B02000880
:100090004B0200084B0200084B0200084B0200080C
:1000A000950900084B0200084B0200084B020008AB
:1000B0004B0200084B0200084B0200084B020008EC
:1000C0004B0200084B0200084B0200084B020008DC
:1000D0004B020008B10B0008DD0C00084B020008C1
:1000E0004B0200084B0200084B0200084B020008BC
:1000F0004B0200084B0200084B0200084B020008AC
:100100004B0200084B020008490A00084B02000895
:100110004B0200084B0200081D0B0008490B0008A9
:100120004B0200084B0200084B0200084B0200087B
:100130004B0200084B0200084B0200084B0200086B
:100140004B0200084B0200084B0200084B0200085B
:100150004B0200084B0200084B0200084B0200084B
:100160004B0200084B0200084B0200084B0200083B
:100170004B0200084B0200084B0200084B0200082B
:100180004B0200084B02000800F002F800F041F8B2
:100190000AA090E8000C82448344AAF10107DA45E2
:1001A00001D100F036F8AFF2090EBAE80F0013F0F3
:1001B000010F18BFFB1A43F001031847D40B0000CE
:1001C000F40B0000103A24BF78C878C1FAD852075F
:1001D00024BF30C830C144BF04680C6070470000C1
:1001E0000023002400250026103A28BF78C1FBD840
:1001F000520728BF30C148BF0B607047642900F028
:100200007980002070471FB500F0BCFD1FBD10B500
:1002100010BD00F037F91146FFF7F5FF00F090FD33
:1002200000F055F903B4FFF7F2FF03BC00F062FDE4
:100230000948804709480047FEE7FEE7FEE7FEE77A
:10024000FEE7FEE7FEE7FEE7FEE7FEE704480549B6
:10025000054A064B704700002D0900088901000877
:1002600090000020900600209002002090020020C4
:10027000704700000FB4044910B503AA029800F0BB
:10028000D3F810BC5DF814FB000000202DE9F0410C
:100290000E460446002020622046E168884730B3BD
:1002A000252805D0D4E901219047206A401CF2E7B7
:1002B000E168204600278847050018D0A5F14100D5
:1002C000192802D820354FF40067324629462046C7
:1002D0002760FFF793FF40B1012804D0F61D26F0F8
:1002E00007060836D8E7361DD6E72846DAE7206A3B
:1002F000BDE8F0812DE9F04106460024106875291B
:10030000314616A510D0AFF30080002802DA404233
:1003100013A507E031688A0701D512A502E0490755
:1003200004D511A5012401E0AFF3008000210A22C9
:1003300006F1240709E0B0FBF2FCB0FBF2F302FB8C
:100340001C00303078541846491C0028F3D123464D
:100350002A463046BDE8F04100F00CB8000000002D
:100360002D0000002B0000002000000070477047A7
:10037000704770472DE9F0470D469946924604466E
:1003800000F124080168880604D5E06921F0100115
:10039000216000E00120A84201DD471B00E00027AA
:1003A000A1697A1902EB0900081AA0612078C00639
:1003B00002D42046AFF30080002608E0D4E90121F2
:1003C0001AF806009047206A401C761C20624E45B1
:1003D000F4DB2078C0060AD52046AFF3008006E0A3
:1003E000D4E9012130209047206A401C2062381E49
:1003F000A7F10107F4DC07E0D4E9012118F80500B2
:100400009047206A401C2062281EA5F10105F3DCFC
:100410002046AFF300802078000602D50220BDE818
:10042000F0870120FBE70000074B70B50D467B44C9
:1004300000F011F80446284600F020F810B14FF003
:10044000FF3070BD204670BDF308000001694A1CF2
:1004500002610878704700B58FB0CDE90131002105
:10046000059105497944CDE9031011466846FFF727
:100470000DFF0FB000BD0000E5FFFFFF007B00F0A7
:1004800080007047754600F029F8AE4605006946C1
:10049000534620F00700854618B020B5FFF7D6FE7A
:1004A000BDE820404FF000064FF000074FF0000875
:1004B0004FF0000B21F00701AC46ACE8C009ACE8F6
:1004C000C009ACE8C009ACE8C0098D4670470446D5
:1004D000AFF300802046FFF7A5FE000000487047FC
:1004E0002C00002010B50948006800F0020030B16F
:1004F0000648C06C84B2214605A0FFF7BBFE034846
:10050000806840F080400149886010BD00200140B3
:10051000646174613A25640D0A00000010B5154845
:10052000006800F0010018B30A2000F0E6FB124852
:10053000006900F00100D8B10E48006840F00100E9
:100540000C4908600D48006880F040000B490860C5
:100550000846006880F4007008600846006880F46F
:10056000806008600648006880F001000449086067
:1005700010BD0000143C0140000002401414024071
:10058000140802400F49096841F001010D4A116049
:1005900000BF0C49096801F002010029F9D045F2B9
:1005A0005551094A11601146496841F003015160F3
:1005B000114688604AF6AA2111604CF6CC411160C0
:1005C00070470000743802400030004010B50C49FC
:1005D000087800F0ADF84FF4967000F098FB0849E9
:1005E000087800F07BF806480068401C0449086061
:1005F00008460068032801DD0020086010BD0000E7
:100600000C0000202F48006840F020002D490860B1
:100610000846006840F0040008602B4800682B4939
:1006200008402949086008460068294908432649C6
:1006300008602848006820F0030026490860084642
:10064000006840F0010008601F48001D006820F4A9
:10065000C8601D49091D08601E48001D006820F083
:1006600001001C49091D0860174808300068174937
:1006700008401549083108600846006816490843D3
:1006800011490831086013480830006820F0030061
:100690001049083108600846006840F00200086010
:1006A00009481430006840F4C860074914310860F4
:1006B00008481430006840F0010006491431086011
:1006C000704700003038024000140240FFCFC3FFE3
:1006D00000101400000802400020200030B1012862
:1006E0000BD0022810D003281CD114E00E49096851
:1006F00041F040010C4A116014E00B49096841F4D3
:100700000071094A11600DE00749096841F48061F0
:10071000054A116006E00549096841F00101034AF4
:10072000116000BF00BF704714140240140802405B
:1007300030B101280BD0022810D003281CD114E0BE
:100740000E49096821F040010C4A116014E00B4980
:10075000096821F40071094A11600DE00749096830
:1007600021F48061054A116006E00549096821F01D
:100770000101034A116000BF00BF7047141402401A
:100780001408024000F01F0201219140420992002A
:1007900002F1E022C2F800117047F0B503460C46A2
:1007A00003F00701C1F10700042801D9042001E08A
:1007B000C1F107000646081D072801D2002000E00D
:1007C000C81E05460120B040401E2040A840012719
:1007D000AF407F1E17403843F0BD000010B5002821
:1007E00007DA0A07140E054A00F00F031B1FD45442
:1007F00003E00A07130E024A135410BD18ED00E07F
:1008000000E400E00CB5002001900090344800683E
:1008100040F480303249086000BF3148006800F47D
:10082000003000900198401C0190009818B9019880
:10083000B0F5A04FF1D12A48006800F4003010B1A3
:100840000120009001E0002000900098012846D18E
:1008500023484030006840F0805021494031086012
:100860002048006840F440401E4908601C48083099
:1008700000681B49083108600846006840F40040E1
:1008800008600846006840F4A05008601648091F38
:100890000860081F006840F08070091F086000BFF2
:1008A0000F48006800F000700028F9D040F2057091
:1008B0000E4908600A480830006820F00300084923
:1008C000083108600846006840F00200086000BF78
:1008D00003480830006800F00C000828F8D10CBD6F
:1008E000003802400070004019544007003C0240AC
:1008F0004FF0E020006900F4803048B1FF204FF055
:10090000E02188610348006880F0400001490860E8
:1009100070470000141402404FF0E020006920F0FE
:1009200004004FF0E02108617047000010B5154841
:10093000006840F47000134908601348006840F0F4
:1009400001001149086000200F49083108600E4875
:1009500000680E4908400C4908600D48091D0860F0
:10096000081F006820F48020091F08600020064945
:100970000C310860FFF746FF4FF0006001498039F5
:10098000086010BD88ED00E000380240FFFFF6FE71
:100990001030002470B51F48008A00F0040048B1F0
:1009A0001C48008A20F004001A4908820846806B1F
:1009B000194908801748008A00F4007048B31548A8
:1009C000008A20F00200134908820846008A20F4B9
:1009D000007008820846406B84B20F48008800EE21
:1009E000100AF8EE400A00EE104AB8EE401A80EE07
:1009F000810ADFED0A0A20EE200ABCEEC00A10EEE2
:100A0000100A85B22B4604480288214604A0FFF74D
:100A100031FC70BD004001402A0000200000C842A7
:100A2000D6DCC6DAA3BA2564202020B8DFB5E7C635
:100A3000BDA3BA2564202020D5BCBFD5B1C8A3BAB8
:100A4000256425250D0A000070B52C48008800F0AB
:100A5000010068B12948008820F00100274908807A
:100A60002748007820B127480088401C2549088085
:100A70002248008800F0020000283ED01F481030B5
:100A8000008800F0020080B901201D4908701B4851
:100A9000243000681C49088018481030008840F055
:100AA000020016491031088027E0144810300088F1
:100AB00000F0020008B311482430006886B21148E3
:100AC0000088C0EB004010490988401A304484B2C5
:100AD0000A2094FBF0F085B229460CA0FFF7CAFB70
:100AE0000020084908800649087004481030008832
:100AF00020F0020001491031088070BD100C004048
:100B0000260000202400002028000020C2F6B3E5C3
:100B1000BFEDB6C8A3BA25640D0A00000848008AD4
:100B200000F0010058B10648008A20F00100044995
:100B300008820448006880F4C86002490860704771
:100B400000100040141402401648008800F0010014
:100B500000B31448008820F00100124908801248B0
:100B6000007858B91148006818B901200E4908707A
:100B700004E00E48006832380C4908600A480078E2
:100B800001280DD109480068B0F57A7F03D1002013
:100B90000549087004E005480068323003490860E0
:100BA0007047000010140040080000203444014049
:100BB0000E48008800F0200038B10C4880880C48AE
:100BC000006820F040000A4908600848008800F0EA
:100BD000100048B10548008804488088044800682F
:100BE00040F04000024908607047000000100140DA
:100BF0001414024070B504463448006840F0010007
:100C0000324908603248006820F4701030490860AA
:100C10000846006840F4201008600846406820F448
:100C2000007048600846806820F4402088600846CC
:100C3000806840F4002088600846C06820F44010B6
:100C4000C8600846406A20F47F6121484162406ADA
:100C500040F4EE611E4841621C481430006840F0C8
:100C600010001A49143108601A48808920F4104095
:100C7000184988810846808940F00C008881084620
:100C8000808940F0200088810846808940F010006B
:100C900088810846008A20F4405008820E48B0FB44
:100CA000F4F00881022201210520FFF776FDC5B28C
:100CB00029462520FFF792FD2520FFF763FD054813
:100CC000808940F400500349888170BD303802406B
:100CD000000002400010014000BD010504480088EA
:100CE00000F0200010B10248001D0088704700008D
:100CF00000440040014600BF704701464AF21042DE
:100D000001FB02F000E0401E0028FCD170470146C4
:100D10004AF2104201FB02F000E0401E0028FCD124
:100D20007047000000BF054A128802F04002002A06
:100D3000F9D0C2B2014B9A80704700000010014008
:100D4000FFF7EAFD4FF4E130FFF754FF05200246BC
:100D50000A4B19684FF6FF031940094B0B4343EA4E
:100D60000221064B196000BFFFF74CFC4FF47A706C
:100D7000FFF708FC01E0FFF729FCFCE70CED00E0C1
:100D80000000FA054FF04070E1EE100A70470000D5
:100D9000B00D0008000000202C000000C401000875
:100DA000DC0D00082C00002064060000E0010008B3
:100DB0000000000001000000000000000000000032
:100DC0000000000000000000010000000000000022
:0C0DD00000000000000000000000000017
:040000050800018965
:00000001FF
