:020000040800F2
:1000000070060020290200083102000833020008AF
:10001000350200083702000839020008000000001D
:100020000000000000000000000000003B0200088B
:100030003D020008000000003F0200084D070008D4
:10004000430200084302000843020008430200087C
:10005000430200084302000871030008430200083D
:10006000430200084302000843020008430200085C
:10007000430200084302000843020008430200084C
:10008000430200084302000843020008430200083C
:10009000430200084302000843020008430200082C
:1000A000430200084302000843020008430200081C
:1000B000430200084302000843020008430200080C
:1000C00043020008430200084302000843020008FC
:1000D00043020008F10700083D0900084302000838
:1000E00043020008430200084302000843020008DC
:1000F00043020008430200084302000843020008CC
:1001000043020008430200084302000843020008BB
:1001100043020008430200084302000843020008AB
:10012000430200084302000843020008430200089B
:10013000430200084302000843020008430200088B
:10014000430200084302000843020008430200087B
:10015000430200084302000843020008430200086B
:10016000430200084302000843020008430200085B
:10017000430200084302000843020008430200084B
:10018000430200084302000800F002F800F03CF8C7
:100190000AA090E8000C82448344AAF10107DA45E2
:1001A00001D100F031F8AFF2090EBAE80F0013F0F8
:1001B000010F18BFFB1A43F001031847E8090000BC
:1001C000080A0000103A24BF78C878C1FAD852074C
:1001D00024BF30C830C144BF04680C6070470000C1
:1001E0000023002400250026103A28BF78C1FBD840
:1001F000520728BF30C148BF0B6070471FB500F0E1
:10020000CBFC1FBD10B510BD00F06EF81146FFF716
:10021000F5FF00F08BFC00F0A0F803B4FFF7F2FF4D
:1002200003BC00F067FC000009488047094800470C
:10023000FEE7FEE7FEE7FEE7FEE7FEE7FEE7FEE796
:10024000FEE7FEE704480549054A064B70470000F3
:10025000890700088901000870000020700600204E
:100260007002002070020020704700000FB40449A3
:1002700010B503AA029800F009F810BC5DF814FB51
:10028000040000207047704770477047074B70B5F7
:100290000D467B4400F011F80446284600F020F893
:1002A00010B14FF0FF3070BD204670BD7B080000DC
:1002B00001694A1C02610878704700B58FB0CDE92A
:1002C00001310021059105497944CDE9031011461A
:1002D000684600F02EF80FB000BD0000E5FFFFFFFC
:1002E000007B00F080007047754600F03DF8AE4698
:1002F00005006946534620F00700854618B020B532
:10030000FFF7A0FFBDE820404FF000064FF00007C8
:100310004FF000084FF0000B21F00701AC46ACE8AD
:10032000C009ACE8C009ACE8C009ACE8C0098D461A
:1003300070472DE9F04106460024D6E90170F568C2
:100340008046304603E04146B847641C3046A84723
:100350000028F8D12046BDE8F0810446AFF30080C4
:100360002046FFF75AFF00000048704710000020A9
:1003700010B51548006800F0010018B30A2000F01D
:10038000BCFB1248006900F00100D8B10E480068BB
:1003900040F001000C4908600D48006880F0400002
:1003A0000B4908600846006880F400700860084641
:1003B000006880F4806008600648006880F00100F2
:1003C0000449086010BD0000143C014000000240D8
:1003D00014140240140802402F48006840F0200026
:1003E0002D4908600846006840F0040008602B486A
:1003F00000682B49084029490860084600682949D7
:100400000843264908602848006820F00300264970
:1004100008600846006840F0010008601F48001DA1
:10042000006820F4C8601D49091D08601E48001DB1
:10043000006820F001001C49091D086017480830B9
:1004400000681749084015490831086008460068E7
:1004500016490843114908310860134808300068FC
:1004600020F003001049083108600846006840F099
:100470000200086009481430006840F4C860074969
:100480001431086008481430006840F00100064943
:1004900014310860704700003038024000140240F8
:1004A000FFCFC3FF0010140000080240002020000E
:1004B00000F01F02012191404209920002F1E02266
:1004C000C2F800117047F0B503460C4603F007016F
:1004D000C1F10700042801D9042001E0C1F107009F
:1004E0000646081D072801D2002000E0C81E054668
:1004F0000120B040401E2040A8400127AF407F1E91
:1005000017403843F0BD000010B5002807DA0A078D
:10051000140E054A00F00F031B1FD45403E00A0712
:10052000130E024A135410BD18ED00E000E400E081
:100530003B48006840F002003949086039480068CB
:1005400020F47C60374908600846006840F4286061
:100550000860081D006820F00800091D08600846B2
:10056000006820F020000860081D006820F0C0002E
:10057000091D08600846006820F4406008600846CD
:10058000006840F0800008600846006840F40060A1
:100590000860081D006820F44070091D08602148AB
:1005A00020300068204908401E4920310860084674
:1005B00000681E4908431B49203108601848143060
:1005C000006840F4805016491431086018480088CB
:1005D00020F0FF00164908800846008840F40070AB
:1005E00008800846008840F480700880084600882B
:1005F00040F0080008800846008840F004000880A9
:100600000846808820F0FF0088800846808B6FF3C2
:100610000B0088830846008840F04000088070473F
:10062000303802400004024000F0FF000050550046
:100630000030014000BF0949098901F00201002989
:10064000F9D00649888100BF0449098901F00101F8
:100650000029F9D001498989C8B2704700300140AA
:100660000CB50020019000903448006840F48030C0
:100670003249086000BF3148006800F40030009043
:100680000198401C0190009818B90198B0F5A04F4E
:10069000F1D12A48006800F4003010B10120009028
:1006A00001E0002000900098012846D12348403006
:1006B000006840F0805021494031086020480068BF
:1006C00040F440401E4908601C48083000681B493F
:1006D000083108600846006840F400400860084699
:1006E000006840F4A05008601648091F0860081F01
:1006F000006840F08070091F086000BF0F48006864
:1007000000F000700028F9D040F205700E49086032
:100710000A480830006820F00300084908310860E2
:100720000846006840F00200086000BF0348083037
:10073000006800F00C000828F8D10CBD0038024019
:100740000070004019544007003C02404FF0E02088
:10075000006900F4803048B1FF204FF0E02188614B
:100760000348006880F040000149086070470000BD
:10077000141402404FF0E020006920F004004FF014
:10078000E02108617047000010B51548006840F48A
:100790007000134908601348006840F001001149D7
:1007A000086000200F49083108600E4800680E49B3
:1007B00008400C4908600D48091D0860081F0068C2
:1007C00020F48020091F0860002006490C310860D1
:1007D000FFF746FF4FF0006001498039086010BD07
:1007E00088ED00E000380240FFFFF6FE10300024E4
:1007F00008B51548008800F02000A0B11248808894
:10080000C0B200906A4601211048006800F012F959
:100810000E480068401C0D4908600D48006820F033
:1008200040000B4908600848008800F0100048B1FB
:1008300005480088044880880548006840F040006A
:100840000349086008BD0000001001400C000020B2
:100850001414024070B504463448006840F00100AA
:10086000324908603248006820F47010304908604E
:100870000846006840F4201008600846406820F4EC
:10088000007048600846806820F440208860084670
:10089000806840F4002088600846C06820F440105A
:1008A000C8600846406A20F47F6121484162406A7E
:1008B00040F4EE611E4841621C481430006840F06C
:1008C00010001A49143108601A48808920F4104039
:1008D000184988810846808940F00C0088810846C4
:1008E000808940F0200088810846808940F010000F
:1008F00088810846008A20F4405008820E48B0FBE8
:10090000F4F00881022201210520FFF7DCFDC5B2C9
:1009100029462520FFF7F8FD2520FFF7C9FD0548EA
:10092000808940F400500349888170BD303802400E
:10093000000002400010014000BD0105064800888B
:1009400000F0200038B10448001D008803490870F9
:100950000120034908707047004400400000002057
:100960000100002010B5044600F0B0F810480068FF
:1009700020F480400E490860D820FFF75BFEC4F3E6
:100980000740FFF757FEC4F30720FFF753FEE0B21E
:10099000FFF750FE0648006840F4804004490860B4
:1009A00000BF00F07BF800F001000028F9D110BD75
:1009B0001404024070B505460C4606E02846FFF7D1
:1009C000D1FF05F58035601EC4B2002CF6D170BD94
:1009D00010B5FFF7ADFD1548006840F0020013495F
:1009E00008601348006820F040501149086008462C
:1009F000006840F080500860081D006820F48040C6
:100A0000091D0860081D006820F04050091D08609D
:100A10000846006840F0005008600548143000683F
:100A200040F4804002491431086010BD3038024063
:100A30000004024070B504460D46164600F046F824
:100A40001548006820F48040134908600220FFF731
:100A5000F1FDC4F30740FFF7EDFDC4F30720FFF7F6
:100A6000E9FDE0B2FFF7E6FD05E03078FFF7E2FDD3
:100A7000761C681E85B2002DF7D10748006840F447
:100A800080400549086000BF00F008F800F0010050
:100A90000028F9D170BD00001404024010B50A48C6
:100AA000006820F48040084908600520FFF7C2FD77
:100AB000FF20FFF7BFFD04460348006840F4804074
:100AC00001490860204610BD1404024010B50848D2
:100AD000006820F48040064908600620FFF7AAFD60
:100AE0000348006840F480400149086010BD0000E0
:100AF00014040240014600BF704701464AF210420A
:100B000001FB02F000E0401E0028FCD1704700000D
:100B100000BF054A128802F04002002AF9D0C2B292
:100B2000014B9A807047000000100140FFF722FE41
:100B300005200246104B19684FF6FF0319400F4B72
:100B40000B4343EA02210C4B196000BF4FF4E13024
:100B5000FFF780FEFFF73CFFFFF73EFC08A0FFF722
:100B600085FB15214FF43020FFF724FF07A0FFF786
:100B70007DFB00BFFEE700000CED00E00000FA0581
:100B8000BFAACABCB2C1B3FD0D0A0000B2C1B3FD19
:100B9000CDEAB3C90D0A00004FF04070E1EE100A33
:100BA00070470000C40B0008000000201000000087
:100BB000C4010008D40B00081000002060060000EB
:100BC000E00100080000000000000000010000003B
:040BD00000000B0016
:040000050800018965
:00000001FF
