:020000040800F2
:10000000D04800201D020008210200082302000839
:10001000250200082702000829020008000000004D
:100020000000000000000000000000002B0200089B
:100030002D020008000000002F020008A50900089A
:1000400033020008330200083302000833020008BC
:1000500033020008330200083302000833020008AC
:1000600033020008330200080905000833020008C3
:10007000330200083302000833020008330200088C
:10008000330200083302000833020008330200087C
:10009000330200083302000833020008330200086C
:1000A000330200083302000833020008330200085C
:1000B0003302000833020008E10900083302000897
:1000C000330200083302000833020008330200083C
:1000D00033020008310B00082D0C00083302000821
:1000E000330200083302000833020008330200081C
:1000F000330200083302000833020008C904000874
:1001000033020008330200083302000833020008FB
:1001100033020008330200089D0A0008C90A0008DB
:1001200033020008330200083302000833020008DB
:1001300000F002F800F063F80AA090E8000C824496
:100140008344AAF10107DA4501D100F058F8AFF273
:10015000090EBAE80F0013F0010F18BFFB1A43F0A5
:10016000010318476C0F00008C0F000010F8013BD2
:100170000A4413F0030408BF10F8014B1D1108BF17
:1001800010F8015B641E05D010F8016B641E01F8C5
:10019000016BF9D1002D15D010F8014B03F00C03C1
:1001A0000C2BA1EB04040ABF10F8013BA4EB831451
:1001B000A4EB032405F1010314F8016B5B1E01F8A5
:1001C000016BF9D5914238BF10F8013BD1D370478C
:1001D0000023002400250026103A28BF78C1FBD850
:1001E000520728BF30C148BF0B607047642900F038
:1001F0007380002070471FB51FBD10B510BD00F003
:1002000033F91146FFF7F7FF00F06CFD00F051F9EC
:1002100003B4FFF7F2FF03BC00F014FD08480047E9
:10022000FEE7FEE7FEE7FEE7FEE7FEE7FEE7FEE7A6
:10023000FEE7FEE703480449044A054B7047000007
:1002400031010008D0420020D0480020D0440020D6
:10025000D0440020704700000FB4044910B503AA31
:10026000029800F0D3F810BC5DF814FB00000020E9
:100270002DE9F0410E460446002020622046E16848
:10028000884730B3252805D0D4E901219047206A5A
:10029000401CF2E7E168204600278847050018D097
:1002A000A5F14100192802D820354FF400673246E5
:1002B000294620462760FFF799FF40B1012804D066
:1002C000F61D26F007060836D8E7361DD6E728467D
:1002D000DAE7206ABDE8F0812DE9F0410646002406
:1002E00010687529314616A510D0AFF3008000289C
:1002F00002DA404213A507E031688A0701D512A54A
:1003000002E0490704D511A5012401E0AFF3008004
:1003100000210A2206F1240709E0B0FBF2FCB0FB41
:10032000F2F302FB1C00303078541846491C0028B8
:10033000F3D123462A463046BDE8F04100F00CB820
:10034000000000002D0000002B0000002000000035
:1003500070477047704770472DE9F0470D46994642
:100360009246044600F124080168880604D5E06935
:1003700021F01001216000E00120A84201DD471BAF
:1003800000E00027A1697A1902EB0900081AA061B0
:100390002078C00602D42046AFF30080002608E093
:1003A000D4E901211AF806009047206A401C761C07
:1003B00020624E45F4DB2078C0060AD52046AFF314
:1003C000008006E0D4E9012130209047206A401CDB
:1003D0002062381EA7F10107F4DC07E0D4E901210F
:1003E00018F805009047206A401C2062281EA5F1DD
:1003F0000105F3DC2046AFF300802078000602D52B
:100400000220BDE8F0870120FBE70000074B70B534
:100410000D467B4400F011F80446284600F020F811
:1004200010B14FF0FF3070BD204670BDB308000022
:1004300001694A1C02610878704700B58FB0CDE9A8
:1004400001310021059105497944CDE90310114698
:100450006846FFF70DFF0FB000BD0000E5FFFFFF8E
:10046000007B00F080007047754600F029F8AE462A
:1004700005006946534620F00700854618B020B5B0
:10048000FFF7D8FEBDE820404FF000064FF0000710
:100490004FF000084FF0000B21F00701AC46ACE82C
:1004A000C009ACE8C009ACE8C009ACE8C0098D4699
:1004B00070470446AFF300802046FFF7A9FE000016
:1004C000004870477042002010B50B48006800F0EB
:1004D000020038B108484C30006884B2214607A0B9
:1004E000FFF7BAFE04480830006840F48000024973
:1004F0000831086010BD0000003C01406461746177
:100500003A25640D0A00000010B50D48006800F09F
:10051000100098B10A2000F0B6FB0A48006800F00D
:10052000100058B90648006840F0100004490860FF
:100530000548006880F020000349086010BD0000F5
:1005400014040140081801400C0C01401648806951
:1005500040F04800144988611448006820F4700095
:10056000124908600846006840F4401008601048CE
:10057000006820F470000E4908600846006840F4E6
:100580004010086009480C30006840F0200007491E
:100590000C31086006480C30006840F02000044927
:1005A0000C3108607047000000100240000C014050
:1005B0000018014000B5002015490861C8601420EA
:1005C000486100208861C8610846006840F0010069
:1005D0000860084640680F4908400D4948600846D1
:1005E00000680D4908400A4908600846006820F480
:1005F000802008600846406820F4FE004860002023
:10060000886000214FF0006000F008F800BD000095
:10061000001002400000FFF8FFFFF6FE024A0A4009
:100620000243024B1A60704780FFFF1F08ED00E095
:1006300000F01F02012191404209920002F1E022E4
:10064000C2F800117047F0B503460C4603F00701ED
:10065000C1F10700042801D9042001E0C1F107001D
:100660000646081D072801D2002000E0C81E0546E6
:100670000120B040401E2040A8400127AF407F1E0F
:1006800017403843F0BD000010B5002807DA0A070C
:10069000140E054A00F00F031B1FD45403E00A0791
:1006A000130E024A135410BD18ED00E000E400E000
:1006B00030B5002419E004F1B001C8B2002100F007
:1006C000D7F80021084600F0D3F80021102000F0F0
:1006D000CFF8002505E00121002000F0C9F8681CD2
:1006E000C5B2802DF7DB601CC4B2082CE3DB30BD43
:1006F000082007498861074800686FF30F00054923
:1007000008600846006804490843024908607047C9
:1007100000100240040C01400000333310B5FFF715
:10072000E7FF4348006820F4805041490860642096
:1007300000F0A9FA3E48006840F480403C49086057
:100740000021AE2000F094F80021084600F090F857
:100750000021102000F08CF80021402000F088F8E3
:100760000021812000F084F80021CF2000F080F8E3
:100770000021A12000F07CF80021C82000F078F8CA
:100780000021A62000F074F80021A82000F070F8E5
:1007900000213F2000F06CF80021D32000F068F821
:1007A0000021084600F064F80021D52000F060F830
:1007B0000021802000F05CF80021D92000F058F8DA
:1007C0000021F12000F054F80021DA2000F050F868
:1007D0000021122000F04CF80021DB2000F048F846
:1007E0000021402000F044F80021202000F040F8D3
:1007F0000021022000F03CF800218D2000F038F8A4
:100800000021142000F034F80021A42000F030F87A
:100810000021A62000F02CF80021AF2000F028F8DD
:10082000FFF746FF0021084600F05EF810BD00000B
:100830000C0C01402DE9F04180460E46144600257F
:1008400011E07019C1B2404600F04EF8002706E0F2
:100850002078012100F00CF8641C781CC7B2402FEE
:10086000F6DB681CC5B2082DEBDBBDE8F0810000AB
:1008700010B50A461B4B1B6823F40043194C236038
:100880002AB123461B6843F48053236005E0154BCF
:100890001B6823F48053134C236000211EE0114B8E
:1008A0001B6823F400530F4C236000F080032BB12E
:1008B00023461B6843F40043236005E0094B1B6893
:1008C00023F40043074C2360064B1B6843F400539A
:1008D000044C23604306180E4B1CD9B20829DEDBFA
:1008E00010BD00000C0C014030B504460D4605F16A
:1008F000B001C8B20021FFF7BBFF04F00F000021D8
:10090000FFF7B6FF102141EA24100021FFF7B0FFE6
:1009100030BD000030B504460025FFF74BFE1F48F0
:10092000006840F480301D49086000BF1B48006823
:10093000400C0028FAD04FF4806018494860A01E8F
:10094000C4B20846406840EA8440486008464068AF
:1009500040F4803048601248006840F0320010498E
:1009600008600E48006840F080700C49086000BFC5
:100970000A480068400E0028FAD00848406840F055
:1009800002000649486005E004484068C0F3870556
:1009900005F00305022DF7D130BD00000010024024
:1009A000002002404FF0E020006900F4803048B1A0
:1009B000FF204FF0E02188610348006880F02000AC
:1009C00001490860704700000C1801404FF0E0201A
:1009D000006920F004004FF0E0210861704700003A
:1009E0002DE9F0472048008800F0040050B11E486F
:1009F000008820F004001C4908801B48283000882B
:100A00001A4908801848008800F40070002828D08F
:100A10001548008820F00200134908800846008825
:100A200020F400700880104824300488204600F02C
:100A30006FFA80460D48008800F06AFA8146414608
:100A400000F084F907460A4900F076FA064600F0FD
:100A50003FFA85B22B4605480288214605A0FFF7DC
:100A6000FBFBBDE8F08700001008004006000020F6
:100A70000000C842D6DCC6DAA3BA2564202020B81C
:100A8000DFB5E7C6BDA3BA2564202020D5BCBFD5FD
:100A9000B1C8A3BA256425250D0A00000848008ABC
:100AA00000F0010058B10648008A20F00100044916
:100AB00008820448006880F02000024908607047FE
:100AC000001000400C1801401648008800F001009A
:100AD00000B31448008820F0010012490880124831
:100AE000007858B91148008818B901200E490870DB
:100AF00004E00E48008814380C4908800A48007841
:100B000001280DD109480088B0F57A7F03D1002073
:100B10000549087004E0054800881430034908803E
:100B2000704700001014004004000020380400400A
:100B30000948008800F0200010B10748001D008817
:100B40000548008800F0100020B1034800880248E2
:100B5000001D0088704700000038014070B5044651
:100B60002D48806940F004002B4988612B480068BB
:100B700020F47F60294908600846006840F49660C8
:100B800008602748406820F0040025494860224852
:100B9000C06840F480402049C8600846C06820F41E
:100BA0008040C8600846806940F4804088611D48E4
:100BB000008820F480501B4908800846008840F0D7
:100BC0000C0008800846008840F020000880084695
:100BD000008840F010000880081D008820F4405074
:100BE000091D08801048B0FBF4F00E49091F088069
:100BF000022201210520FFF726FDC5B22946252046
:100C0000FFF742FD2520FFF713FD0648008840F45A
:100C100000500449088070BD0010024004080140E3
:100C2000000001400C38014000A24A04044800883A
:100C300000F0200010B10248001D0088704700003D
:100C400000440040014600BF7047FF214FF0E02202
:100C5000916142F22831414351611146096941F0E5
:100C60000101116100BF4FF0E021096901F48031F9
:100C70000029F8D04FF0E021096921F001014FF07F
:100C8000E0221161704730B503460025B3F5E96FE6
:100C900003DC1846FFF7D9FF15E004E0A3F5E9608F
:100CA00083B2681CC5B2B3F5E96FF7DA002405E03A
:100CB0004FF4E960FFF7C9FF601CC4B2AC42F7DB38
:100CC0001846FFF7C2FF30BD00BF054A128802F088
:100CD0004002002AF9D0C2B2014B1B1D1A80704796
:100CE000003801400920FFF715FE05200246144B8D
:100CF00019684FF6FF031940124B0B4343EA0221D8
:100D00000F4B196000BFFFF761FE4FF4E130FFF7B2
:100D100025FFFFF71BFCFFF701FD0FE000240BE0B0
:100D2000094800EB442200210846FFF783FD5020CC
:100D3000FFF7A9FF601CC4B2072CF1DBEEE700004F
:100D40000CED00E00000FA056F3400204FF47F0C3A
:100D50001CEAD0121EBF1CEAD11392EA0C0F93EAD0
:100D60000C0F00F0858090EA010F48BF42F48072BA
:100D700040F4000C41F400002CF07F4120F07F4053
:100D800000B58142A2EB03020FF2081CACEB504EFF
:100D9000C0F100009EF800E04FEA4E0E00FB0EFC92
:100DA00038BF49004FEA2C1C02F5FA020CFB0EF387
:100DB0004FEACE1E4FEA112C4FEAC1210EEB635EC3
:100DC00042EB22420EFB0CFC4FEA1C5300FB0311CA
:100DD0004FEA112C4FEA01310EFB0CFC4FEADC4CC0
:100DE00000FB0C11C14228BF09184CEB03335DF81E
:100DF00004EB10EB410143EBC250B2F57C0F38BF5E
:100E0000704729D512F0F00F1CBF00F1C04000F070
:100E100000407047008182838485868788898B8C17
:100E20008D8E8F919293959697999A9C9D9FA0A253
:100E3000A3A5A7A8AAACAEB0B2B3B5B7B9BCBEC0A3
:100E4000C2C5C7C9CCCED1D4D7D9DCDFE2E6E9EC44
:100E5000F0F3F7FAFE0000004FEA400C0CF1807C42
:100E6000BCF17E4F28BF7047B0F1C04000F02BB9F5
:100E700090EA010F0CEAD11348BF42F48072624538
:100E800038BF634507D213F47F0F16D080EA010004
:100E900000F00040704710B500F0CFF8097EFC3E2E
:100EA00000F005B880EA010000F00040704780EAD9
:100EB000010000F0004000F006B912F47F0F04BFFB
:100EC0000248704780EA010000F0FDB80000C07FD2
:100ED000C10DD1F19E0206DB4FEA002343F000432F
:100EE00023FA02F07047004207D54FEA4001B1F102
:100EF000FE4F02D24FF00000704710B500F09DF891
:100F000049922480002070476FEA2000704700005B
:100F1000B0FA80F310FA03F2C3F19D030AD0D905A9
:100F200001EB1220530638BF704700F1010008BFE3
:100F300020F00100704700004FF47F0C1CEAD01233
:100F40001EBF1CEAD11392EA0C0F93EA0C0F00F0BB
:100F5000478090EA010F48BF42F480724FF0004C86
:100F60004CEA00204CEA012102EB0302A0FB011332
:100F7000A2F50002002918BF43F001035B0028BF5F
:100F80004FEA330342EB22425FEA132C4CEBC25090
:100F90002EBFBCEB436FB2F57C0F70474FEA036C7A
:100FA000BCF1004F08BF20F00100B2F57C0F38BF44
:100FB00070470BD582F0FF0212F5803FC8BF704723
:100FC00000F1C040D8BF00F00040704700F5000CB1
:100FD0005FEA4C0C48BF7047B0F1C04000F073B8F6
:100FE00090EA010F0CEAD11348BF42F480726245C7
:100FF00038BF634504D280EA010000F0004070472A
:1010000010B500F01AF800BF8900013E00F007B8E3
:1010100000F009B85FEA410C5FEA1C6C08D080EA76
:10102000010000F050B85FEA400C5FEA1C6CF6D19A
:101030004FF00040A0F5800070470EF1020E2EF038
:10104000030E5EF8044B244204D44FEA4102B2F18D
:101050007F4F11D84FEA4003B3F17F4F0CD80ED128
:101060004FEAD07CB2F17F4F0CEB4C0C0CF1020C30
:1010700008BF4CEBD17C04E04FF0080C01E04FEAD4
:10108000D17C0CEB4C0324FA03F404F00704B4F114
:10109000040C06D20EEB840CBDE810404CF0010CA1
:1010A0006047DFE80CF0070802024FF00040A0F5AF
:1010B000800010BD0846420018BFD2F1807288BF80
:1010C00000F0004010BDFF2141EAD050C00570473C
:1010D000F010000800000020704200006C010008C1
:1010E000982E00087042002060060000D001000821
:1010F000B2000120195E0000040602243C243C00DA
:101100004CFE001E7A5E78705E3E4800061C10148D
:101110007C82423C000018103C1810107C1000C06B
:101120000000100110220040000080701C023844B2
:10113000380000447C406C544C0044546C003068CF
:101140007C604C4C7C007804100600047C006C141D
:10115000135C54411300484C12C84910042442182F
:1011600001101800422418000C540C3C7A767C4084
:10117000383840447C7C003844444B1150110C22D8
:10118000401020046464200C11601009448084FC29
:1011900004007C4418300544007C602022047C104C
:1011A00004407C5C2812F83410083C404C547C000D
:1011B000042C214010120C30300C1C247C0C6C10C0
:1011C0006C000448704864A020090000FE0000067E
:1011D00038C00710060001000180012109101E68B7
:1011E000687840007E780070484800784A7E0000A9
:1011F000787800487E4A00F8A8B8C84218100B005A
:10120000487A400088FA00007EEC1009427E40785F
:1012100008780848241370481C300BF8F80078C888
:10122000F8004878483843087C0810071820201830
:10123000186828200830480088D838081C00121088
:101240000010FE820000FF0082FE10000101020279
:10125000000156F8913233061004100C020385A7E2
:10126000100440C078031558133F0403140900000C
:10127000708888FC083054100D2020FF211E00F0DB
:1012800008F08060183E1005310C031E1011111378
:1012900088700FE00C1E21232C1927211000120E3C
:1012A000703004E01804601404071820D1300502DF
:1012B0000418E06820042018076F600C4080F0805C
:1012C0004040000202010FAF3120130101117301F0
:1012D0000146CB90704F32010181B87330307113E9
:1012E000C038B832605F117E1005100808107220F7
:1012F000070F102020100FF1461001100620203F8C
:101300002020E012080112F040100528242221E8D4
:1013100012300F21D2100718202121221C7920041D
:10132000804030311016060524243F242400F8881C
:101330008888080800001920202011EC1406E0100D
:1013400088889048130F11111A1FC5113F26682174
:1013500033003EBD43708850431C225043F0089038
:101360002006011222221190C00400C0C0C2668073
:1013700038510F10044020107010060102040810AC
:10138000B0324001154831011300001522403211DE
:101390002513040272437048C0115026370C1405FF
:1013A00030C828E8003408071827282F28171E25DA
:1013B00080200A203C23020227382008D0119F25D4
:1013C0000D21D026C000270838AD15304005080093
:1013D00008F8B03120154021303004E8081030A062
:1013E000042320181033000370313F3140200422C1
:1013F0001E024011A41009F808203F2101012125F7
:10140000220852857F5200111EC02903227F0E2020
:1014100007F888C028180870400501263820405277
:1014200000A0132030201EF80F0321202004013ECD
:10143000014F4004F830C0601220E4363FEF21B085
:1014400025EF41B045E03180930100203006282887
:1014500030504FC0250131C034040C3020B021C1C0
:101460004A380032189F42188231A041D023001F11
:10147000901C061F0008788873041D7C0314050067
:1014800007380E7F12089F2200241405033E013EF8
:10149000114014081868808068180820302C030355
:1014A0002C30200838C82F5150218F213F1C052097
:1014B000382621CF032DA00336FED8340400007F48
:1014C000E85B04381F2F0001570425F82D5B042921
:1014D0000825301D55050C0410020204E503528056
:1014E00001F2001E3D910419C0140424241240404E
:1014F0000410F000104B3F11D061212A0ED0421190
:101500004A1E90200321F02210B34DD20410040093
:101510001F2401195094078080E0909020D04177DB
:101520004008006B949494936060110F158041F310
:10153000AC048098987F03216131125901119031D8
:10154000311406203F2406298FEDAF0361D7214BCC
:101550002103112BC16071A045A03120216583FFBB
:1015600091E02D630321E03391FF4C315019A11E0E
:1015700020B10571C02233E03219E0453125025215
:10158000104D7680106140293D430C035D211230DF
:1015900009010E300C07380601CD31A14406310E89
:1015A0002E31200D21751005818678181F51D13CF0
:1015B00006000021302C800429024AFC012F013E44
:1015C000E9032DCE05411721084C040202FCA705B2
:1015D0004E405F041F000236050E1204E705011D90
:1015E000018BF0F0138F770F48056B1C1C2810053A
:1015F00060301C8C04021C0C47610510058383FFBE
:1016000083011004FB8783B93E1F9E053E1FBF0563
:101610003C0880C06020F820E0E5043C0903070C8A
:1016200018FF71E1810F061C070F12107F100F05C4
:10163000061C04C03010C5031D7B043D2506300781
:101640001018CF38C631122E00230621122D2A067B
:101650004C05E0F010F013053C08C0E0173FF8C758
:101660000338041F070F33081007130F0E1910104B
:10167000A90004238C4C38FD1F80602E0545559E23
:10168000FE440615C51D4E051D7403AC050810600B
:10169000806C065EFE1C07272010E48DDB064AC026
:1016A0001A500C6666243810FF183C24666648A160
:1016B0006C45582DD1083310FF0601102405125A2D
:1016C0000115CC7210010525E9761CD27D910746E3
:1016D00038D41D5C0941A93E60BB046D3A0415B0C5
:1016E000332060DA3FFEFFC3061F01FFD4081C044D
:1016F00001070E9D094C05180E07017D048FC0E0FF
:10170000520883FFFF9D431F1FE21DB7066220485A
:101710001E0319032C05C060301FF1072405181C97
:1017200012110B3E1EFA0671231DD0071D9A073CAD
:1017300004182FE77C04220E227004180F07943E31
:10174000E034085C09C0A098848380FFFFC3044292
:10175000006E21D24220013DC9042D53053A182BB9
:1017600023070B6A331C0FE62380C092398870046C
:10177000FCFF21251A0193154E32082521FB212556
:101780003E60BD092DBB087183971F1F1F5521188F
:101790000A83CF6C1810303068CFF48004070F082C
:1017A000B531D93620441C041F3F60B107272010F3
:1017B000447004000C1C6B051AA70510B345FC9E71
:1017C0000C8C03BAD81E2D25082DDC08A80428444B
:1017D00082D03D3508CD870B724401E9594D480848
:1017E00089F53004824428544D58085D8C0885D60C
:1017F0001E07BA0B5405E0101808A671C02C08C0CB
:10180000E020109090A041033C09FEFF00F8FF0388
:10181000FC07DA0719405C05111111096C0A6B808D
:1018200060401C0880784740415FF053053C04103D
:101830001C131C031C04111F18610826E0D54E6000
:101840001D092EFF3903491D4961556845D41360B0
:10185000E06C4AFCAC3D7C0349AC1F10089105428A
:1018600020484A406549A929D059A92A08D04123CE
:10187000198A21B4316B1E10650562016B19F602DD
:101880001C0624CD3C034D900931901D27031EC337
:10189000DD0A51901E0F7F0A21483DD008210841E2
:1018A000481D170432FF48358631085220B70D19FC
:1018B0006003011625150D700580C07F3F642C055F
:1018C00000A0E06069088008FFFF300C3AE1806406
:1018D000640400131E67FDC803E200FC45D9214FD4
:1018E0002408FF0FFFE0807C034A1210AB1DC005E7
:1018F00051B326E0861D3C032DA6072C07FF0107E8
:101900001E78C0B1061DA3032DA2030C0414030FFF
:101910001F5C049E005C04960C8C35B13FFFFFF504
:1019200009040412101F0F680113488408191117C5
:101930003C6C6721D466C0D4700470D008AD112A05
:1019400021FD5DCC033E402C0424080F1C183830C8
:1019500070E0237F070CCC03678060679804608089
:101960000143AD7E0465D53220065588396A3D9E17
:10197000061F1008E40619A53D1E0936A08D18049F
:10198000077EE0F86DDF044F071E870521403128F0
:101990002109140803FFC0C03C3FF06B3D7E041DCD
:1019A0005B083D3F05514945671D9A063C05877C0C
:1019B000E886680C640510181601D4516C32206D4D
:1019C0003C06010F3CF8E06B08B1B43F80E0C8046E
:1019D00022A04E2D870830046018066A5405101C9A
:1019E0001711F84D8C081204019D81086DD7064E21
:1019F0007F870C1D670CAEC0A304AC040718E03A47
:101A0000072C04030C70D10521449EFC830E6DD27B
:101A1000087E40C60A2D090C2DCA0A0E3008CA08D5
:101A20007DEC0A5DFA0900042A040408461C0498A7
:101A3000988414052EFCE40D3C040F1F190B0618A6
:101A4000041F1018D09D21092C09FFFF1808040459
:101A50000CF8E9083E1FE905EE18C5051004E0F88A
:101A600018E53E3C96052C04030F0CA207560843CC
:101A70003D17032D24091004E0F81C243E088604B9
:101A80004A031B114EED9E079009F8888484848CCC
:101A9000F8E0498E049A072DC106154E67FFFF979F
:101AA000AD1304AD13062C0870F88C040CFCF43450
:101AB000062C08707ECF85858DCD1F10E1D811D7FB
:101AC0003204FC4D79046D87041D48045660D22110
:101AD000210E12FE800431250110269FC0C0810412
:101AE000B54430058040E01CB54DE50439AC4DC728
:101AF000040E1CF04C089960100504FCFC08B111A0
:101B0000044EFC0B0651040110250115D875B014C4
:101B100004F0180CD33D040855B0E60CD4514835F8
:101B2000F81D77087F88904D08A5AF35D467F8FC7D
:101B3000D4139088EAC14715421EFC9F0F0004157C
:101B4000041C18D62D2F102C083878CCC484840C93
:101B5000C7121E009D046C051011191F970B86C03B
:101B60006585F829AF21B5DD24084587558D1E0F01
:101B70004A070911641C05040C7CC479074B740CDA
:101B800042FC04031F0C92081C0C041CF48004EC9F
:101B9000FC8400E41C4D1122018BFF0F0F910834CF
:101BA00007040C3CE4C024D51D6809E407120101B8
:101BB000131C18B113043C6C37C43CF99C05C0805D
:101BC000817F6B0A7D7512111E5FC4746A0C1C0440
:101BD000181E13210A8E1847127EF880049C0410E8
:101BE00028C7CA084E3F8004ED990401120C9C04DA
:101BF0000404F891126BC728C17C0440403F5C0983
:101C00001D590F04041004081851014E01BC04C0F2
:101C1000C0C03205B8050FFFFF1F09C21F0F7C04AB
:101C2000060F0F48041D090B3004783C1C054DB00D
:101C30000C62010501287F91071006383838F83FFB
:101C40000541071D2804200570F0FF700131073998
:101C500063596A9D3E101F40F0B4136DA4121C0519
:101C60001E7FF0C0E6075A0C1C21DB4C0701FF0762
:101C7000071EFCF9031F03078C0540057F080C06AF
:101C8000A41D830B5D320D3DD6092E7E08055C0533
:101C9000FF7E00E0870C3C0F0001030283611C0300
:101CA000F8FE030103FEF70F3D6F0D1DA30B2E0879
:101CB0001C08414296403E6C077FFFC080603F2772
:101CC000031C0CF8FC03030F3E78E08081713B1489
:101CD000214F1F060CCE123C070503070E0C0CDE2D
:101CE000069C051C1CFC78EF0D062C023B9DF80D94
:101CF0006F6030400E1D4A0FBBFC0FD3DC041F7F0A
:101D0000E027032D640C4D580EE0043060C01CCC5D
:101D1000040FFCF00006890F1D241551F80D15DC89
:101D20000D1DB2082C0A604086FF8F40603038A439
:101D3000120C0E27181C0C0602F1FFE102060C1C07
:101D4000180B10DEFE5515EEFF5C150936EB0C0680
:101D50002980C7473F1EC907B201010D416C03BD71
:101D60003C03CD86038670207404C0701C66A10CF1
:101D700004041000301C7E29827D290D47F0FEFBF3
:101D80003C040107FE09115F3FFF5F034F80FF59CD
:101D9000045983AE06A403C380C0F29D760BED8682
:101DA0000B1D2E151E085C0329C68D820D2D7D0F7F
:101DB0005D93125F1E19D3046C04C1FF3EA20D3F58
:101DC00030186F033DE10350040E0D0C016F0E033C
:101DD000BF03313F6D42064DB703400480C17F3FD2
:101DE0002D6E0D1D79174C04030206C1033DC0037F
:101DF0001D4303CF0406F710AEC04A116F0C030059
:101E0000102F302CC5141D29188EFFBC0C21C37354
:101E10000F0FC172C0015DD312B1915FC0C3C50D78
:101E20003F01FFE712530304809F070381047E40B4
:101E300081042405E0FC07819043C083DFB0047F68
:101E4000FF83401D3B043580620CC0C2C080551624
:101E50007D1F0B3DE70CCEFCE207CDF70635FF7189
:101E6000B01C043E7FF1EF081D50122F417FD010AF
:101E70002405F0FC0E023F4F070E01051D8104757D
:101E8000409201BE694063FCFFD74DEF04113A4216
:101E90000C2F3FE17F300D4004070708BE0D1905E8
:101EA000041D970DCD5404DDBA030D1804037D9075
:101EB00006ED5919BD480A0F126E7EC3039F80407C
:101EC0009E188D2110EC0403040848106D88100141
:101ED0001145B2200139EE910101117601145ACD5C
:101EE000BA1041926E03530CDDC10365814DB913E5
:101EF000CC053C3F3900020335D6AE03591ADD4408
:101F0000044901697F1C0C0E0381E0780C04F83C45
:101F10000106201C1E1FFF0310063F7F40203C04CB
:101F20003F18874103FE064103CDFF076C07C07CC5
:101F300003033FFCF3192F80782A032C05080B7F3D
:101F4000F807131DFB035D37031D42033F0C084FC9
:101F500010BEC000046D6D0E7DC1035EFFBC054D5B
:101F6000C1035D7A03B94351C03D15175FE0FC7AA8
:101F70000E297B9E0EBF047D220871C03D031261B5
:101F800080717F7DFA136DC6067D0A142EC0C606C9
:101F900061802F0C04021491C02109B1C01EE0DE43
:101FA0001891C03F030F381581C0A005080C0E0121
:101FB00040021DC0404DAD134D7A040911007D3F14
:101FC000045D17052200FE45C04D2F0A4FFCFC5E44
:101FD0000D4DBF054208C041BF81C9AD31114D5AF9
:101FE00012657F4DD505817F710A41BC6D3B0F0D98
:101FF00010F0050D11000655049E00330F01264216
:102000001C0470F0F0BE195C04C0603FBC1461B7E2
:1020100071C821B7880480E0189D1EFF9204C40691
:10202000030F3CF0C040A406090F0E08080101216F
:10203000BC0510C025B75DE9055680402F0FFF3C59
:10204000181D0B1155401D6A0C4405FEC0F00F50C1
:1020500015BF2D491B6A0F4991401DC40631402D03
:1020600068124D71107EFF7511411451405D770665
:1020700008041101070F008DBA091D86098AE000C6
:1020800039C09E3F00035DBF039980CD80031C04CF
:10209000000081C80A35404D981D4DB91E091E80AB
:1020A000B1801DF91A3F3FFFA0073D520631804E17
:1020B0000181070C07270F3F766361100004D404E9
:1020C000073FF9C04601C08DBF064D84084C053E50
:1020D0007FE1C04B0825651D63192DAB205C06010F
:1020E00003030706C10B5E0FC0066DC10B3DFF0366
:1020F0005D04042D141FAD12130A14078E9504BD40
:1021000040033DDB1A9D4003D93FAEFFBF076D8200
:102110001639805DA62041093F07FF270C8D4C131F
:102120001D4F0D92F00E31C56D6507413591063298
:10213000013E22F3064EC0B0091C053FFCE01E9292
:1021400009B004FCF00F3D55A7718061C0496C8F48
:10215000C030161A1D48137C04070F7C4003370E4D
:102160000B771D40033DC0055EC0410471401C0457
:10217000031F7CBD169F80708019BF03FF931AC98F
:10218000448EC00105214845974C04C0F03897198A
:102190002D580353703CF02D80035C040E0F093F53
:1021A000057E0CA40CCFF8F85F070D1A7F043D677D
:1021B0000F8E3F5C19FF0060DB0CDC040F3CE095E8
:1021C000076F0107400491131E3EFF226DE10703D4
:1021D0001CF8F87289064D21089F3F3F33081F10F5
:1021E0001CCE0A00046118200001D280014DCB11E1
:1021F0000004480C0810623DC0187D041B1C04C07C
:10220000E33351192DF00A4D0F055D0F0A1D7B14A4
:102210001D5E1A1D4E14CD761B6D55138D27193D6D
:102220008106BD0E18AC050F070608000B0D11FE48
:10223000097E60AB1A8D95171DB21BBF8000010C83
:10224000BD48098DFE1B6D42175DF516D2FE7F5D00
:1022500040070C071404020F0704044A0F7E40EEE7
:10226000173D711C5E11E01C6F1F1E41105D120BAB
:10227000DE0143053D45182D6D0C3EFE25180C046E
:10228000122003037F04FD3F070114804C0460C04B
:10229000A0CA143C04C7FF3073185D7B132C0438AC
:1022A0007D47D51EB0068382467E3CF8F580DD1062
:1022B000064DCF066DF707BDC4037E80C50651C12C
:1022C0000F2AE1F1000851430224C0432D0E1A6F7A
:1022D000808001080112C04DC0185E608C211D264F
:1022E0001A5C05180C3E71D81EAD00082D800A5DE1
:1022F0007E080E26E0BF030116C06D16174FE0F0F2
:10230000931D6D991D6D45095D9A082DBE09B2009A
:1023100006ED0F0C1988052F80091A807D451C3D9C
:10232000F31E8D00039D800E0124803DD71A1D1CD5
:10233000232C05FFFF86847F050114407DC11C5EB0
:10234000C050030D1540032F8486F41E0112801F18
:1023500040409C1B3D961D6D050E1DC209062301C4
:102360007ECDC10351813C0680070F0C18081BBFAE
:10237000C30001080514012D2B038FF8FF1F060D64
:102380001240064DD40E0E1204F41E6DFA178D0283
:1023900018C5C0713D0D1540047E204E1D4E20E530
:1023A0001C2D69061DBC0A9FC038B8110F16010FFD
:1023B00043132D6C1B5E20261D41411C09077FF035
:1023C00080F00F1FFC7B1B5D31103D380A071501A3
:1023D0000FBF2D1B1C7EA0F61C4D090A6C06473E44
:1023E00038E6C1BC072C040C0E09C90D5D400B0179
:1023F00018C07D81032E03381D7D11152D29110F65
:1024000018601F2A225D2D1D1D7C1D4D88191E037D
:102410001B042C04F0381E2E113DEA1D4C040C0E3A
:102420000B01086D00126DFD23A6084F4D7A279D04
:102430009412DF02FCA90FBF1F20B10CDD40140174
:1024400029101D2A19CDEE141DB411D9DA9FFC02F2
:10245000F6291D70209D1D171D492A1E02DB141F21
:10246000382053210F2F2018F3241C2EC6D5CDA8B9
:10247000B3ACC9F9B2A8B1DCD5CFB8FACBE6BAECA7
:10248000CDE2D1B0BCA3C0B6D1C0D2A3BFD8C4A343
:10249000CABD0040445464457E141C4C067E45640D
:1024A000544482254249013D650C1C0E4042CC003B
:1024B00000E2222A2AF22A2622360C2C1F80403FD4
:1024C0004080FF898989BF89A9C9BF8000404848E9
:1024D00048FF484842A29E82A2C2BE492510081F5A
:1024E000207F4444404F181009484F40000414D442
:1024F000540122DF052004D41404202D350C3203AE
:10250000052DE6183C0560020CC0682A1C06FF88F1
:1025100088A818BD18137C0344300980432C102868
:10252000468180801C0C807E22223E005465C66459
:102530005426162C0E1F22415F49495F4042425FDC
:10254000424241281C0C22DA0610D2565A535A56DF
:10255000D2370C1FFF08831E1C0910171515FD1517
:102560001517470C10043E22E23D13FE92014EFE69
:102570005B291C0C1F111100FF40230C1422415633
:102580000D1C0EFE225A8608104424F42C2724E445
:10259000032C1006FF04088741E41C06BF8595A59F
:1025A0009F7B271C0430AC63FA292D611B3D841CE2
:1025B0003C07226722121212CB1D4D9B2A1FC030EE
:1025C000981B1D331B4EFF0A213C0581402112C878
:1025D000176EFF1A25638292015EFE1D1E3C080CD9
:1025E00034040444847F6C1E2240E11C0A08C8089D
:1025F000F8090EF808485F2911E11C0C20514846E3
:102600004148504F404041CD191C0AE4040FF404E6
:1026100004F444CFC72221301C077D44447D444547
:10262000C22D3F457C570C2004C2B2820122FE0617
:102630003D95202D1C2B6A41E63160540B004A3237
:10264000222AF121312D00C12C0A81BDA1A1BFA1F7
:10265000A1BD81C524140BFF9020984828090E289D
:10266000488020050242817F35100442427E041ECC
:1026700040412C240BD0FF9014E4AFA4A4A4AF1FBE
:102680001D6C12100DFF00894B2A1A0E1A2A4B8856
:1026900080202290013DEE252F11161B212C046075
:1026A000203FCF2E3D5E263DB00C11431C059012FD
:1026B00014FC2E1C1004F0F8160D6F5010AF0528F6
:1026C0000508CFCA4829AC064F4F484CCBA70B6032
:1026D000047F7F22018D0F0B2F0870AA241D2F1E4F
:1026E0009C0B94A4E4E494948C8880006E1F2EFFCD
:1026F000EC2331054E44E7071C0930180807081081
:10270000302FC62213606F045C04687C6F3F051D88
:1027100047092E2483131D8D2A3D312B2EF84E1888
:102720001C0E0202F21202FFFE4242624A0CF294B6
:102730001B2C05121216FBDB251F601C56153F0FC4
:102740001F2A09336F62013E67642251FA11013278
:10275000FE067FD0900E1C4EFC7824427C070E149F
:10276000FC4F277DA4132C04000C1822242DF32BDE
:102770002F22FEA6206DDE051FC03048101EFFA1CF
:102780002C1EC8DC0F1D682D4D1F131C04013F3F7C
:10279000F716274741E95C070D06070918300C2694
:1027A0001F0418D22D2DC22C3C09F8F81050921499
:1027B0001CD09B262D432B1EFEF20D1807F1F111A4
:1027C00013F144393C05FE454446432110090807EE
:1027D000070A11302727D11D9A20164C243DD42AF0
:1027E0001D022C2F8878BC1D500930D0921C1890E7
:1027F0007010D71DA41050080708F00101FD9501C5
:102800003FFD05A61A1E7FFA1510050305040403F3
:102810002B047FD53C040504064F124D7B0D62F856
:10282000095F08F86D1F12E7921C0A4242434000FC
:10283000FF1111F126255FBFC0232B1D3F232D7EE5
:102840000B13007FDA50040B0E19D81DC30D119025
:102850002C0420C0A0AC267F3C28FB261D34091187
:10286000902C040809F9410C3DB0044D1F141C07BD
:102870007F3F0103013105045C0B08101F3F30202E
:1028800024343F3744241D03282004080080482DA9
:10289000B9231DCE073910DC0A0C8744A49C8C8315
:1028A0004140BE051C04103111DF2E3C04141414E9
:1028B000A20B4D1F246DA2274C04F0BC88F92B8E6F
:1028C000FC6B1D2C0A40300C0B107080E03C35284E
:1028D0001DB2205C050818307048297E1093179EA1
:1028E0007FDE0D9004000848017FF8FCE7088DB6F4
:1028F000268C0844FCF44F4F4060FE121F030E84E8
:10290000041D99259E3FC52A25F84D19074004E46A
:102910003838DA45F82C0A02FE0220180E02C07F71
:10292000DE274406FF02040C38F81E04A91C180414
:10293000141211D32C0524242C2774246E10B429CE
:102940002F927CED251004D07E3C0C79D01D782C84
:102950004C0DC0BF819088878181858999F1EF11E5
:102960003DAC0ED1044DD22B2D57035E28FC0E3DFD
:102970008F0F6DCF191E07F6055C0682C2623A0EF4
:1029800039122E03FA2D151E1D330DBC080301103C
:102990001020607F1C1E2F04389A30600EE8C88813
:1029A0000834E4040484643E1400D8100B0020288A
:1029B000A4A3232222FE22053AA2B71E10A51C1DA5
:1029C000F0032C08202727646444477F033A6FD024
:1029D0002D370A1FFE447A311D62276C05A024386A
:1029E00028F22819EE1DA22A1C0A08041028242601
:1029F00023E1E0002F4E26671E255E6D7A2A6D18B2
:102A0000265D7F0A1C05FE404070F7035FFEFCF563
:102A1000033D5C241C06C0380FFF02C3031C0700E3
:102A20007F2424E464492D4DAA2E2D5E2D1DE32D17
:102A30001C0E41412121110D07010709113121759A
:102A40002D6DD4303DD91517FEFCED475878E04D7B
:102A500024033DAD10AE01551D16309F1DDC134DF6
:102A60009A242D5D1D0C052C30307E40780F0C060D
:102A70002AE060E0C0800A106C04C0FC7C4C1B1C87
:102A8000050C0F1B19F7290C091F313B7B7BEFCF7E
:102A9000C783F11F2C06FCFFCFFB7F291CEE0367C9
:102AA000210C051E80F0FC1F082C8C050080F9FF0E
:102AB000030A700470E8B8B90C0520E0FC1F076F2A
:102AC00020C3FC7F25000B2003070F1F1F3E3C88FF
:102AD000F87F3D21BC5E87FB10DD45340C0716FFF7
:102AE0001F18383C0C1D2E1C0480E070871C4F07FB
:102AF00003511E120301130706011D881F1E0C9AA5
:102B00001E11011C041F3F709B2731011D8310CE35
:102B10007044120C052706060F01311E0D36DC111C
:102B20000A2CC000100680E0FC3E0E013901100B9B
:102B30001E3F336161E3E7EFFCF801091F471C0703
:102B4000E0FEFFE7FD3FCB2EFA03010C051EC0F8A7
:102B50007F0F092E940480E0FDE83C07307CF8F0FC
:102B6000F0E0B71500041FC0F83E3D2162E9252DB5
:102B7000E2150405210F8FFF7F652C0560FEFFC362
:102B8000D125F9021C04F8FF372A22031D1030BAA0
:102B90005807381C0E060303025A07021C063C782D
:102BA000D89F9F1A31DD791CEDEE2C0F11080C72A5
:102BB00024B5FA0E36032C28E10B0D21CB201FE0A3
:102BC000E04E1920077E1F87C3E343CB1C0C071F71
:102BD0003F7D71E1C18FBFFFF0801D0D1F4B0404CD
:102BE00006113CFFFFFD3F701005010181F1190640
:102BF0001F03C4AD050E28090F1F3F3E7E7E7CFCDF
:102C00007E0920020714E0F8E90D237C041C06006D
:102C1000081E1F1B20241AF07421E85D2F181D9533
:102C2000041D01040C062138787030E060224C0449
:102C3000F8FC0700241D5C2228043FFFC3090C0494
:102C4000270E0F07B624AC0430371FCC222D9F204F
:102C50000C0438020F0773155AC0D10528FD4D49E1
:102C6000031406F07898F878704F6161D4041C0B57
:102C70007FF3C10383FFFE1E30304C060E1EC0677B
:102C80002A7C058FFF791E8A184D83351DEF1F1D85
:102C9000DD2508051D8EC0F83C011F80E0EA039D7C
:102CA000931E1E02C3051C05363C7C780A040920CD
:102CB000010D1764060C0420C0F07E3F042D831123
:102CC0002DB5031DB50519052270EA2DAB372D7DF5
:102CD00006DC043F6B78B805091B055F3E7F1729AA
:102CE0005D11066E03482D0D23B2332C05607F7FE6
:102CF00030A51E0F400E04741759028D24370D2481
:102D000032351C0AE0F838D8F87C1E0721A9393979
:102D1000011F0F3F020408081F81FFFFF0F060E071
:102D2000001C0480EFFF9A19CE0115343D8C050874
:102D3000061C83E37B1F0701DDEA051C05020E1F4D
:102D40003707062D91030C041DF03C1F4A030E1695
:102D500080270808042281F17F001D101C28060628
:102D600086C66E3C0229EB3D7C066A80000D24611C
:102D700026CEC7711639020A2801009E0638070CB4
:102D8000063F030F7C7870812959002D0F240F2BEB
:102D9000E0E001041DC50349003D46072C07183833
:102DA0007070677F8A030D1F0608F806C7FF3D1E77
:102DB00007004DD4290D1EC503A804C0F07C003CBB
:102DC00006061E77DEF8070A19000A221E000D10FB
:102DD0007A060C061F030787F37D3D061C07C0E03B
:102DE0003019190F461A2D040449014A60010806DA
:102DF0001CE0FE1F6F78F70C0414103C3FF7160C14
:102E0000072A0F3FE1C38301FF030D1139070806AD
:102E10003B0306161C0C002D9B381E70EB160E246F
:102E2000C003042E8001062DAC055E3100041D1A7E
:102E3000052D8C1C0C081F18397F6FEFC7877E1477
:102E40000B17FF7D000A201C00A5C40A2507004DB2
:102E50005E0B1DAA030913000C0415C7F37CD816DA
:102E60002F1030BE0B5E0307254D12203E060406D0
:102E70003806303070606000040837F0FE3F7D781F
:102E8000E080BF1F071FC7154E4190270E3DE0E7AA
:082E9000295D080A00000000A2
:0400000508000131BD
:00000001FF
