:020000040800F2
:1000000070060020D5010008D9010008DB010008B6
:10001000DD010008DF010008E10100080000000028
:10002000000000000000000000000000E3010008E4
:10003000E501000800000000E7010008E9060008EB
:10004000EB010008EB010008EB010008EB010008E0
:10005000EB010008EB010008EB010008EB010008D0
:10006000EB010008EB010008D5030008EB010008D4
:10007000EB010008EB010008EB010008EB010008B0
:10008000EB010008EB010008EB010008EB010008A0
:10009000EB010008EB010008EB010008EB01000890
:1000A000EB010008EB010008EB010008EB01000880
:1000B000EB010008EB010008EB010008EB01000870
:1000C000EB010008EB010008EB010008EB01000860
:1000D000EB010008250700085D080008EB01000897
:1000E000EB010008EB010008EB010008EB01000840
:1000F000EB010008EB010008EB010008EB01000830
:10010000EB010008EB010008EB010008EB0100081F
:10011000EB010008EB010008EB010008EB0100080F
:10012000EB010008EB010008EB010008EB010008FF
:1001300000F002F800F03FF80AA090E8000C8244BA
:100140008344AAF10107DA4501D100F034F8AFF297
:10015000090EBAE80F0013F0010F18BFFB1A43F0A5
:1001600001031847C0090000E0090000103A24BF4D
:1001700078C878C1FAD8520724BF30C830C144BF0C
:1001800004680C607047000000230024002500264E
:10019000103A28BF78C1FBD8520728BF30C148BFEA
:1001A0000B607047632900F0AA80002070471FB5DC
:1001B0001FBD10B510BD00F0DDF81146FFF7F7FFC9
:1001C00000F078FC00F0FBF803B4FFF7F2FF03BC8B
:1001D00000F020FC08480047FEE7FEE7FEE7FEE7E8
:1001E000FEE7FEE7FEE7FEE7FEE7FEE70348044919
:1001F000044A054B704700003101000870000020E0
:10020000700600207002002070020020704700007D
:100210000FB4044910B503AA029800F07DF810BC91
:100220005DF814FB040000202DE9F0410E46044661
:10023000002020622046E168884730B3252805D099
:10024000D4E901219047206A401CF2E7E16820468A
:1002500000278847050018D0A5F14100192802D8C9
:1002600020354FF400673246294620462760FFF7C5
:1002700099FF40B1012804D0F61D26F00706083684
:10028000D8E7361DD6E72846DAE7206ABDE8F081D0
:1002900070B50C460546012A05D02878800600D5A1
:1002A000EA69002302E0012305E05B1C934202D2CD
:1002B000E05C0028F9D1A869E618C01AA861286A8C
:1002C000184428622846AFF3008004E0D5E90121F4
:1002D00014F8010B9047B442F8D32846AFF30080DE
:1002E00070BD704770477047704710B5436913B1D0
:1002F000AFF3008001E0FFF7CBFF012010BD1278C3
:1003000000F124010A7000224A700122EDE7116811
:100310004FF0FF32E9E70000074B70B50D467B4414
:1003200000F011F80446284600F020F810B14FF014
:10033000FF3070BD204670BD7707000001694A1C80
:1003400002610878704700B58FB0CDE90131002116
:10035000059105497944CDE9031011466846FFF738
:1003600063FF0FB000BD0000E5FFFFFF007B00F062
:1003700080007047754600F029F8AE4605006946D2
:10038000534620F00700854618B020B5FFF72EFF32
:10039000BDE820404FF000064FF000074FF0000886
:1003A0004FF0000B21F00701AC46ACE8C009ACE807
:1003B000C009ACE8C009ACE8C0098D4670470446E6
:1003C000AFF300802046FFF7FFFE000000487047B3
:1003D0000C00002010B50D48006800F0100098B126
:1003E0000A2000F038FB0A48006800F0100058B9F5
:1003F0000648006840F0100004490860054800689D
:1004000080F020000349086010BD00001404014082
:10041000081801400C0C01401648806940F0480063
:10042000144988611448006820F47000124908607B
:100430000846006840F4401008601048006820F446
:1004400070000E4908600846006840F440100860DB
:1004500009480C30006840F0200007490C31086062
:1004600006480C30006840F0200004490C31086058
:100470007047000000100240000C014000180140CD
:1004800000B5002015490861C860142048610020AB
:100490008861C8610846006840F0010008600846AD
:1004A00040680F4908400D494860084600680D49FA
:1004B00008400A4908600846006820F48020086067
:1004C0000846406820F4FE00486000208860002153
:1004D0004FF0006000F008F800BD0000001002407E
:1004E0000000FFF8FFFFF6FE024A0A400243024BFB
:1004F0001A60704780FFFF1F08ED00E000F01F0248
:10050000012191404209920002F1E022C2F800115B
:100510007047F0B503460C4603F00701C1F1070030
:10052000042801D9042001E0C1F107000646081D96
:10053000072801D2002000E0C81E05460120B04077
:10054000401E2040A8400127AF407F1E174038437F
:10055000F0BD000010B5002807DA0A07140E054A9E
:1005600000F00F031B1FD45403E00A07130E024AC6
:10057000135410BD18ED00E000E400E02648806947
:1005800040F008002449886124480068C0F3130043
:100590002249086008460068214908431F4908604D
:1005A0001E480830006840F460401C49083108606B
:1005B0001948C06940F480401749C861194800884B
:1005C0000020184908800846008840F40070088020
:1005D0000846008840F4807008800846008840F093
:1005E000080008800846008840F004000880081DC4
:1005F000008820F0FF00091D08800A481C30008890
:100600006FF30B0007491C3108800648008840F052
:10061000400004490880704700100240040C01406B
:100620000000B0BB0038004000BF0A49098801F053
:1006300002010029F9D00749091D088000BF0549BA
:10064000098801F001010029F9D00249091D098832
:10065000C8B270470838004030B504460025FFF79F
:100660000FFF1F48006840F480301D49086000BF3C
:100670001B480068400C0028FAD04FF480601849ED
:100680004860A01EC4B20846406840EA8440486002
:100690000846406840F4803048601248006840F0E6
:1006A0003200104908600E48006840F080700C4924
:1006B000086000BF0A480068400E0028FAD00848C9
:1006C000406840F002000649486005E00448406880
:1006D000C0F3870505F00305022DF7D130BD0000FA
:1006E00000100240002002404FF0E020006900F4BA
:1006F000803048B1FF204FF0E02188610348006856
:1007000080F0200001490860704700000C1801408B
:100710004FF0E020006920F004004FF0E021086174
:100720007047000008B51648008800F02000A8B106
:100730001348001D0088C0B200906A46012111488C
:10074000006800F009F90F480068401C0D49086076
:100750000D48006820F020000B4908600848008818
:1007600000F0100050B1064800880548001D0088C0
:100770000548006840F020000349086008BD0000FB
:1007800000380140080000200C18014070B50446F4
:100790002D48806940F004002B4988612B4800688F
:1007A00020F47F60294908600846006840F496609C
:1007B00008602748406820F0040025494860224826
:1007C000C06840F480402049C8600846C06820F4F2
:1007D0008040C8600846806940F4804088611D48B8
:1007E000008820F480501B4908800846008840F0AB
:1007F0000C0008800846008840F020000880084669
:10080000008840F010000880081D008820F4405047
:10081000091D08801048B0FBF4F00E49091F08803C
:10082000022201210520FFF774FEC5B229462520CA
:10083000FFF790FE2520FFF761FE0648008840F490
:1008400000500449088070BD0010024004080140B7
:10085000000001400C38014000A24A0410B50948CC
:10086000008800F0200060B10648001D008806499D
:1008700008700846017805A0FFF7CAFC0120094965
:10088000087010BD0044004001000020C4E3CAD538
:10089000B5BDB5C4D6B8C1EECAC7A3BA25630D0AA3
:1008A000000000000200002010B5044600F09EF891
:1008B0001048006820F480500E490860D820FFF7E7
:1008C000B3FEC4F30740FFF7AFFEC4F30720FFF702
:1008D000ABFEE0B2FFF7A8FE0648006840F4805087
:1008E0000449086000BF00F069F800F0010000282A
:1008F000F9D110BD0C0C014070B505460C4606E060
:100900002846FFF7D1FF05F58035601EC4B2002CE4
:10091000F6D170BD10B5FFF731FE0D48806940F08B
:1009200008000B4988610B48006820F470200949D1
:1009300008600846006840F4403008600548083008
:10094000006840F4805003490831086010BD000081
:1009500000100240040C014070B504460D461646D6
:1009600000F044F81448006820F4805012490860F0
:100970000220FFF759FEC4F30740FFF755FEC4F30A
:100980000720FFF751FEE0B2FFF74EFE04E030789B
:10099000FFF74AFE761C6D1E002DF8D10648006850
:1009A00040F480500449086000BF00F007F800F0F0
:1009B00001000028F9D170BD0C0C014010B50A48A7
:1009C000006820F48050084908600520FFF72CFEDD
:1009D000FF20FFF729FE04460348006840F48050DA
:1009E00001490860204610BD0C0C014010B50848B4
:1009F000006820F48050064908600620FFF714FEC6
:100A00000348006840F480500149086010BD0000B0
:100A10000C0C0140014600BF7047FF214FF0E0225F
:100A2000916142F22831414351611146096941F017
:100A30000101116100BF4FF0E021096901F480312B
:100A40000029F8D04FF0E021096921F001014FF0B1
:100A5000E0221161704730B503460025B3F5E96F18
:100A600003DC1846FFF7D9FF15E004E0A3F5E960C1
:100A700083B2681CC5B2B3F5E96FF7DA002405E06C
:100A80004FF4E960FFF7C9FF601CC4B2AC42F7DB6A
:100A90001846FFF7C2FF30BD00BF054A128802F0BA
:100AA0004002002AF9D0C2B2014B1B1D1A807047C8
:100AB000003801400920FFF7CFFD05200246114B09
:100AC00019684FF6FF0319400F4B0B4343EA02210D
:100AD0000C4B196000BFFFF71BFE4FF4E130FFF72E
:100AE00055FEFFF799FCFFF715FF08A0FFF790FBF5
:100AF00015214FF43020FFF7FFFE07A0FFF788FB1A
:100B000000BFFEE70CED00E00000FA05BFAACABC7A
:100B1000B2C1B3FD0D0A0000B2C1B3FDCDEAB3C945
:100B20000D0A0000440B0008000000200C0000002B
:100B30006C010008500B00080C0000206406000047
:100B400088010008000000000000000000000B0009
:0400000508000131BD
:00000001FF
