:020000040800F2
:100000003807002031020008390200083B020008CE
:100010003D0200083F020008410200080000000005
:100020000000000000000000000000004302000883
:1000300045020008000000004702000831070008E0
:100040004B0200084B0200084B0200084B0200085C
:100050004B0200084B020008390400084B0200085C
:100060004B0200084B0200084B0200084B0200083C
:100070004B0200084B0200084B0200084B0200082C
:100080004B0200084B0200084B0200084B0200081C
:100090004B0200084B0200084B0200084B0200080C
:1000A0004B0200084B0200084B0200084B020008FC
:1000B0004B0200084B0200084B0200084B020008EC
:1000C0004B0200084B0200084B0200084B020008DC
:1000D0004B020008C10700082D0800084B02000869
:1000E0004B0200084B0200084B0200084B020008BC
:1000F0004B0200084B0200084B0200084B020008AC
:100100004B0200084B0200084B0200084B0200089B
:100110004B0200084B0200084B0200084B0200088B
:100120004B0200084B0200084B0200084B0200087B
:100130004B0200084B0200084B0200084B0200086B
:100140004B0200084B0200084B0200084B0200085B
:100150004B0200084B0200084B0200084B0200084B
:100160004B0200084B0200084B0200084B0200083B
:100170004B0200084B0200084B0200084B0200082B
:100180004B0200084B02000800F002F800F041F8B2
:100190000AA090E8000C82448344AAF10107DA45E2
:1001A00001D100F036F8AFF2090EBAE80F0013F0F3
:1001B000010F18BFFB1A43F0010318471007000096
:1001C00030070000103A24BF78C878C1FAD8520727
:1001D00024BF30C830C144BF04680C6070470000C1
:1001E0000023002400250026103A28BF78C1FBD840
:1001F000520728BF30C148BF0B607047732900F019
:10020000B880002070471FB500F05AFB1FBD10B525
:1002100010BD00F0E1F81146FFF7F5FF00F036FBE6
:1002200000F0FFF803B4FFF7F2FF03BC00F012FB8D
:100230000948804709480047FEE7FEE7FEE7FEE77A
:10024000FEE7FEE7FEE7FEE7FEE7FEE704480549B6
:10025000054A064B7047000059070008890100084D
:100260003801002038070020380300203803002020
:10027000704700000FB4044910B503AA029800F0BB
:100280007DF810BC5DF814FB040000202DE9F0415E
:100290000E460446002020622046E168884730B3BD
:1002A000252805D0D4E901219047206A401CF2E7B7
:1002B000E168204600278847050018D0A5F14100D5
:1002C000192802D820354FF40067324629462046C7
:1002D0002760FFF793FF40B1012804D0F61D26F0F8
:1002E00007060836D8E7361DD6E72846DAE7206A3B
:1002F000BDE8F08170B50C460546012A05D0287886
:10030000800600D5EA69002302E0012305E05B1CBA
:10031000934202D2E05C0028F9D1A869E618C01A1D
:10032000A861286A184428622846AFF3008004E0D8
:10033000D5E9012114F8010B9047B442F8D32846BF
:10034000AFF3008070BD704770477047704710B5BD
:10035000436913B1AFF3008001E0FFF7CBFF012049
:1003600010BD127800F124010A7000224A700122A7
:10037000EDE711684FF0FF32E9E70000074B70B579
:100380000D467B4400F011F80446284600F020F8A2
:1003900010B14FF0FF3070BD204670BDEB0400007F
:1003A00001694A1C02610878704700B58FB0CDE939
:1003B00001310021059105497944CDE90310114629
:1003C0006846FFF763FF0FB000BD0000E5FFFFFFC9
:1003D000007B00F080007047754600F029F8AE46BB
:1003E00005006946534620F00700854618B020B541
:1003F000FFF72CFFBDE820404FF000064FF000074C
:100400004FF000084FF0000B21F00701AC46ACE8BC
:10041000C009ACE8C009ACE8C009ACE8C0098D4629
:1004200070470446AFF300802046FFF7FBFE000054
:1004300000487047D800002010B51548006800F04B
:10044000010018B30A2000F008FA1248006900F011
:100450000100D8B10E48006840F001000C49086066
:100460000D48006880F040000B49086008460068AD
:1004700080F4007008600846006880F480600860BE
:100480000648006880F001000449086010BD0000C3
:10049000143C0140000002401414024014080240C1
:1004A0002F48006840F020002D4908600846006889
:1004B00040F0040008602B4800682B490840294997
:1004C000086008460068294908432649086028480A
:1004D000006820F00300264908600846006840F0E4
:1004E000010008601F48001D006820F4C8601D4915
:1004F000091D08601E48001D006820F001001C490D
:10050000091D086017480830006817490840154958
:100510000831086008460068164908431149083147
:10052000086013480830006820F0030010490831C3
:1005300008600846006840F002000860094814306E
:10054000006840F4C8600749143108600848143056
:10055000006840F00100064914310860704700004F
:100560003038024000140240FFCFC3FF00101400D7
:1005700000080240002020000CB5002001900090EF
:100580003448006840F480303249086000BF314888
:10059000006800F4003000900198401C0190009821
:1005A00018B90198B0F5A04FF1D12A48006800F4BD
:1005B000003010B10120009001E000200090009870
:1005C000012846D123484030006840F0805021493E
:1005D000403108602048006840F440401E490860EF
:1005E0001C48083000681B4908310860084600684C
:1005F00040F4004008600846006840F4A0500860DD
:100600001648091F0860081F006840F08070091F25
:10061000086000BF0F48006800F000700028F9D0A3
:1006200040F205700E4908600A480830006820F062
:1006300003000849083108600846006840F00200DD
:10064000086000BF03480830006800F00C0008286C
:10065000F8D10CBD0038024000700040195440072A
:10066000003C02402DE9F04102464FF0E0200069D5
:1006700020F004004FF0E02108610846006940F0D6
:1006800002000861FF20886145F20820504348615C
:100690000520012425460146C1F1070CBCF1040FD9
:1006A00002D94FF0040C01E0C1F1070C674601F1DB
:1006B000040CBCF1070F02D24FF0000C01E0A1F1D5
:1006C000030C66464FF0010C0CFA07FCACF1010C70
:1006D0000CEA040C0CFA06FC4FF0010808FA06F8C4
:1006E000A8F1010808EA05084CEA080C0CF0FF0321
:1006F0004FF0FF301946002807DA0C07260E0A4C87
:1007000000F00F052D1F665503E00C07250E074C62
:10071000255400BF4FF0E020006940F001004FF089
:10072000E0210861BDE8F08118ED00E000E400E0A0
:100730004FF0E020006900F4803048B1FF204FF016
:10074000E02188610348006880F0400001490860AA
:10075000704700001414024010B51548006840F4BA
:100760007000134908601348006840F00100114907
:10077000086000200F49083108600E4800680E49E3
:1007800008400C4908600D48091D0860081F0068F2
:1007900020F48020091F0860002006490C31086001
:1007A000FFF7EAFE4FF0006001498039086010BD94
:1007B00088ED00E000380240FFFFF6FE1030002414
:1007C00010B51148008800F0200050B10E48808814
:1007D0000E490F4A127888540D480078401C0C4985
:1007E00008700948008800F0100060B106480088D1
:1007F0000548808800210548054A12788154014641
:1008000004A0FFF737FD10BD0010014010000020CC
:100810000C000020C4E3B7A2CBCDB5C4CAFDBEDD39
:10082000CAC7A3BA25730D0A000000000648008855
:1008300000F0200038B10448001D0088034908700A
:100840000120034908707047004400400000002068
:1008500001000020014600BF704701464AF21042E5
:1008600001FB02F000E0401E0028FCD170470000B0
:1008700000BF054A128802F04002002AF9D0C2B235
:10088000014B9A807047000000100140052002468D
:10089000094B19684FF6FF031940084B0B4343EA15
:1008A0000221054B196000BF4FF4FA70FFF7DAFE22
:1008B000FFF7F6FD00BFFEE70CED00E00000FA05D3
:1008C0004FF04070E1EE100A70470000EC0800089D
:1008D0000000002010000000C4010008FC0800080F
:1008E0001000002028070000E001000800000000C0
:0C08F000000000000100000000000000FB
:040000050800018965
:00000001FF
